:020000040800F2
:10000000002000105DAA00082DA600082FA60008F9
:1000100031A6000833A6000835A60008000000003D
:1000200000000000000000000000000037A60008EB
:1000300039A60008000000003BA600083DA6000805
:1000400041AB000845AB000849AB00084DAB0008C8
:1000500051AB000855AB000859AB00085DAB000878
:1000600061AB000865AB000869AB00086DAB000828
:10007000C9A6000871AB0008D3A6000875AB00083C
:1000800079AB00087DAB000881AB000885AB0008A8
:10009000DDA6000889AB00088DAB000891AB000815
:1000A00095AB000899AB00089DAB0008A1AB000818
:1000B000A5AB0008A9AB0008ADAB0008B1AB0008C8
:1000C000B5AB0008B9AB0008BDAB0008C1AB000878
:1000D000C5AB0008E7A60008FFA6000809A70008AE
:1000E000C9AB0008CDAB0008D1AB0008D5AB000808
:1000F000D9AB0008DDAB0008E1AB0008E5AB0008B8
:10010000E9AB0008EDAB0008F1AB0008F5AB000867
:10011000F9AB0008FDAB000801AC000805AC000815
:1001200009AC00080DAC000823A7000811AC0008BA
:1001300015AC000819AC00081DAC000821AC000883
:1001400025AC000829AC00082DAC000831AC000833
:1001500035AC000839AC00082DA700083DAC0008FC
:1001600041AC000845AC000849AC00084DAC0008A3
:1001700051AC000855AC000859AC00080000000064
:100180005DAC000861AC0008DFF8EC06002181627C
:100190000021C1620021416200214164DFF8DC06D8
:1001A0000021C1600021C161002141620021416143
:1001B0000021816100210161704780B5DFF8C00630
:1001C000D0ED000ADFF8BC0690ED000A00F003F85D
:1001D000FFF7DAFF01BDDFF8B006DFF89C1691EDFE
:1001E000031A30EE410A90ED001A30EE010A80ED5C
:1001F000000ADFF8980691ED040A30EEC00AD0ED4F
:10020000000A30EE200A80ED000A704710B5DFF8D2
:10021000684694ED020ADFEDAE0A80EE200A10EE89
:10022000100A01F0C7FDDFF86826DFF8683601F034
:10023000E5FD01F0D1FE606194ED000ADFEDA50A55
:1002400080EE200ADFF84006D0ED000A30EE200AEA
:1002500084ED030A94ED010ADFED9E0A80EE200A88
:10026000DFF82806D0ED000A30EE200A84ED040AFB
:1002700094ED030AD4ED0E0A30EE600A10EE100A77
:1002800001F098FDDFF81026DFF8103601F0D8FEF7
:1002900001F0A2FE206394ED040AD4ED0F0A30EEC3
:1002A000600A10EE100A01F085FDDFF8EC25DFF89A
:1002B000EC3501F0C5FE01F08FFE6063E068A063DD
:1002C0002069E063D4ED0D0A94ED0C0A02F00FF8FA
:1002D00001F0FFFF51EC100B01F07EFE206410BD19
:1002E00080B530EE600A0DE010EE100A01F062FDFC
:1002F000DFF89C25DFF8A83502F098F801F06CFED5
:1003000000EE100ADFED740AB4EE600AF1EE10FAA6
:10031000EADADFED720AB4EE600AF1EE10FA0ED5F9
:1003200010EE100A01F046FDDFF86425DFF87435A1
:1003300002F07CF801F050FE00EE100AE9E701BD82
:1003400080B5DFF83405D0ED050AFFF7C9FFDFF807
:100350005805D0ED000A60EE200ADFF8500590ED58
:10036000001A31EE401ADFF84815D1ED001A21EEDF
:10037000211A80ED000A30EE810A01BD2DE9F84313
:100380002DED048B0400F0EE408AB0EE608A0E0082
:10039000DFF8E474200002F007F980468946DFF8B0
:1003A000140590ED000AD7ED050A30EE200A30EE74
:1003B000680A10EE100A01F0FDFC41EC100B02F08F
:1003C00014F951EC100B42464B4601F017FD91F029
:1003D000004101F001FE09EE100A200002F0E4F8ED
:1003E00080468946DFF8D00490ED000AD7ED050A73
:1003F00030EE200A30EE680A10EE100A01F0DAFC46
:1004000041EC100B02F0F1F851EC100B42464B4658
:1004100001F0F4FC91F0004101F0DEFD09EE900ADC
:10042000200002F0C1F804000D00DFF8900490ED08
:10043000000AD7ED050A30EE200A30EE680A10EE09
:10044000100A01F0B7FC41EC100B02F0CEF851ECB1
:10045000100B22002B0001F0D1FC91F0004101F0C3
:10046000BBFD08EE900A9FED280A002E05D1B0EEE4
:10047000480AFFF765FFB0EE408A9FED240AB4EE0C
:10048000408AF1EE10FA01DB9FED218A9FED210AEF
:10049000B4EE408AF1EE10FA01D5B0EE408A39EEA2
:1004A000880ABDEEC00A10EE102A38EE880ABDEEAA
:1004B000C00A10EE101A39EE080ABDEEC00A10EE9E
:1004C000100A02F09FF8BDEC048BBDE8F183000038
:1004D0000000344300007A44DB0F4940DA0F49C082
:1004E00010B5B0EE601ADFF89043D4ED030A70EE59
:1004F000600A94ED040A31EE400A02F0C9F8D4ED26
:10050000050AFFF7EDFE10BD000000000100AF433B
:100510000000AF430000AFC32DE9F8432DED028B7F
:10052000B0EE408A05000C001600DFF8987318EE54
:10053000100A01F03FFCDFF89023DFF8903301F060
:100540005DFC80468946341B3234200002F02CF8D2
:10055000DFF87C23DFF87C3301F050FC42464B4649
:1005600001F064FFDFF87023DFF8703301F05EFF05
:1005700001F032FD38609FEDB90AD7ED000AF4EEC4
:10058000400AF1EE10FA02DB87ED000A0DE09FED64
:10059000B60AD7ED000AF4EE400AF1EE10FA02D5E1
:1005A00087ED000A01E038683860B1EE040AB4EE65
:1005B000408AF1EE10FA05DBDFF82403DFF824139C
:1005C000016020E0B4EE408AF1EE10FA0CD59FED08
:1005D000A70AB4EE408AF1EE10FA05DBDFF800035B
:1005E000DFF8041301600EE0751B40F22D10854208
:1005F00005DBDFF8EC02DFF8F412016003E0DFF85E
:10060000E00299490160BDEC028BBDE8F183000076
:10061000F8B52DED048BB0EE409AB0EE608A05007F
:100620000E001400DFF8C802016801292CD1DFF8A0
:10063000C422DFF84412CB681360DFF8BC320969CA
:10064000196000210160DFF8787292ED000A39EE3E
:10065000400AD2ED000A79EE600A20EE200AD3EDBE
:10066000000A78EE600A93ED001A38EE411A00EEA7
:10067000810A02F043F887ED000A220031002800C9
:1006800097ED000AFFF748FFDFF8EC0190ED030A51
:1006900039EE400AD0ED030A79EE600A20EE200A16
:1006A000D0ED040A78EE600A90ED041A38EE411A93
:1006B00000EE810A02F022F8DFF80402D0ED000A11
:1006C00080EE200AF7EE000A30EEC00AF7EE000ACC
:1006D000B4EE600AF1EE10FA01DBB7EE000AB5EEF7
:1006E000400AF1EE10FA01D89FED610AD0ED000A40
:1006F0009FED601AF4EE410AF1EE10FA0BD5761B6D
:1007000000EE906AF8EEE00A01EE105AF8EEC18AA7
:1007100040EE808A61E0DFF8C801D0ED000AF4EE17
:10072000400AF1EE10FA18DBA54204D100EE104A9F
:10073000F8EEC08A51E0611B00EE901AF8EEE00A74
:1007400020EE800AD0ED000A80EE200A00EE905ADA
:10075000F8EEE00A70EE208A3FE0DFF86801D0EDA5
:10076000000AF4EE400AF1EE10FA0FD5F7EE000A97
:1007700090ED001A70EEC10AF4EE400AF1EE10FAA4
:1007800004DB00EE104AF8EEC08A26E0A64201D152
:10079000200022E0311B00EE901AF8EEE00A90ED06
:1007A000001AC0EE810A01EE106AB8EEC11AD0ED4F
:1007B000001A21EE211A01EE906AF8EEE11A31EEEC
:1007C000611A01EE904AF8EEE11A31EE211AD0EDED
:1007D000001AC1EE218A40EE808ABDEEE80A10EED2
:1007E000100A844201DA200002E0012800DA002029
:1007F000BDEC048BF2BD70B504000D0016001E4860
:1008000090ED031A30EE411AD0ED031A30EE610A72
:1008100021EE000A90ED041A30EEC11AD0ED041A50
:1008200070EEE10A01EE200A01F068FF2D1B00EED8
:10083000905AF8EEE00A01EE104AB8EEC11A00EE46
:10084000801ABDEEC10A10EE100A864201DA3000AD
:1008500002E0012800DA002070BD00009A99193FDB
:100860000020054948627047CDCCCC3D0100C03F17
:10087000000000000100003FCC820020D485002051
:1008800088220020681F0020BC860020C08600202F
:1008900044174154FB2109407B14AE47E17A743F71
:1008A000FB2119C0FB211940085E0020C4860020EE
:1008B000B8860020145E0020105E00200C5E002030
:1008C000D0860020205E0020F6285C8FC2F5C8BFCD
:1008D000091B9E5E29CB603F5C8FC2F5285CE9BF97
:1008E0001C5E00200AD7A33D8FC2F53D9A99993E20
:1008F000245E0020C8860020CC86002010B52DED97
:10090000048B82B0B0EE408AF0EE608AAD4C94ED7C
:10091000030A30EE480AD4ED030A70EEC80A20EE4E
:10092000200AD4ED040A70EEE80A94ED041A31EEC0
:10093000681A00EE810A01F0E1FE3048C168012921
:1009400029D12F49D1ED000AB4EE600AF1EE10FA78
:1009500021DBF0EE680AB0EE480AFFF7C1FDB0EE09
:10096000409A40F2523232217D20F0EE680AB0EE19
:10097000480AFFF74DFE00EE100AB8EEC01A00213B
:10098000DFED8E0AB0EE490ABDEEC11A11EE100A73
:10099000FFF7F4FC2EE0C168012908D00021D4ED56
:1009A000050A9FED860A0020FFF7E8FC22E01449C3
:1009B000D1ED000AF4EE400AF1EE10FA1ADB012143
:1009C000814A11600021C160206901F0F3F9CDE98D
:1009D0000001E06801F0EEF902000B007B4801F035
:1009E000B9FF0021DFED750A9FED740A0020FFF7C3
:1009F000C5FCFFE702B0BDEC048B10BDD485002020
:100A0000185E002010B52DED068BB0EE418AF0EE99
:100A1000618AB0EE429AF0EE629AB0EE480AF0EEC9
:100A2000680A01F0D9FC002840F09280B0EE480A34
:100A3000F0EE680A01F092FCB0EE401AF0EE601A97
:100A4000634CB0EE490AF0EE690A01F036FC84ED21
:100A5000000BB0EE480AF0EE680A01F03AFCB0EE86
:100A6000409AF0EE609AD4E9000101F0B5FA00EE88
:100A7000900A9FED520A574802F006F8B1EE400A7C
:100A800010EE100A01F096F941EC1A0BB0EE480A8C
:100A9000F0EE680A01F062FCB0EE4A1AF0EE6A1A53
:100AA00001F02EFCB0EE40AAF0EE60AAB0EE480ACB
:100AB000F0EE680A01F072FCB0EE491AF0EE691A25
:100AC00001F01EFCB0EE4A1AF0EE6A1A01F0E8FBE3
:100AD000B0EE409AF0EE609A3A4CB0EE490AF0EE71
:100AE000690A01F0F6FB51EC100B02F019F8606294
:100AF000606A40F63501884202DB40F634006062ED
:100B00003548616A814200DA606219EE100A01F02C
:100B100051F941EC110BB0EE418AF0EE618A19EE09
:100B2000900A01F047F941EC100BB0EE481AF0EED4
:100B3000681A01F052FD51EC100B01F04DFAA06261
:100B40000021DFED1E0A94ED0A0A606AFFF716FC29
:100B5000BDEC068B10BD000010B52DED048B194CBB
:100B60000020E06294ED040AF1EE400A94ED030ADD
:100B7000B1EE400A01F0BBFBB0EE409AF0EE609A95
:100B8000DFED0E0A9FED0E0A01F0B1FBB0EE408AD8
:100B9000F0EE608AD4ED0D0A94ED0C0A01F0A7FB8B
:100BA000B0EE492AF0EE692AB0EE481AF0EE681A63
:100BB000FFF728FFBDEC048B10BD00000000000013
:100BC0000000FA43CC820020245E002054A90008D3
:100BD00090860020E85D0020CCF7FFFFF8B52DEDF2
:100BE000068B82B09FEDC98BB0EE480AF0EE680A22
:100BF000DFF8384E206AE569451B0B2D00DB0A251E
:100C00006D1E00E06D1E002D00F15582B0EE489A79
:100C1000F0EE689AB0EE48AAF0EE68AA606A002882
:100C200015D0022861D039D3042800F0AC80C0F080
:100C30008380062800F0F580C0F0CC80082800F002
:100C40003E81C0F01581092800F0648188E1DFF859
:100C5000746E96ED030ADFF8700EE169691800EB17
:100C60008100D0ED000A30EE600A10EE100A01F0AB
:100C7000A1F841EC190B96ED040ADFF89C0EE1692E
:100C8000691800EB8100D0ED000A30EE600A10EE2A
:100C9000100A01F08FF841EC1A0B61E1DFF8246EC5
:100CA00096ED030ADFF8740EE169691800EB810024
:100CB000D0ED000A30EE600A10EE100A01F07AF86A
:100CC00041EC190B96ED040ADFF8540EE16969183E
:100CD00000EB8100D0ED000A30EE600A10EE100A41
:100CE00001F068F841EC1A0B3AE1DFF8D86D96EDA7
:100CF000030ADFF87C0EE169691800EB8100D0ED92
:100D0000000A30EE600A10EE100A01F053F841ECD0
:100D1000190B96ED040ADFF85C0EE169691800EB27
:100D20008100D0ED000A30EE600A10EE100A01F0EA
:100D300041F841EC1A0B13E1DFF8886D96ED030AD8
:100D4000DFF8800EE169691800EB8100D0ED000A40
:100D500030EE600A10EE100A01F02CF841EC190B8D
:100D600096ED040ADFF8600EE169691800EB810076
:100D7000D0ED000A30EE600A10EE100A01F01AF809
:100D800041EC1A0BECE0DFF83C6D96ED030ADFF85E
:100D9000880EE169691800EB8100D0ED000A30EEA1
:100DA000600A10EE100A01F005F841EC190B96EDFF
:100DB000040ADFF8680EE169691800EB8100D0EDE4
:100DC000000A30EE600A10EE100A00F0F3FF41EC6A
:100DD0001A0BC5E0DFF8EC6C96ED030ADFF88C0E19
:100DE000E169691800EB8100D0ED000A30EE600A7D
:100DF00010EE100A00F0DEFF41EC190B96ED040A2C
:100E0000DFF86C0EE169691800EB8100D0ED000A93
:100E100030EE600A10EE100A00F0CCFF41EC1A0B25
:100E20009EE0DFF8A06C96ED030ADFF8940EE1690E
:100E3000691800EB8100D0ED000A30EE600A10EE78
:100E4000100A00F0B7FF41EC190B96ED040ADFF829
:100E5000740EE169691800EB8100D0ED000A30EEF4
:100E6000600A10EE100A00F0A5FF41EC1A0B77E0C3
:100E7000DFF8506C96ED030ADFF84C0EE169691853
:100E800000EB8100D0ED000A30EE600A10EE100A8F
:100E900000F090FF41EC190B96ED040ADFF88C0E80
:100EA000E169691800EB8100D0ED000A30EE600ABC
:100EB00010EE100A00F07EFF41EC1A0B50E0DFF854
:100EC000046C96ED030ADFF8680EE169691800EB1F
:100ED0008100D0ED000A30EE600A10EE100A00F03A
:100EE00069FF41EC190B96ED040ADFF8480EE16941
:100EF000691800EB8100D0ED000A30EE600A10EEB8
:100F0000100A00F057FF41EC1A0B29E00000000026
:100F100000000000DFF8AC6B96ED030ADFF8180E56
:100F2000E169691800EB8100D0ED000A30EE600A3B
:100F300010EE100A00F03EFF41EC190B96ED040A8A
:100F4000DFF8F80DE169691800EB8100D0ED000AC7
:100F500030EE600A10EE100A00F02CFF41EC1A0B84
:100F600051EC190B0022002301F0F8FD08D251ECDE
:100F7000190B0022DFF8C83D00F040FF41EC190BCF
:100F800051EC1A0B0022002301F0E8FD08D251ECCD
:100F90001A0B0022DFF8A83D00F030FF41EC1A0BDD
:100FA00051EC190B53EC192B00F028FF06000F0031
:100FB00051EC1A0B53EC1A2B00F020FF32003B00CF
:100FC00001F034FA41EC100B01F0E0FDB0EE409A74
:100FD000F0EE609ADFF8EC6A706AB0F52F7F05DBFF
:100FE000DFF8600DDFF8601D016004E0DFF8540DEC
:100FF000DFF8581D0160002051EC190BDFF8502D6F
:10100000DFF8503D01F0AAFD05D2E0692818216AF9
:10101000891E884213DADFF82C0D006800F0CAFE42
:1010200053EC192B01F034FE0BD8E0692818002886
:1010300007D4E0692818216A891E884201DA012054
:1010400000E0002000283FF4DDADE069401CE061D5
:10105000306900F0AFFECDE90001F06800F0AAFEB3
:1010600002000B00E169DFF8F00C01F073FCE069AD
:10107000216A491E88421EDB0021D6ED050A9FED3C
:10108000B70A0020FFF77AF9002060610020E061D4
:10109000306900F08FFECDE90001F06800F08AFEB3
:1010A00002000B00616ADFF8B40C01F053FCFFF79B
:1010B000D7FB00F037BE9FEDA9AA0025606A002883
:1010C0006CD1DFF89C6CE06956F8200000F072FEED
:1010D00041EC100B01F08FFAB0EE408AF0EE608A1E
:1010E000E06956F8200000F065FE41EC100B01F0BD
:1010F0007CFAB0EE409AF0EE609ADFF8686CE06936
:1011000006EB800090ED000AB8EEC00A10EE100A5F
:1011100000F050FE53EC182B00F070FE00F05CFF66
:1011200000EE900AB0EE608AE06906EB800090ED78
:10113000000AB8EEC00A10EE100A00F03BFE53ECB5
:10114000192B00F05BFE00F047FF00EE100AF0EEF6
:10115000480A01F0CCF8B0EE408AF0EE608ADFF881
:101160006409DFF8B419E26901EB820191ED000A2C
:10117000D0ED040A70EE600ADFF84C19E26901EB69
:10118000820191ED000A90ED031A30EE410A01F060
:10119000AEF8B0EE409AF0EE609AEDE3606A012896
:1011A0006CD1DFF8C46BE06956F8200000F002FE55
:1011B00041EC100B01F01FFAB0EE408AF0EE608AAD
:1011C000E06956F8200000F0F5FD41EC100B01F04D
:1011D0000CFAB0EE409AF0EE609ADFF8906BE0699E
:1011E00006EB800090ED000AB8EEC00A10EE100A7F
:1011F00000F0E0FD53EC182B00F000FE00F0ECFED8
:1012000000EE900AB0EE608AE06906EB800090ED97
:10121000000AB8EEC00A10EE100A00F0CBFD53EC45
:10122000192B00F0EBFD00F0D7FE00EE100AF0EEF7
:10123000480A01F05CF8B0EE408AF0EE608ADFF810
:101240008408DFF8DC18E26901EB820191ED000A05
:10125000D0ED040A70EE600ADFF8C018E26901EB15
:10126000820191ED000A90ED031A30EE410A01F07F
:101270003EF8B0EE409AF0EE609A7DE3606A022894
:101280006ED1DFF8F06AE06956F8200000F092FDB8
:1012900041EC100B01F0AFF9B0EE408AF0EE608A3D
:1012A000E06956F8200000F085FD41EC100B01F0DC
:1012B0009CF9B0EE409AF0EE609ADFF8BC6AE06903
:1012C00006EB800090ED000AB8EEC00A10EE100A9E
:1012D00000F070FD53EC182B00F090FD00F07CFE48
:1012E00000EE900AB0EE608AE06906EB800090EDB7
:1012F000000AB8EEC00A10EE100A00F05BFD53ECD5
:10130000192B00F07BFD00F067FE00EE100AF0EEF6
:10131000480A00F0ECFFB0EE408AF0EE608ADFF899
:10132000A407DFF85018E26901EB820191ED000A91
:10133000D0ED040A70EE600ADFF83418E26901EBC0
:10134000820191ED000A90ED031A30EE410A00F09F
:10135000CEFFB0EE409AF0EE609A0DE30000000080
:10136000606A03286CD1DFF8146AE06956F820003F
:1013700000F020FD41EC100B01F03DF9B0EE408A89
:10138000F0EE608AE06956F8200000F013FD41ECB1
:10139000100B01F02AF9B0EE409AF0EE609ADFF8F7
:1013A000E069E06906EB800090ED000AB8EEC00A43
:1013B00010EE100A00F0FEFC53EC182B00F01EFD9E
:1013C00000F00AFE00EE900AB0EE608AE06906EBDB
:1013D000800090ED000AB8EEC00A10EE100A00F08E
:1013E000E9FC53EC192B00F009FD00F0F5FD00EECF
:1013F000100AF0EE480A00F07AFFB0EE408AF0EEF4
:10140000608ADFF8C006DFF8C017E26901EB8201ED
:1014100091ED000AD0ED040A70EE600ADFF8A4171F
:10142000E26901EB820191ED000A90ED031A30EEC2
:10143000410A00F05CFFB0EE409AF0EE609A9BE249
:10144000606A04286CD1DFF83C69E06956F8200036
:1014500000F0B0FC41EC100B01F0CDF8B0EE408A8A
:10146000F0EE608AE06956F8200000F0A3FC41EC41
:10147000100B01F0BAF8B0EE409AF0EE609ADFF887
:101480000869E06906EB800090ED000AB8EEC00A3A
:1014900010EE100A00F08EFC53EC182B00F0AEFC9E
:1014A00000F09AFD00EE900AB0EE608AE06906EB6B
:1014B000800090ED000AB8EEC00A10EE100A00F0AD
:1014C00079FC53EC192B00F099FC00F085FD00EE3F
:1014D000100AF0EE480A00F00AFFB0EE408AF0EE83
:1014E000608ADFF8E005DFF83417E26901EB82017A
:1014F00091ED000AD0ED040A70EE600ADFF81817CB
:10150000E26901EB820191ED000A90ED031A30EEE1
:10151000410A00F0ECFEB0EE409AF0EE609A2BE249
:10152000606A05286CD1DFF86468E06956F820002D
:1015300000F040FC41EC100B01F05DF8B0EE408A89
:10154000F0EE608AE06956F8200000F033FC41ECD0
:10155000100B01F04AF8B0EE409AF0EE609ADFF816
:101560003068E06906EB800090ED000AB8EEC00A32
:1015700010EE100A00F01EFC53EC182B00F03EFC9D
:1015800000F02AFD00EE900AB0EE608AE06906EBFA
:10159000800090ED000AB8EEC00A10EE100A00F0CC
:1015A00009FC53EC192B00F029FC00F015FD00EEAE
:1015B000100AF0EE480A00F09AFEB0EE408AF0EE13
:1015C000608ADFF80005DFF8A816E26901EB820106
:1015D00091ED000AD0ED040A70EE600ADFF88C1677
:1015E000E26901EB820191ED000A90ED031A30EE01
:1015F000410A00F07CFEB0EE409AF0EE609ABBE14A
:10160000606A06286CD1DFF88C67E06956F8200024
:1016100000F0D0FB41EC100B00F0EDFFB0EE408A83
:10162000F0EE608AE06956F8200000F0C3FB41EC60
:10163000100B00F0DAFFB0EE409AF0EE609ADFF89F
:101640005867E06906EB800090ED000AB8EEC00A2A
:1016500010EE100A00F0AEFB53EC182B00F0CEFB9E
:1016600000F0BAFC00EE900AB0EE608AE06906EB8A
:10167000800090ED000AB8EEC00A10EE100A00F0EB
:1016800099FB53EC192B00F0B9FB00F0A5FC00EE20
:10169000100AF0EE480A00F02AFEB0EE408AF0EEA2
:1016A000608ADFF82004DFF81C16E26901EB820192
:1016B00091ED000AD0ED040A70EE600ADFF8001622
:1016C000E26901EB820191ED000A90ED031A30EE20
:1016D000410A00F00CFEB0EE409AF0EE609A4BE149
:1016E000606A07286BD1DFF8B466E06956F820001D
:1016F00000F060FB41EC100B00F07DFFB0EE408A83
:10170000F0EE608AE06956F8200000F053FB41ECEF
:10171000100B00F06AFFB0EE409AF0EE609ADFF82E
:101720008066E06906EB800090ED000AB8EEC00A22
:1017300010EE100A00F03EFB53EC182B00F05EFB9D
:1017400000F04AFC00EE900AB0EE608AE06906EB19
:10175000800090ED000AB8EEC00A10EE100A00F00A
:1017600029FB53EC192B00F049FB00F035FC00EE8F
:10177000100AF0EE480A00F0BAFDB0EE408AF0EE32
:10178000608AD048DFF8A415E26901EB820191ED8F
:10179000000AD0ED040A70EE600ADFF82C15E26949
:1017A00001EB820191ED000A90ED031A30EE410A3F
:1017B00000F09DFDB0EE409AF0EE609ADCE0606AC9
:1017C00008286BD1DFF8DC65E06956F8200000F0EE
:1017D000F1FA41EC100B00F00EFFB0EE408AF0EE93
:1017E000608AE06956F8200000F0E4FA41EC100B42
:1017F00000F0FBFEB0EE409AF0EE609ADFF8A865CC
:10180000E06906EB800090ED000AB8EEC00A10EE29
:10181000100A00F0CFFA53EC182B00F0EFFA00F0AA
:10182000DBFB00EE900AB0EE608AE06906EB800018
:1018300090ED000AB8EEC00A10EE100A00F0BAFAF5
:1018400053EC192B00F0DAFA00F0C6FB00EE100A98
:10185000F0EE480A00F04BFDB0EE408AF0EE608AF0
:101860009848DFF8D014E26901EB820191ED000A9B
:10187000D0ED040A70EE600ADFF8B414E26901EBFF
:10188000820191ED000A90ED031A30EE410A00F05A
:101890002EFDB0EE409AF0EE609A6DE0606A092885
:1018A0006AD1DFF80865E06956F8200000F082FA96
:1018B00041EC100B00F09FFEB0EE408AF0EE608A23
:1018C000E06956F8200000F075FA41EC100B00F0CA
:1018D0008CFEB0EE409AF0EE609ADFF8D464E069D6
:1018E00006EB800090ED000AB8EEC00A10EE100A78
:1018F00000F060FA53EC182B00F080FA00F06CFB5B
:1019000000EE900AB0EE608AE06906EB800090ED90
:10191000000AB8EEC00A10EE100A00F04BFA53ECC1
:10192000192B00F06BFA00F057FB00EE100AF0EEF6
:10193000480A00F0DCFCB0EE408AF0EE608A6148B4
:10194000DFF8F813E26901EB820191ED000AD0EDB6
:10195000040A70EE600ADFF8E013E26901EB82012D
:1019600091ED000A90ED031A30EE410A00F0BFFC41
:10197000B0EE409AF0EE609A206A801EE1698842DB
:1019800010DB5048D0ED0D0A90ED0C0A00F0AFFCD2
:10199000B0EE492AF0EE692AB0EE481AF0EE681A65
:1019A000FFF730F8E069216A491E884240F0BA81A9
:1019B000606A002815D002285FD039D3042800F0CF
:1019C000B180C0F08380062800F00081C0F0D48090
:1019D000082800F04F81C0F02381092800F07681AB
:1019E00098E14D4D384E206A05EB8000001FD0ED88
:1019F000000A206A06EB8000001F90ED000AFEF747
:101A00006FFDB0EE40AA322200211E20236A05EBB2
:101A100083031B1FD3ED000A236A06EB83031B1FFE
:101A200093ED000AFEF7E7FE050073E1D485002080
:101A30003B4D3A4E206A05EB8000001FD0ED000AB6
:101A4000206A06EB8000001F90ED000AFEF748FDBB
:101A5000B0EE40AA322200211E20236A05EB830348
:101A60001B1FD3ED000A236A06EB83031B1F93EDB4
:101A7000000AFEF7C0FE05004CE13E4D3C4E206AD8
:101A800005EB8000001FD0ED000A206A06EB800005
:101A9000001F90ED000AFEF723FDB0EE40AA3222AF
:101AA00000211E20236A05EB83031B1FD3ED000AD0
:101AB000236A06EB83031B1F93ED000AFEF79BFED0
:101AC000050027E1CC820020681F00203E4D3D4EDE
:101AD000206A05EB8000001FD0ED000A206A06EBAB
:101AE0008000001F90ED000AFEF7FAFCB0EE40AA5D
:101AF000322200211E20236A05EB83031B1FD3ED36
:101B0000000A236A06EB83031B1F93ED000AFEF70E
:101B100072FE0500FEE000BF88220020A8250020FC
:101B2000C82800203D4D3C4E206A05EB8000001F78
:101B3000D0ED000A206A06EB8000001F90ED000A3D
:101B4000FEF7CEFCB0EE40AA322200211E20236A0E
:101B500005EB83031B1FD3ED000A236A06EB830307
:101B60001B1F93ED000AFEF746FE0500D2E000BF02
:101B7000E82B0020082F00203D4D3C4E206A05EB4D
:101B80008000001FD0ED000A206A06EB8000001FD5
:101B900090ED000AFEF7A4FCB0EE40AA322200212C
:101BA0001E20236A05EB83031B1FD3ED000A236A63
:101BB00006EB83031B1F93ED000AFEF71CFE0500D6
:101BC000A8E000BF28320020483500203D4D3C4EA3
:101BD000206A05EB8000001FD0ED000A206A06EBAA
:101BE0008000001F90ED000AFEF77AFCB0EE40AADC
:101BF000322200211E20236A05EB83031B1FD3ED35
:101C0000000A236A06EB83031B1F93ED000AFEF70D
:101C1000F2FD05007EE000BF68380020883B002010
:101C2000424D294E206A05EB8000001FD0ED000ACE
:101C3000206A06EB8000001F90ED000AFEF750FCC2
:101C4000B0EE40AA322200211E20236A05EB830356
:101C50001B1FD3ED000A236A06EB83031B1F93EDC2
:101C6000000AFEF7C8FD050054E000BFA83E0020B2
:101C7000C84100202F4D2E4E206A05EB8000001F2A
:101C8000D0ED000A206A06EB8000001F90ED000AEC
:101C9000FEF726FCB0EE40AA322200211E20236A65
:101CA00005EB83031B1FD3ED000A236A06EB8303B6
:101CB0001B1F93ED000AFEF79EFD05002AE000BF02
:101CC000E844002008480020284B00201B4D1A4EF5
:101CD000206A05EB8000001FD0ED000A206A06EBA9
:101CE0008000001F90ED000AFEF7FAFBB0EE40AA5C
:101CF000322200211E20236A05EB83031B1FD3ED34
:101D0000000A236A06EB83031B1F93ED000AFEF70C
:101D100072FD05000021DFED160AB0EE4A0A280028
:101D2000FEF72CFB02B0BDEC068BF1BD484E002047
:101D30006851002088540020A8570020C85A00206D
:101D40000000F0BF285E00200AD7233E8FC2F53C7A
:101D50007C14AE47E17A743F6CA9000888A800089B
:101D60003C5E0020000000205C6100202403002075
:101D7000000000007C640020480600209C670020D2
:101D80006C090020BC6A0020900C0020DC6D002053
:101D9000B40F0020FC700020D81200201C7400201A
:101DA000FC1500203C770020201900205C7A0020E0
:101DB000441C0020C0F3C75181B1FF2906D0C110D7
:101DC000400721F0E04101F16051704741020CBF32
:101DD00040F4E0016FF000410020704700F0004146
:101DE00000020AD0B0FA80FC00FA0CF001F1605158
:101DF000A1EB0C5101EBD02140057047B0B581EA51
:101E0000030C0CF0004C40F2FF7515EA11541DBF95
:101E100015EA1357AC42AF4239E0E41923EA4553BF
:101E200043F48013C90241F0004141EA505EC70209
:101E30001100A7FB020200284FF00000EEFB01207A
:101E40004FF00001E3FB072118BF42F001024018E8
:101E500000214941E3FB0E01A4F580640F0302D287
:101E600052004041494154F101046CDD470872F1D0
:101E7000004250F1000051EB0451A1F580115CBF0C
:101E800041EA0C01B0BD4CEA05510020B0BD05EAA5
:101E90001357AC4214BFAF4241E050EA410E1CBFA1
:101EA00052EA430E02E061460020B0BD24423C44A9
:101EB0001BD15FEA070EF6D0090302BF01460020DE
:101EC000AEF1140EB1FA81F7AEEB070401FA07FE8A
:101ED0000C37C7F1200100FA07F7C8404EEA000EA0
:101EE00023EA455343F48013A2E733F00043B3FAE7
:101EF00083F704BFB2FA82FE77440B3FE41BB7F1CD
:101F0000200E2FBF02FA0EF3BB40C7F1200E22FABB
:101F10000EFE38BF43EA0E03BA40641C82E750EA63
:101F2000410E14BF52EA430E6FF000014FF4001748
:101F300017EB430F8ABF194617EB410FB5E74CEA81
:101F400005510020B0BDD4F10104B4F120070FDA2F
:101F5000C4F12007520828BF42F0010210FA07F529
:101F600001FA07F7E1BF2A43E0403843E1400FE0C0
:101F7000352C98DCC7F1200452EA400220FA07F21F
:101F800018BF42F0010231FA07F0A1400A430021D4
:101F900072F1004250F1000051EB0C01B0BD30B4C1
:101FA000002513E050F8042BD30744BFA9F1010327
:101FB0009A18091F042942F8045BFAD213468C07C9
:101FC00044BF15809B1CC90748BF1D7050F8041BF7
:101FD0000029E7D130BC704701F000428B1AA3F111
:101FE0006051B1F5801F0ADBB1F17F6F1FD242EA69
:101FF000C102C10071F1004142EB507070470B15F6
:10200000C3F10903212B10D2890241EA90518002C9
:102010000128494141F0004121FA03F0C3F12003B6
:10202000994071F1004150417047100070476FF0C6
:10203000000013EB103F5CBF000E42EAC050704737
:10204000F0B540F2FF7581EA030C0CF0004C15EA84
:1020500011541DBF15EA1357AC42AF42E5E0BC4135
:10206000C1F31301C3F31303801A994143F480139E
:1020700004D2641E4000494180185941C90241EA16
:102080005051B1FBF3F603FB1611A2FB0675D7EB1B
:10209000C020A94102D2761E80185941C90241EAE6
:1020A0005051B1FBF3FE03FB1E11A2FB0E75D7EBE3
:1020B000C020A94103D2AEF1010E80185941890216
:1020C00041EA9051760546EA8E2EB1FBF3F603FB0A
:1020D0001611A2FB0675D7EB8020A94102D2761E0D
:1020E00080185941C90241EA50514EEA060EB1FB2F
:1020F000F3F603FB1611A2FB0675D7EBC020A9412E
:1021000002D2761E80185941C90241EA5051B1FBF2
:10211000F3F703FB1711A2FB0735D3EBC020A9414E
:1021200067F100070CBF004247F0010766F3D527AF
:102130004FEA1E31B80814F5806412DDBD0775F151
:10214000004250EB0E5051EB045111F5801F5CBF63
:1021500041EA0C01F0BD4CF07F6141F0E04100200C
:10216000F0BDBD076D0840EA0E5041F48011D4F176
:102170000104B4F120060ADAC4F120060200E040AE
:1021800001FA06F3E1401843B24015430EE0342C47
:1021900013DCC6F1200445EA40056D0820FA06F27A
:1021A000154321FA06F0A1400D43002175F10042CC
:1021B00050F1000051EB0C01F0BD00205FEA0C0172
:1021C000F0BDCFB992185B41B3FA83F704BFB2FAFE
:1021D00082F6BF190B3FB7F120062FBF02FA06F3B4
:1021E000BB40C7F1200622FA06F638BF3343BA4097
:1021F0001CB1E419641E33E77F4231F00041B1FAAB
:1022000081F404BFB0FA80F6A4190B3CB4F12006A7
:102210002FBF00FA06F1A140C4F1200620FA06F60D
:1022200038BF3143A0403C1B1AE7AC421ABF05EA55
:102230001357AF4212E050EA41061CBF52EA430670
:10224000BFE750EA4107304661461CBF41EA0551ED
:10225000F0BD52EA430C08BFC143F0BD00204FF46B
:10226000001616EB410F98BF16EB430F08BF16EB95
:10227000410F24BFC14305E016EB430F0CBF61467D
:102280004CEA0551F0BD8268521C8260426832B14E
:102290000268531C036011704168491E4160704719
:1022A00030EE013AB0EE432A30EEA10AF0EE402AB9
:1022B000B0EE420AF0EE620A704780B520EE012AC5
:1022C00000EEA12A12EE100AFFF774FD41EC100B8C
:1022D00001BD80B520EE001A00EEA01A11EE100A22
:1022E000FFF768FD41EC100B00F050FC01BDB0EEB3
:1022F000401AF0EE601AB0EE410AF0EE610A704743
:1023000080B52DED048BB0EE409AF0EE609AB0EE01
:10231000418AF0EE618A19EE100AFFF74BFD53EC8B
:10232000182BFFF76BFDFFF757FE00EE100AB0EE1B
:10233000409A19EE900AFFF73DFD53EC182BFFF77A
:102340005DFDFFF749FE00EE100AF0EE409AB0EE98
:10235000490AF0EE690ABDEC048B01BD80B52DED94
:10236000028BB0EE608AB1EE400AF0EE408AB0EE29
:10237000480AF0EE680AFFF7ACFF0020284953EC4A
:10238000102BFFF75DFE41EC110BB0EE480AF0EEAA
:10239000680AFFF7B5FFBDEC028B01BD80B52DEDDE
:1023A000028BB0EE408AF0EE608AB0EE480AF0EEA2
:1023B000680AFFF78EFF0020194953EC102BFFF736
:1023C0003FFE41EC110BB0EE480AF0EE680AFFF751
:1023D00097FFBDEC028B01BD80B52DED028BB0EEF9
:1023E000408AF0EE608A18EE100AFFF7E3FC31F045
:1023F00000410C4A0C4B00F0B1FB0CD218EE900AD5
:10240000FFF7D8FC31F00041064A074B00F0A6FB6D
:1024100001D2012000E00020BDEC028B02BD0000D3
:102420000000F03F8DEDB5A0F7C6B03E70B44FF0A0
:10243000004591EA030F40F14B846B40841A71EB25
:10244000030604D26E40001BB141121973414FF4D0
:10245000001C1CEB410F34BF7CEB430683E00C0DEA
:10246000A4EB1356362E00F37C80012E45EAC323DD
:1024700041DC43EA525312BFD20292025B082405A8
:1024800045EAC12141EA5051D2EBC020994125D4FF
:1024900007D1B0FA80F610FA06F162D0002020369B
:1024A00008E0B1FA81F6B140C6F1200220FA02F24A
:1024B0001143B0404FEAF474B4EB465434F00106D3
:1024C0004FEA74040AD8D6F50016760D04F00044DD
:1024D000F04061FA06F25040F1404840C00A40EA3C
:1024E000415021F0004128BF5FEA500550F1000043
:1024F00044EBD12135E0DB0A45EAC121C90AB6F136
:1025000020050EDD42EA0242120CC5F1200603FA54
:1025100006F6EB4042EA06056D42984161F1000182
:102520000DE062FA06F5F240554063FA06FC82EAD5
:102530000C02F3405A406D42904161EB030111F4EB
:10254000801F05D1641E620502D06D0040414941E3
:1025500021F48011430875F1004350F1000041EB74
:10256000045170BC70471CEB410F15D223F000439F
:1025700052EA43060BD04FEA4C0CBCEB410F04D897
:102580000C0D661E342EB7DDEBE7801A994150EA38
:10259000410608BF0021E4E708BF1CEB430F28BF3A
:1025A0006FF00001DDE70000C11768B14840401A34
:1025B000B0FA80F29040D21CC907C2F5846241EAA9
:1025C000025202EBD02140057047000041EC100B95
:1025D00001BD80B500F096FEF8E780B553EC112BF5
:1025E00051EC100B00F0B8FEF0E780B551EC100B89
:1025F00001F074F9EAE780B551EC100B01F070F9C5
:10260000E4E7000038B540F27624604340F6340336
:1026100090FBF3F0614340F6340391FBF3F3624324
:1026200040F6340192FBF1F240F27721884200DB60
:102630002000144DA84200DA28008B4200DB230062
:10264000AB4200DA2B008A4200DB2200AA4200DA09
:102650002A00002802D540F27621081A002B02D564
:1026600040F27621CB1A002A02D540F276218A1A4E
:1026700005490A8048808B800448006880B201F0D8
:1026800079F931BD8AFDFFFFA08600207086002009
:1026900052EC101AB0EEC00AC80F49005200F0EE1A
:1026A000E00A28BF0C3011F1807F38BF12F1807F23
:1026B0000CD28A4238BF80F00400124214D034BFDA
:1026C00080EE800A80EE200A01F0C2B911F1807F0D
:1026D00008BF80F0040098BF12F1807F08D88A42BA
:1026E00014BF00224FF07E5200EE102A01F0B0B964
:1026F0006FF0004100EE101A70470000B5EEC00AFE
:10270000F1EE10FA02D4B1EEC00A70476FF0004C3F
:1027100000EE10CAAFF300807047000010B5010052
:10272000DFF80C432000402201F0F4F96322DFF8C7
:102730000413200001F0B7FA00F017F82068C06811
:1027400050F010002168C86010BD80B56322DFF82A
:10275000E412DFF8E40201F0A6FA6322DFF8DC12EB
:10276000DFF8DC0201F09FFA01BD10B5DFF8D442BA
:102770002068002807D10022DFF8CC120FF20120D8
:1027800001F08EFE20600FF26112B049B04800F0F7
:10279000B7F810BD38B5AF4CAF4D2A0069462000E0
:1027A00000F074F82900009800F087F862210022F8
:1027B000200001F063FF0020A849086031BDF8B592
:1027C00004009B4D20682968884230D10020009089
:1027D0002068006800902068406800900098206899
:1027E000006820684068280001F0B7FA914E310077
:1027F0000800411C0078002803D116F163008142D3
:10280000F6D3944F491E380001F06CFF3878002849
:1028100002D001209249086062210022370038006E
:1028200001F02CFF63223100280001F03CFA844DB6
:1028300020682968884228D100200090206800681C
:102840000090206840680090009820680068206828
:102850004068280001F081FA824E784C2100300057
:1028600001F040FF3078002802D001207E49086046
:1028700000F098F8622100222600300001F0FEFEF0
:1028800063222100280001F00EFAF1BDF8B50C001A
:102890001500764E316801F04BFF002706E045F841
:1028A00027007F1C3168002001F042FF002801D082
:1028B0000D2FF4DB27600020F2BD38B504000D00B9
:1028C00029686048006801F05FFE0200002A05D018
:1028D0002900200012689047002003E0644800F0BF
:1028E00039F8012032BD000080B5624800F032F8AE
:1028F00000220FF2A1015348006801F075FE01BDEE
:102900002DE9F84304000D001600082002F098FDA0
:102910000700200002F0F2FE401C02F091FD80460C
:10292000200002F0EBFE401C02F08AFD81462100EF
:10293000404601F0D7FE2900484601F0D3FE3E6034
:10294000C7F804903A0041463E48006801F0CFFDC8
:10295000BDE8F1830EB418B5020003AB464C652107
:10296000200002F0E7FE324B202183F839100200EC
:1029700092B22100180001F04CF911BC5DF810FB77
:1029800080B502F0F5FE002801D0012000E0002013
:10299000C0B202BD80B509684A6801003748FFF738
:1029A000D9FF01BD38B5304C206800283ED000204A
:1029B00000E0401C632831DA20490A5C0D2AF8D176
:1029C00001EB000252780A2AF3D14928F1DA01EB2F
:1029D0000002927E0A2AECD101EB0002D27E0D2A7F
:1029E000E7D1002205E013180B449B78244DAB542B
:1029F000521C182AF7DB234821490A688260CA68FA
:102A0000026009694160FDF701FC0020206062213D
:102A10000022144C200001F031FE07E0002020606D
:102A2000622100220F4C200001F028FE31BD000081
:102A300054830020BC7F002014850020E880002003
:102A400094840020D486002081440008ECA900086A
:102A5000C8AA00082080002054850020DC860020C1
:102A6000D886002084800020E08600202C5E002094
:102A7000FCA90008D0AA0008547F00206CAA000816
:102A800030860020CC82002030EE600AD0ED040AAF
:102A900070EE600A9FED201A60EE810A90ED061A32
:102AA000DFED1E1A41EE210A80ED040A90ED071AAF
:102AB000D0ED031A40EE011AC0ED031A90ED051A8D
:102AC000D0ED031AB4EE611AF1EE10FA02D54169A5
:102AD000C16010E090ED031AD0ED051AF1EE611A15
:102AE000B4EE611AF1EE10FA05D590ED051AB1EECB
:102AF000411A80ED031AC0ED060A90ED001A20EE8F
:102B0000010A90ED011A00EE810AD0ED030A90ED62
:102B1000021A00EE810A7047A69BC43EA4701D3FB6
:102B2000C1F30A5340F2FE329B1A14DDD3F12003A5
:102B30004FEAE17208DDC90241EA505141F000401C
:102B4000D84080185040704703F2E13010B1D243B2
:102B500082F0004070470020704700004FF4001CD6
:102B60001CEB410F94BF1CEB430F09E041EA030C3F
:102B700050EA4C0C52EA0C0C03D2994208BF904226
:102B8000704714BF8B4282427047000051EC100B1B
:102B900000B500F003F841EC100B00BD40F2FF7CE3
:102BA0000B0D4DD0634566D230B421EA035141F498
:102BB000801103F2FD3C5FEA5C0C01D3001849412F
:102BC000890041EA907180004FF440140023E20232
:102BD000D50AB1F5100107D46D081DD2091B64197F
:102BE00000184941491BF7D56D080AD20919641B21
:102BF00000184941491BEFD56D08F7D301E0520891
:102C000017D0C01861419B1AAC4100184941801A85
:102C1000A941F4D452080AD0C01AA1419B186C41B2
:102C200000184941801AA941E9D45208F4D15B1C2B
:102C30006C4161084FEA330001EB0C5130BC704726
:102C400050EA0103FBD030B4B1FA81F311B9B0FA04
:102C500080F41B190B3BB3F120042FBF00FA04F1E1
:102C60009940C3F1200420FA04F438BF214398406E
:102C7000D3F101039DE7634514BF50EA410CDEE741
:102C800011F5801FDBD8D943AFF3008070470000F7
:102C90004FF4001C1CEB410F94BF1CEB430F09E0E9
:102CA00041EA030C50EA4C0C52EA0C0C03D28B4262
:102CB00008BF8242704714BF99429042704700009B
:102CC00070B44FF0004591EA030F7FF5B7AB6B404E
:102CD000841A71EB030603D2001BB1411219734130
:102CE0004FF4001C1CEB410F34BF7CEB430442E06B
:102CF0000C0DA4EB1356352E4FDC45EAC323DB0A3B
:102D000045EAC121C912B6F120050DDD63FA05F6C9
:102D1000EB4086EA0305124218BF45F00105C018D2
:102D200051F100010CD213E062FA06F5F240554071
:102D3000F3415A40B340F3405A408018594107D3F9
:102D400049085FEA30005FEA350528BF45F0010514
:102D500001F58011420875F1004250F1000041EB8D
:102D600004514E0016F5001F70BC38BF704700209C
:102D7000090D090570471CEB410F10D252EA4306BA
:102D80000BD0BCEB410F05D80C0DAB43661E342EA7
:102D9000B6DD02E0AB438018594170BC704770BC8F
:102DA00070470000443A5C726F626F636F6E5C3113
:102DB000395F6672616D652E636861737369735CF8
:102DC00073696D706C656C69625C5372635C686199
:102DD00073682E63000000002DE9B04C41EC100B2D
:102DE0002DED028B43EC182B53EC102B23F00041FC
:102DF000B1F5801F82B00DD20022914208BF9042EF
:102E0000009216D06A4651EC100B02F0D7FC41EC50
:102E1000100B0EE0DFF8A844DFF8A87404EB1150A3
:102E200000903B40DFF8A004924643EA000B4BECD5
:102E300010AB53EC102B51EC180BFEF7DFFF41ECFD
:102E4000100B4800009A400D1218C8B1002A17DD77
:102E500040F2FF70824209DB9FEDAD1B53EC112B5A
:102E600001F000410B4343EC102B19E06FF31E51AE
:102E700041EA025155EC104B0D4645EC104B0FE06A
:102E800051EC100B21F000410022914208BF90420A
:102E900006D0009A51EC100B02F0C8FC41EC100B6C
:102EA00064E000002DE9B04C41EC100B2DED028BDD
:102EB00043EC182B53EC102B23F00041B1F5801F8D
:102EC00082B00DD20022914208BF9042009216D0EB
:102ED0006A4651EC100B02F071FC41EC100B0EE055
:102EE000DFF8DC43DFF8DC7304EB115000903B406B
:102EF000DFF8D403924643EA000B4BEC10AB51ECE5
:102F0000100B53EC182BFFF79BF841EC100B48000B
:102F1000009A400D1218C8B1002A17DD40F2FF7068
:102F2000824209DB9FED7A1B53EC112B01F000412B
:102F30000B4343EC102B19E06FF31E5141EA025191
:102F400055EC104B0D4645EC104B0FE051EC100BBF
:102F500021F000410022914208BF904206D0009A21
:102F600051EC100B02F062FC41EC100B02B051EC82
:102F7000100BBDEC028BBDE8B08C00002DE9F044D5
:102F80002DED028B002A41EC180B1D4600F0B98094
:102F900021F000474FF0000A20F00006574508BF17
:102FA000564500F0AE8048004015401C02D1090390
:102FB00000F0A780002A9FED580B16D552420FF261
:102FC000503708261446002C18BF002E54D0E007B6
:102FD00007D5D7E9002351EC100BFEF70FFF41ECAA
:102FE000100B64080837761EEDE773DD0FF220370B
:102FF00008261446E00707D5D7E9002351EC100B4B
:10300000FEF7FCFE41EC100B64100837761E002C16
:1030100001DD002EEED153EC102B51EC180BFFF715
:10302000DBFE21F0004320F00002534508BF52456B
:1030300041EC180B4ED048004015401C01D109034B
:1030400048D0002C46DDA14AA14B51EC180BFFF7EC
:10305000C3FE20F0000231F0004308BF524541ECAE
:10306000180B37D048004015401C01D1090331D05E
:10307000641E002CE7DC2DE053EC102B51EC180BF8
:10308000FFF710FF21F0004320F00002534508BF76
:10309000524541EC180B1DD048004015401C01D191
:1030A000090317D0B4B18B4A934B51EC180BFFF7BF
:1030B00093FE20F0000231F0004308BF524541EC7E
:1030C000180B07D048004015401C01D1090301D05E
:1030D000641EE8D151EC180B21F0004320F00002EF
:1030E000534508BF524505D048004015401C08D143
:1030F000090306D1AFF300801DB1286840F001003C
:10310000286051EC180BBDEC028BBDE8F084000088
:10311000000000000000F07F000000000000F03F11
:103120002DE9F14D81B05FEA03082DED028B84B0EB
:103130001CBF0020C8F80000079D0C46934607A856
:1031400002F011FCC11020F00800012801F0010A72
:1031500030D10220009001AB07992246284602F0A8
:1031600093FC040008BF9FED650B1ED00298FFF78B
:103170001BFA022C41EC100B17DB03AF661E9FED10
:10318000568B51EC100B53EC182BFEF737FE044610
:1031900057F8040B0D46FFF707FA22462B46FFF7B8
:1031A00045F9761E41EC100BEBD10198434600EB3C
:1031B0000B0262E0022867D1009001AB079922461A
:1031C000284602F043FD040008BF9FED4C0B1ED0C3
:1031D0000298FFF7E9F9022C41EC100B17DB03AF63
:1031E000661E9FED3F8B51EC100B53EC182BFEF736
:1031F00005FE044657F8040B0D46FFF7D5F92246A5
:103200002B46FFF713F9761E41EC100BEBD151EC76
:10321000100B019C4800400D04EB000219D0002A5D
:1032200017DD40F2FF70824209DB9FED2F1B53EC4C
:10323000112B01F000410B4343EC102B1BE06FF30B
:103240001E5141EA025155EC104B0D4645EC104B16
:1032500011E051EC100B20F0000221F0004300209F
:10326000834208BF824206D0224651EC100B02F086
:10327000DDFA41EC100B43465A4651EC100BFFF7B8
:103280007DFE41EC100B0AE0032808BF9FED160BF2
:1032900005D004280CBF9FED160B9FED180BBAF15B
:1032A000000F05D051EC100B81F0004141EC100BE8
:1032B00004B051EC100BBDEC028BBDE8FC8D00009E
:1032C00002FCFFFFFFFF0F800000E03F3CBF737F69
:1032D000DD4F1575436FAC640000000065CDCD4136
:1032E000000000000000B041000000000000F07F7E
:1032F000FFFFFFFFFFFFFF7F2806C80A0000000056
:103300000000000000230022002109E70000000067
:1033100000000000000024400000000000005940B0
:10332000000000000088C3400000000084D79741DF
:103330000080E03779C34143176E05B5B5B89346B1
:10334000F5F93FE9034F384D321D30F94877825A7D
:103350003CBF737FDD4F157510B52DED048B41EC2F
:10336000180B43EC192B51EC190B48004015401C6D
:103370003CD051EC180B48004015401C36D0C80F0B
:1033800008D021F0004053EC182B034643EC182BD7
:10339000082400E0002451EC190BC80F08D021F0DC
:1033A000004053EC192B034643EC192B84F0060420
:1033B00051EC190B53EC182BFFF7D0FB04D2FEF79E
:1033C0003FFE41EC100B50E021F000410022914201
:1033D00004BF90429FED2C0B49D051EC180B53ECDD
:1033E000192BFEF72DFE41EC100B40E051EC180BB1
:1033F00048004015401C04D1090318BF51EC180BBC
:103400003ED151EC190B48004015401C04D1090372
:1034100018BF51EC190B33D151EC190B4800401572
:10342000401C0CD109030AD151EC180B480040157F
:10343000401C04D1090308BF9FED150B01D09FED7F
:10344000120B51EC180BC80F14BF0824002451ECC8
:10345000190BC80F18BF84F0060451EC180B480074
:103460004015401C03D1090301D184F00204BDECD6
:10347000048B2246BDE8104051EC100B02F0F0BC6A
:10348000BDEC048B10BD00BF000000000000000078
:10349000000000000000F03FF8B52DED068B41EC78
:1034A000180B154653EC182BDFF8A003DFF8A01318
:1034B000FEF7A4FC41EC190B21F00041DFF8942346
:1034C000DFF89433FFF74AFB6AD253EC192B9FEDD8
:1034D000B90B03F0004251EC100B0C46144353ECB3
:1034E000102B51EC190B2346FEF7A0FFFFF718FB3A
:1034F000040051D0FFF758F80022D84BFEF77EFCAD
:1035000041EC190B53EC192B4FF0A040D449FEF7B6
:1035100075FC02460B4651EC180BFFF7D1FB064633
:103520000F4653EC192B4FF0C040CE49FEF766FC16
:1035300002460B4630463946FFF7C2FB06460F46A9
:1035400053EC192B4FF00050C749FEF757FC0246C9
:103550000B4630463946FFF7B3FB06460F4653ECA1
:10356000192B0020C149FEF749FC02460B463046A4
:103570003946FFF7A5FB06460F4653EC192B4FF0D3
:103580000050BB49FEF73AFC02460B46304639462E
:10359000FFF796FB41EC180B04F003046519BAE041
:1035A00051EC180B48004015401C51EC180B0DD184
:1035B00048004015401C02D1090340F04181BDEC98
:1035C000068B4FF0FF306FF00041F4BD21F0004159
:1035D0000022914208BF904205D1002D00F03081B9
:1035E0009FEDBC8B2CE153EC192B9FED720B03F07C
:1035F000004251EC100B0C46144353EC102B51ECD1
:10360000190B23460026FEF711FF4B0043EAD07347
:103610004200B34208BFB24241EC190B19D040F24C
:103620003344A4EB5352352A04DB00F0000001F0D0
:1036300000410CE0202A03DD203AD140914000E017
:1036400001D1002003E0012AA4BFD040904041EC0A
:10365000190B51EC190B20F0000231F0004308BFA8
:10366000B24251D053EC192B00207C49FEF7C6FB27
:1036700041EC1A0B53EC1A2B4FF0A0407849FEF79F
:10368000BDFB02460B4651EC180BFFF719FB044635
:103690000E4653EC1A2B4FF0C0407249FEF7AEFBBA
:1036A00002460B4620463146FFF70AFB06460F4608
:1036B00053EC1A2B4FF000506B49FEF79FFB02466C
:1036C0000B4630463946FFF7FBFA06460F4653ECE9
:1036D0001A2B00206549FEF791FB02460B46304647
:1036E0003946FFF7EDFA06460F4653EC1A2B4FF01A
:1036F00000505F49FEF782FB02460B4630463946D2
:10370000FFF7DEFA41EC180B51EC190BFFF708FA42
:1037100000F00300451951EC180B21F00041002284
:103720004FF07953FFF71AFA05F0010405D2002C87
:1037300000F07E809FED678B7AE053EC182B51EC04
:10374000180BFEF75BFB002C41EC190B36D053EC49
:10375000192B48484849FEF751FB484A484BFEF7A9
:1037600065FE53EC192BFEF749FB464A464BFEF724
:103770005DFE53EC192BFEF741FB444A444BFEF728
:1037800055FE53EC192BFEF739FB424A424BFEF72C
:103790004DFE53EC192BFEF731FB6FF051023F4BFE
:1037A000FEF744FE53EC192BFEF728FB00223C4B9E
:1037B0003AE000BF000000000000E03F53EC182B8F
:1037C000FEF71CFB06460F4653EC192B35483649CD
:1037D000FEF714FB354A364BFEF728FE53EC192B47
:1037E000FEF70CFB334A344BFEF720FE53EC192B4B
:1037F000FEF704FB314A324BFEF718FE53EC192B4F
:10380000FEF7FCFA2F4A304BFEF710FE53EC192B53
:10381000FEF7F4FA2D4A2E4BFEF708FE32463B46E1
:10382000FEF7ECFA53EC182BFEF700FE41EC180BF8
:10383000A80705D551EC180B81F0004141EC180B9D
:1038400051EC180BBDEC068BF4BD000083C8C96DAC
:10385000305FE43F0000A0FFFFFFDF410000303E8B
:10386000FB21B941B410114026A6513E5C14D33C53
:103870009A833B3B09260A1039BA213E3BA861C610
:10388000F97D92BE63AC30909F01FA3EF6FB511673
:103890006CC156BFB10255555555A53FFFFFDFBF5F
:1038A0000000F03FB08F2FC310D8E53D8F0C73A1FF
:1038B000E1E55ABE4DADE44FE31DC73E3EE3B51909
:1038C000A0012ABFFAF010111111813F4255555540
:1038D0005555C5BF000000000000F03F0122DBE5A8
:1038E0000022D9E510B501004B4C2000282200F041
:1038F00011F9200000F04EF8484C2068002807D14C
:1039000000220FF239110FF2391000F0C9FD2060CA
:1039100002F0AAFB10BD38B504000D00042001F030
:103920008FFD04602A0001003C48006800F0DFFDC4
:1039300031BD80B53A493948006800F025FE0100E4
:103940000800002801D03748884701BD38B5364CFB
:10395000364D2B002200002102F095FD20683049F1
:103960000860304895ED000B80ED000B01203049D8
:10397000086031BD80B50A002E4980B208602E4B28
:10398000254802F0FBFC002801D0012000E00020C7
:1039900002BD704710B58AB00400002005900020D9
:1039A0000690012007900020009000200190002048
:1039B00002900020039000200490012008900E2027
:1039C00009906946200002F017FC002801D003F09E
:1039D00055F8200002F0A2FC002801D003F04EF8B8
:1039E0000221200002F0F9FD002801D003F046F882
:1039F0000421200002F0F1FD002801D003F03EF880
:103A00000C480021C1600021816008210161002172
:103A100001750AB010BD0000AC850020B4860020FE
:103A2000B086002088860020FC850020808600204B
:103A3000A886002018860020AC8600200068704709
:103A400000680968884201D1002000E00120704729
:103A50001AA210EE101A43F2A40CC3F6896CF2EC11
:103A6000060A614509DB00EE803A70EE800A83EEBB
:103A7000200A40F0020010EE101A4900D1F1E64190
:103A80000BD860EE000A20EE203A03EE010A01EEA8
:103A9000A02A42EE202A80EE220A400810F0020FEF
:103AA00018BFB1EE400A02EB8002D2ED000A30EE00
:103AB000200A28BFB1EE400A70470000D7B3DD3FAF
:103AC0006AD5033F2B94A93DB82A593F0000803F97
:103AD000000080BF00000000920A063FDB0FC93FD4
:103AE000920A863FDB0FC93F920A0640DB0F49402E
:103AF000368D274062B38B0708D0521E11F8013B68
:103B000000F8013B00F024808B07F6D1830740F0DA
:103B1000208000BF103A07D330B4B1E83810103A13
:103B2000A0E83810F9D230BC530724BFB1E8081020
:103B3000A0E8081044BF51F8043B40F8043BD2070A
:103B400024BF31F8022B20F8022B44BF0B780370FE
:103B50007047121F17D35B0009D151F8043B20F8BE
:103B6000023B1B0C121F20F8023BF6D20BE051F86F
:103B7000043B00F8013B1B0A20F8023B1B0C121F00
:103B800000F8013BF3D238BF121D521E24BF11F8BA
:103B9000013B00F8013BF8D87047000010B5040065
:103BA000002C01D1012033E0A0690028FFD194F856
:103BB0003900002805D1002084F83800200002F0E8
:103BC000EBFF242084F839002068C06830F40050EE
:103BD0002168C860200000F0C2FA2068006930F453
:103BE0009040216808612068406930F02A0021680F
:103BF00048612068C06850F400502168C860002007
:103C0000E063202084F83900202084F83A00002066
:103C100010BD13B50400130094F83900202840D1DA
:103C20000198002803D0180080B2002801D101209B
:103C300038E094F83800012801D1022032E0012058
:103C400084F8380001982062A384E3840020E063B4
:103C5000212084F839000FF2A920216BC8630FF2EC
:103C6000D520216B08640FF22930216BC864002035
:103C7000216B086501A89BB221680A1D0168206BB1
:103C800003F0DCF97FF0400021680860002084F830
:103C900038002068406950F08000216848610020A9
:103CA00000E0022016BD13B50400130094F83A009A
:103CB000202850D10198002803D0180080B2002895
:103CC00001D1012048E094F83800012801D10220F8
:103CD00042E0012084F838000198A062A38500200A
:103CE000E063222084F83A000FF25520616BC8632C
:103CF0000FF29120616B08640FF29520616BC8642C
:103D00000020616B086501A89BB202682068011D54
:103D1000606B03F093F90020009020680068009029
:103D20002068406800900098002084F838002068DF
:103D3000C06850F480702168C8602068406950F005
:103D40000100216848612068406950F04000216806
:103D50004861002000E0022016BD10B504000020DC
:103D600020684069C00910F0010094F83910212939
:103D700010D100280ED02068406930F08000216802
:103D80004861206B002802D0206B03F097F92000D7
:103D900000F029F920684069800910F0010094F8CA
:103DA0003A10222910D100280ED02068406930F046
:103DB000400021684861606B002802D0606B03F00E
:103DC0007DF9200000F019F9002010BD38B504007D
:103DD000206801682068C2682068436900200020CC
:103DE00011F00F00002807D18D0605D5950603D5E3
:103DF000200000F060F982E0002870D0D80702D4DB
:103E000012F4907F6BD011F00100C0B2002805D0F1
:103E1000D00503D5E06B50F00100E063480708D5FA
:103E200013F00100C0B2002803D0E06B50F0020094
:103E3000E063880708D513F00100C0B2002803D062
:103E4000E06B50F00400E063080708D513F00103AD
:103E5000DBB2002B03D0E06B50F00800E063E06BB6
:103E600000283BD0880604D5900602D5200000F03B
:103E700022F920684069800910F00100E16B090710
:103E800001D4002825D0200000F0B7F82068406950
:103E900040061AD52068406930F04000216848612A
:103EA000606B00280DD00FF27510616B0865606BB8
:103EB00003F052F9002811D0606B616B096D8847DF
:103EC0000CE0200003F01EF808E0200003F01AF8D0
:103ED00004E0200003F016F80020E0630FE008067D
:103EE00005D5100603D5200000F0A2F807E048062B
:103EF00005D5500603D5200000F0CFF8FFE731BD0F
:103F000080B5816B00680068C0050ED40020C884AD
:103F10000868406930F080000A6850610868C0682D
:103F200050F040000968C86002E0080003F0A6FAFB
:103F300001BD000080B5806B03F0A1FA01BD000057
:103F400080B50100886B09680968C90516D400218D
:103F5000C1850168C96831F480710268D160016867
:103F6000496949084900026851610168496931F0AD
:103F7000400102685161202180F83A1003F080FA74
:103F800001BD000080B5806B03F07BFA01BD00002D
:103F900010B50021846B20684069C00910F0010051
:103FA00094F83910212906D1002804D00020E0849B
:103FB000200000F018F820684069800910F0010026
:103FC00094F83A10222906D1002804D00020E08578
:103FD000200000F012F8E06B50F01000E0632000C9
:103FE00002F090FF10BD0168C96831F0C00102689D
:103FF000D160202180F8391070470168C96831F418
:1040000090710268D16001684969490849000268F5
:104010005161202180F83A107047000080B5806B14
:104020000021C1850021C18402F06CFF01BD0000A8
:1040300090F8391021292ED18168B1F5805F10D117
:10404000016A0988C905C90D026851600169002922
:1040500003D1016A891C016209E0016A491C0162FD
:1040600005E0016A4A1C0262097802685160C18C4D
:10407000491EC18489B200290BD10168C96831F099
:1040800080010268D1600168C96851F04001006890
:10409000C160002000E00220704780B50168C96857
:1040A00031F040010268D160202180F8391003F01E
:1040B000E5F9002002BD80B590F83A1022294CD1D4
:1040C0008168B1F5805F15D1826A0169002908D144
:1040D00001684968C905C90D1180816A891C81621E
:1040E0001AE00168496801F0FF011180816A491CEA
:1040F000816211E00169002906D1816A4A1C82624D
:10410000026852680A7007E0816A4A1C826202688B
:10411000526812F07F020A70C18D491EC18589B2B2
:10412000002918D10168C96831F020010268D16006
:104130000168C96831F480710268D1600168496919
:104140004908490002685161202180F83A1003F0C3
:1041500097F9002002E0002000E0022002BD2DE9D6
:10416000F04104002068016931F44051E0680143E6
:1041700020680161A1682069014360690143E06929
:1041800001432068C268B648024011432068C160FC
:104190002068416931F44071A069014320684161A0
:1041A000E069B0F5004F40F0AE802068AD4988422C
:1041B00003D02068AC49884252D103F00DFA804602
:1041C00003F00AFA050003F007FA060003F004FA08
:1041D000070003F001FA6421192202FB08F8636862
:1041E0005B00B8FBF3F35FF0640CB3FBFCF35543E7
:1041F000D4F804C05FEA4C0CB5FBFCF55643D4F888
:1042000004C05FEA4C0CB6FBFCF65FF0640CB6FB36
:10421000FCF601FB1655ED0032356426B5FBF6F5CC
:104220006D0015F4F87515EB0315574363685B00D3
:10423000B7FBF3F302FB00F260684000B2FBF0F062
:104240006422B0FBF2F001FB1031C800323064216F
:10425000B0FBF1F010F00700451920688560FDE023
:1042600003F0AFF9804603F0ACF9050003F0A9F9BB
:10427000060003F0A6F9070003F0A3F96421192250
:1042800002FB08F863685B00B8FBF3F35FF0640CB3
:10429000B3FBFCF35543D4F804C05FEA4C0CB5FB08
:1042A000FCF55643D4F804C05FEA4C0CB6FBFCF6B0
:1042B0005FF0640CB6FBFCF601FB1655ED003235E1
:1042C0006426B5FBF6F56D0015F4F87515EB0315CE
:1042D000574363685B00B7FBF3F302FB00F26068CF
:1042E0004000B2FBF0F06422B0FBF2F001FB1031B1
:1042F000C80032306421B0FBF1F010F0070045191E
:1043000020688560AAE020685649884203D020686A
:104310005549884251D103F05FF9804603F05CF9BA
:10432000050003F059F9060003F056F9070003F001
:1043300053F96421192202FB08F863689B00B8FB5B
:10434000F3F35FF0640CB3FBFCF35543D4F804C003
:104350005FEA8C0CB5FBFCF55643D4F804C05FEA69
:104360008C0CB6FBFCF65FF0640CB6FBFCF601FBB4
:1043700016552D0132356426B5FBF6F515F0F0051E
:1043800015EB0315574363689B00B7FBF3F302FB80
:1043900000F260688000B2FBF0F06422B0FBF2F043
:1043A00001FB1031080132306421B0FBF1F010F054
:1043B0000F0045192068856050E003F002F980463F
:1043C00003F0FFF8050003F0FCF8060003F0F9F82D
:1043D000070003F0F6F86421192202FB08F863686D
:1043E0009B00B8FBF3F35FF0640CB3FBFCF35543A5
:1043F000D4F804C05FEA8C0CB5FBFCF55643D4F846
:1044000004C05FEA8C0CB6FBFCF65FF0640CB6FBF4
:10441000FCF601FB16552D0132356426B5FBF6F589
:1044200015F0F00515EB0315574363689B00B7FBC8
:10443000F3F302FB00F260688000B2FBF0F064224C
:10444000B0FBF2F001FB1031080132306421B0FB07
:10445000F1F010F00F00451920688560BDE8F0818B
:10446000F369FFFF0010014000140140884201D0B1
:10447000012000E00020C0B27047800870477047FC
:10448000020041F2055005E04101137851FA83F131
:104490000818521C11780029F6D120F0004070470E
:1044A00070B504000D001600FC2000F0C9FF2100CB
:1044B000002900D16A4CC4602900002900D1694D4F
:1044C00005613100002900D1674E466110F11801E5
:1044D0000160002104E00022036843F82120491C08
:1044E0001329F8DB002141600021816070BD2DE9B6
:1044F000F84305000E0017005FF00008002D06D1FC
:1045000053225A495A4803F0BFF8AFF30080002EF7
:1045100006D15422554951A003F0B6F8AFF30080FC
:104520003000296988471321B0FBF1F901FB190913
:10453000286850F8294000E0A468002C05D02168C4
:104540003000EA6890470028F6D1002C13D10C20E7
:1045500000F076FF0400002C01D1002012E026605C
:10456000286850F82900A060286840F82940686849
:10457000401C686001E0D4F804806760A868401CB3
:10458000A8604046BDE8F28370B505000E00002D1E
:1045900006D176223549364803F076F8AFF300802D
:1045A000002E06D1772231492CA003F06DF8AFF32D
:1045B00000803000296988471322B0FBF2F102FB2A
:1045C0001101286850F8214000E0A468002C05D0B3
:1045D00021683000EA6890470028F6D1002C01D00D
:1045E000606800E0002070BD2DE9F84305000E0072
:1045F0001700002D06D1A3221C491D4803F044F8E2
:10460000AFF300803000002806D1A42217491948D2
:1046100003F03AF8AFF30080D5F808805FF00009A6
:1046200012E03A00211D2068B047A868804506D0F6
:10463000AA220E49104803F027F8AFF30080A468BF
:10464000002CEED119F10109B9F1130F03DA286832
:1046500050F82940F4E7BDE8F18300006B6579006C
:104660006D4400087B4400087F440008A42D000826
:10467000A8AA000810AB0008C8A8000862F30F221F
:1046800062F31F42401810F0030308D0C91A1FD369
:10469000DB0748BF00F8012D28BF20F8022D1300CA
:1046A00030B414461546103928BF20E93C00FAD82A
:1046B000490728BF20E90C0048BF40F8042D8900B5
:1046C00028BF20F8022D48BF00F8012D30BC7047EC
:1046D000C91818BF00F8012DCB0728BF00F8012D1D
:1046E000704700005FEA000C80EA01039B0715D1C8
:1046F000830706D011F8013B00F8013BB3B18307F3
:10470000F8D10A68B2F1013323EA020313F0803FC3
:1047100002BF40F8042B51F8042FF3E711F8013BD6
:1047200000F8013B13B111F8013BF9E7604670470F
:1047300038B504000D460BD02946204602F0B6FFDE
:104740000444207848B90C4800210160002032BDA3
:1047500009490C68002CEFD132BD2946204602F0F1
:10476000B6FF2118087810B1002201F8012B024889
:104770000160204632BD00BFF886002000F5E070E1
:104780000268914203D343681A44914202D380687D
:104790000028F5D17047DFF80817086890B94FF482
:1047A000805048604FF480324FF0FF30C86008619D
:1047B0000420DFF8F0368A604861C3F8BC01DFF8F6
:1047C000E80608600120704701F1080313F0070FA5
:1047D0000EBF0023C3F1080303F007031944D21AE4
:1047E0008161C26042F001034B60091D4FF0280C4B
:1047F00041F802C0DFF8A8261369C36170472DE9AC
:10480000FC4B074601F1080010F0070F0FBF894667
:10481000C0F1080000F0070001EB000902F10801F7
:1048200011F0070F06D002F10800C0F1080000F0F7
:10483000070002441546A5EB090009EB0306A0EBAF
:10484000030B43F00303C9F80430AE4228BF02F063
:104850004FFF2879C10758BF02F04AFFBBF1100F84
:1048600038BF02F045FFB869854208D1F9688B442A
:10487000C7F80CB0BE614BF00100706051E178697F
:1048800085420AD1B9688B44C7F808B07E614BF005
:104890000100706046F80BB043E1686800F0030166
:1048A000012940F0AC80C008C0000190C0081F285A
:1048B00039D8AC68D5F80C800090454508BF02F0A7
:1048C00017FFA54208BF02F013FF68680099C008EF
:1048D000C000B0EBC10F18BF02F00AFF009907F14A
:1048E000280000EBC100844206D039698C42C0F038
:1048F0008180E268AA427DD1A04506D1009839683E
:10490000012383409943396076E0804506D03969B8
:1049100088456FD3D8F80800A8426BD1C4F80C8042
:10492000C8F8084068E0EC68D5F81880AC420CD0B4
:10493000A8683969884223D3C268AA4204BFA16823
:10494000A9421DD1C460A0601CE005F114010C68EF
:1049500034B905F110010C68A4B101E011460C68EE
:1049600004F114021068002802BF04F1100210685C
:104970000028F3D13869814202D300220A6001E0A5
:1049800002F0B6FEB8F1000F36D0E96907F598706D
:1049900000EB81000268954208D10460A4B9E8697F
:1049A0007968012282409143796025E03869804529
:1049B00008D3D8F81010A94214BFC8F81440C8F89A
:1049C000104001E002F094FEB4B139698C4211D379
:1049D000C4F81880286928B1884226BF2061846104
:1049E00002F086FE686938B13969884202D3606195
:1049F000846101E002F07CFE01996D188B446968C6
:104A00004908490069604BF0010070604FEADB041F
:104A100046F80BB01F2C23D807F1280000EBC40880
:104A20004546BBF1100F38BF02F062FE386820FA2D
:104A300004F1CA0705D4012101FA04F404433C60DF
:104A400007E0D8F80800396988422CBF054602F013
:104A50004FFEC8F80860EE60B560C6F80C8060E0F4
:104A60005FEA1B2008BF002123D0B0F5803F28BF9C
:104A70001F211ED2A0F58072120C02F00802904095
:104A8000A0F58051090C01F004018840A0F5804395
:104A90001B0CC2F10E0203F00203521AD21A984004
:104AA00002EBD032D01D2BFA00F101F0010101EB35
:104AB0004201F161002307F59872736102EB8100F6
:104AC00033617A6822FA01F3DC0707D4012303FA81
:104AD00001F1114379600660B0611DE002681F2991
:104AE0001DBF4908C1F119010BFA01F1594600E057
:104AF00002465068C008C000584516D002F11003A5
:104B0000C80F03EB8003490018680028F0D138690A
:104B1000834204D31E60B261F660B66001E002F029
:104B2000E7FD09F10800BDE8F68B396990688A4213
:104B300028BF8842F3D3C6609660B060F260002060
:104B4000B061EEE72DE9FE4F04468B46A5692E467F
:104B5000904699463146FFF711FE0268416802EB24
:104B6000010AAAF1270111F007000EBF0021C1F1CF
:104B7000080101F007010AEB0100A0F12F0706F17F
:104B800010018F4238BF374607F118020021019209
:104B90000091A8F1280259462046FFF715FE07F1BB
:104BA000080010F0070F18BF02F0A2FD1B2078606C
:104BB00007F1080104F5E07090E80C5081E80C5012
:104BC000C0F800B0C0F80480C0F80C9081600722E3
:104BD0000198009900E0001D491C00F108035345AD
:104BE0004260F8D30129D8BF02F082FDB74200F03D
:104BF0009580BF1B301D321DC15949084900D15154
:104C000047F0010070604FEAD70BF751BBF11F0F5F
:104C100021D804EBCB0000F12805A846102F38BF9F
:104C200002F066FD206820FA0BF1CA0705D40121C5
:104C300001FA0BF10843206006E0A8682169884268
:104C40002CBF804602F054FDAE60C8F80C60C6F878
:104C50000880F5606FE0380A08BF002123D0B0F566
:104C6000803F28BF1F211ED2A0F58072120C02F0D7
:104C700008029040A0F58051090C01F00401884021
:104C8000A0F580431B0CC2F10E0203F00203521A7E
:104C9000D21A984002EBD032D01D27FA00F101F071
:104CA000010101EB420104EB8102002302F598703F
:104CB000F16173613361626822FA01F3DB0707D4A3
:104CC000012303FA01F1114361600660B0611DE048
:104CD00002681F291DBF4908C1F1190107FA01F136
:104CE000394600E002465068C008C000B84216D0FD
:104CF00002F11003C80F03EB800349001868002875
:104D0000F0D12069834204D31E60B261F660B560C1
:104D100011E003B0BDE8F04F02F0EABC0BE02169FE
:104D200090688A4228BF8842F3D3C6609560B0601D
:104D3000F2600020B06103B0BDE8F08F2DE9F041D2
:104D4000574F05463868884608B9FFF724FDB9680B
:104D500001EB08002F30491E20EA010188457DD271
:104D600005F5D876B06828B1326889188A4275D2BC
:104D7000884273D302F0C0FC01001CBF0C6811F123
:104D8000010F6BD03068201805F5D8723060536879
:104D9000984238BF18467060A86960BB286908B19E
:104DA000814200D22961316174610020F0614FF0CD
:104DB000FF303A686A62286205F128020020D2605A
:104DC000926002F1080757611761801C1032202899
:104DD000F5D33448854208BFA4F1280228D055F8FD
:104DE000040CC00805EBC002A2F108000A19121A4F
:104DF000283A01461CE005F5E070024600E09268A2
:104E00007AB3136857681F44B942F8D1137B1F0760
:104E100027D4AB691768BB4223D3D2F804C06744D8
:104E2000BB421ED2A444C2F804C0E868A969221893
:104E30002846FFF7C9FC1FE08068C0B103689342B1
:104E4000FAD1027B130712D4026801604368E418A8
:104E5000446043462846BDE8F041D0E40020BDE868
:104E6000F0812A69914238BF29610A19E5E70023D8
:104E700022462846FFF766FEE8688045EED2A0EBA2
:104E80000800A969E86001EB0802AA6140F001008E
:104E9000506048F00300486001F10800BDE8F0816F
:104EA000488600207C7D00206859883C2DE9F84F19
:104EB00000258946090AC9F1000B08BF002323D049
:104EC000B1F5803F28BF1F231ED2A1F58072120CBE
:104ED00002F008029140A1F580531B0C03F004037B
:104EE0009940A1F58044240CC2F10E0204F00204A2
:104EF000D21A121BA14002EBD132D11D29FA01F3C3
:104F000003F0010303EB4203074607F5987858F8CE
:104F1000230030B31F2B0FBF4C465C08C4F11904AB
:104F200009FA04F4AC46594600E064004268D2082D
:104F3000D200A2EB09028A4203D21100054600F01A
:104F40006981426910304FEAD47B50F82B00002A67
:104F50001CBF824294460028E7D18B466046B0BB16
:104F6000BDBB012202FA03F35B0058427968034398
:104F70000B4000F04E81584203405B1E180B00F0BE
:104F80001000C340590901F00801CB409A0802F013
:104F90000402D3405C0804F002040818E34010182F
:104FA000C3F3400620183044F3401B1858F8230080
:104FB0000DE008464168C908C900A1EB090159453F
:104FC0003CBF8B46054601690029F2D140690028A3
:104FD000F0D1002D00F01D81B868A0EB09008345D9
:104FE00080F0178139698D42C0F011816868C0086E
:104FF000C00009EB0B01884218BF02F079FB05EBFA
:105000000906B54280F00381EC68D5F818A0AC42DF
:105010000CD0A8683969884223D3C268AA4204BF69
:10502000A168A9421DD1C460A0601CE005F1140173
:105030000C6834B905F110010C68A4B101E0114607
:105040000C6804F114021068002802BF04F1100279
:1050500010680028F3D13869814202D300220A6027
:1050600001E002F045FBBAF1000F36D0E86908EB29
:10507000800001688D4209D10460200014D1E869E4
:105080007968012282409143796026E0386982453F
:1050900008D3DAF81010A94214BFCAF81440CAF8AD
:1050A000104001E002F024FBBCB13869844212D305
:1050B000C4F818A0286930B13969884226BF206138
:1050C000846102F015FB686938B13969884202D3FE
:1050D0006061846101E002F00BFBBBF1100F0CD2A8
:1050E000D94449F00300291D6860281D51F80920A2
:1050F00042F0010240F8092088E049F003006860AE
:105100004BF0010070604FEADB0046F80BB01F283F
:105110001DD807EBC00101F12804396821FA00F21B
:10512000D307A34605D4012202FA00F008433860F1
:1051300006E0A068396988422CBF834602F0D8FA9D
:10514000A660CBF80C60C6F808B0F4605EE05FEAD9
:105150001B2008BF002123D0B0F5803F28BF1F21AE
:105160001ED2A0F58072120C02F008029040A0F549
:105170008051090C01F004018840A0F580431B0C0C
:10518000C2F10E0203F00203521AD21A984002EB47
:10519000D032D01D2BFA00F101F0010101EB4201E8
:1051A000F16100227261326108EB81007A6822FAB3
:1051B00001F4E30707D4012404FA01F111437960F3
:1051C0000660B0611DE002681F291DBF4908C1F1DA
:1051D00019010BFA01F1594600E002465068C00877
:1051E000C000584518D002F11003C80F03EB80032C
:1051F000490018680028F0D13869834204D31E6042
:10520000B261F660B66001E002F072FA14E102F0F9
:105210006FFA0EE18B46A2E6396990688A4228BF90
:105220008842F1D3C6609660B060F2600020B06141
:10523000ECE72DE9F84F0646884671684842014080
:10524000491E080B00F01000C1404A0902F0080294
:10525000D1408B0803F00403D9404D0805F0020546
:105260001018E9401818C1F34004281806F5987A78
:105270002044E14009185AF821104868C008C000CD
:105280000D46A0EB080909E001464868C008C000C7
:10529000A0EB080048453CBF81460D460869002840
:1052A000F2D149690029F0D130698542C0F0BF8050
:1052B0006968C90808EB090BC900594518BF02F015
:1052C00017FA05EB08008542009080F0B080EF6887
:1052D000AC69AF420CD0A8683169884223D3C26858
:1052E000AA4204BFB968A9421DD1C760B8601CE0DA
:1052F00005F114010F6837B905F110010F68A7B166
:1053000001E011460F6807F114021068002802BF7F
:1053100007F1100210680028F3D13069814202D3EE
:1053200000220A6001E002F0E3F9002C31D0E869C4
:105330000AEB800001688D4208D107608FB9E869E7
:105340007168012282409143716022E03069844299
:1053500005D32169A94214BF6761276101E002F00A
:10536000C7F9B7B13069874211D3BC61286930B140
:105370003169884226BF3861876102F0B9F96869EE
:1053800038B13169884202D37861876101E002F067
:10539000AFF9B9F1100F0BD24BF00300291D686073
:1053A000281D51F80B2042F0010240F80B203DE08F
:1053B00048F003012A1D696049F0010042F8080025
:1053C000009941F80990D6F808804FEAD80BBBF154
:1053D000200F28BF02F08CF9B8F1000F22D006EBA5
:1053E000CB00776900F12804A246B8F1100F38BF4E
:1053F00002F07EF9306820FA0BF1CA0705D40121CA
:1054000001FA0BF10843306006E0A0683169884278
:105410002CBF824602F06CF9A760CAF80C70C7F87E
:1054200008A0FC60C6F808900098706104E002F0E3
:105430005FF90020BDE8F28F05F10800BDE8F28FAA
:105440002DE9FE4F0546AFF30080F52DDFF8A86289
:1054500080F004810B2D31BF10250B35ED08ED00D8
:105460003068EC08E04010F0030F46D0C04300F075
:105470000100041906F1280000EBC408E700D8F881
:1054800008506868C008C000B84218BF02F030F980
:10549000D5F80890454508BF02F02AF94D4508BFE8
:1054A00002F026F96868C008C000B84218BF02F0D0
:1054B0001FF9C84507D13068012101FA04F420EA38
:1054C000040434600DE03069814508D3D9F80C102C
:1054D000A94204D1C8F80890C9F80C8001E002F094
:1054E00007F947F00300291D6860281DCA5942F0DA
:1054F0000102C25105F10804F8E0B168A94280F048
:10550000BE80002800F0A1804FF0010808FA04F1E5
:10551000490000FA04F4484201430C406042044050
:10552000641E200B00F01000C440610901F0080166
:10553000CC40A20802F00402D440630803F0020346
:105540000818DC401018C4F3400718183818FC403D
:10555000241806F1280000EBC40AE700DAF80890E6
:10556000D9F80400C008C000B84218BF02F0C0F863
:10557000D9F808B0D14508BF02F0BAF8D94508BF3C
:1055800002F0B6F8D9F80400C008C000B84218BF4D
:1055900002F0AEF8DA4506D1306808FA04F420EAE1
:1055A000040434600DE031698B4508D3DBF80C004E
:1055B000484504D1CAF808B0CBF80CA001E002F0CD
:1055C00097F87F1B45F0030009F10402C9F80400B5
:1055D00047F00101515109EB05020192D751B4681E
:1055E0004FEAD40ABAF1200F28BF02F081F834B391
:1055F000CDF800A006F12800756900EBCA0AD34671
:10560000102C38BF02F074F83168009821FA00F2CB
:10561000D30704D408FA00F00843306007E0DAF852
:105620000800316988422CBF834602F061F8CAF84D
:105630000850CBF80C50C5F808B0C5F80CA0B760FE
:1056400009F108040198706150E07068C0B3294600
:105650003046FFF7EEFD040011D047E015F1400F92
:1056600028BF4FF0FF350AD20B35ED087068ED000A
:1056700028B129463046FFF719FC040036D1B0683E
:10568000A8421DD3411B726910290AD350197061B9
:10569000B16041F001034360415045F0030555609E
:1056A0000BE00021B1607161131D40F003015160F6
:1056B000111D1C5844F001040C5002F1080415E0BF
:1056C000F06885420DD2401BB169F0604A19B261A1
:1056D00040F00100506045F003054D6001F1080401
:1056E00004E029463046FFF729FB0446AFF300806B
:1056F0002046FFF720BB00007C7D002000F1010365
:10570000810704D010F8011B820781B1FAD1026829
:10571000A2F10131914311F0803104BF50F8042F00
:10572000F6E709BAB1FA81F100EBD100401CC01ACA
:105730007047000008B584B00023039300290EBF12
:1057400001930190491E0291009301A904AB0748FF
:105750007844183001F0E6FF019909B100220A707F
:10576000002858BF039805B000BD00BF1BCBFFFF4A
:1057700081EA00039B0717D1820707D010F8012B9D
:1057800011F8013BBAB19A42F6D014E002680B68F6
:105790009A42A2F1013301BF934313F0803F50F8C6
:1057A000042F51F8043FF3D010F8012B11F8013BFE
:1057B0000AB19A42F8D0D01A7047000010B51446CA
:1057C00000F002F8226010BDC1F30A5343B14A0051
:1057D00012F5001F28D2A3F2FE32A1EB025170474E
:1057E00050EA410C20D001F0004C31EA0C01B1FA32
:1057F00081F204BFB0FA80F3D2180B3AB2F1200361
:105800002CBF00FA03F1914041EA0C013EBFC2F106
:10581000200C20FA0CF319439040524240F2FD3321
:10582000D21A01EB0351704700227047124254D440
:1058300040F2FF7C1CEA11530FD0634531D09B1816
:1058400063453CBF01EB0251704701F0004141EA62
:105850000C510020AFF30080704750EA410320D084
:1058600001F0004C91EA0C011CD0B1FA81F30B3B22
:105870009A420DD9D21A994051EA0C01C3F1200C79
:1058800020FA0CFC61449840531C40F2FF7CD7E79F
:10589000914041EA0C01C2F1200C20FA0CF31943AB
:1058A00090407047B0FA80F31533202BE0D3202AC4
:1058B000EED3203A203B9A4209D9D21A00FA03F1DA
:1058C00041EA0C010020531C40F2FF7CB8E700FACB
:1058D00002F141EA0C0100207047524240F2FF7C85
:1058E0001CEA11530DD06345DBD0B2EB030C3CBF77
:1058F000A1EB025170470CF1010221EA035141F47E
:10590000801150EA410CCCD001F0004C352A27DC44
:1059100030B481EA0C01B2F1200309DAC2F12003AC
:10592000044601FA03F5D0402843D1409C400CE0E6
:10593000C3F12002450020FA03F418BF44F001042B
:1059400021FA03F091400C43002174F1004550F11D
:10595000000051EB0C01244230BC7FF47BAF704758
:105960006146002076E7F0B404682346002200E098
:105970005B1C1D78A5F10906052EF9D3202DF7D063
:105980002D2D0CBF08222B2D00D15B1C1D7845F05E
:1059900020066E2E26D15A7842F02002612A02BFDC
:1059A0009A7842F020026E2A02D02346002245E077
:1059B000DB1C1C4604222578282D3FD114F8015FFA
:1059C000A5F161061A2EF9D3A5F141071A2F24BFBC
:1059D000303D0A2DF2D325785F2DEFD0292D2DD122
:1059E000631C2BE0692E2CD15D7845F020056E2DCF
:1059F00002BF9D7845F02005662D02D02346002287
:105A00001CE013F8034F44F02004692C02BF5C78BB
:105A100044F020046E2C42F003020FD19C7844F035
:105A20002004692C02BFDC7844F02004742C05D1DA
:105A30001C7944F02004792C08BF5B1DF9B10B6080
:105A40001DE0302D02BF597841F02001782914D192
:105A5000991C0C782E2C08BF491C0978A1F161040F
:105A6000052C84BFA1F14105052D02D930390A2941
:105A700003D29B1C42F0020201E042F001020360EB
:105A80001046F0BC704700002DE9F14F8CB00026A5
:105A9000169C04EBC4042D2CC8BF2D2400201860D4
:105AA0009146B046586001E0491C01200A78302A2E
:105AB000FAD000221D460B78A3F130070A2F80F0A0
:105AC0009D80A24207DB2868401C28600B78302BA1
:105AD00006D0012604E0A3F130000DF80200521CAC
