:10000000D80C00206D620000856000008760000051
:10001000896000008B6000008D600000000000001F
:100020000000000000000000000000008F600000E1
:1000300091600000000000009360000095600000E7
:10004000A1620000A5620000A9620000AD6200008C
:10005000B1620000B5620000B9620000BD6200003C
:10006000C1620000C5620000C9620000CD620000EC
:1000700099600000D16200009F600000D56200001E
:10008000D9620000DD620000E1620000E56200006C
:10009000A5600000E9620000ED620000F16200006E
:1000A000F5620000F9620000FD62000001630000DB
:1000B00005630000096300000D6300001163000088
:1000C00015630000196300001D6300002163000038
:1000D00025630000AB600000B1600000B760000065
:1000E000296300002D6300003163000035630000C8
:1000F000396300003D630000416300004563000078
:10010000496300004D630000516300005563000027
:10011000596300005D6300006163000065630000D7
:10012000696300006D630000CB6000007163000034
:1001300075630000796300007D6300008163000047
:1001400085630000896300008D63000091630000F7
:100150009563000099630000D16000009D6300007A
:10016000A1630000A5630000A9630000AD63000067
:10017000B1630000B5630000B96300000000000037
:10018000BD630000C163000081B000F5E07002684B
:10019000914203D343681A44914202D380680028F5
:1001A000F5D101B07047DFF80017086890B94FF437
:1001B000805048604FF480324FF0FF308A60C86052
:1001C00008610420DFF8E426DFF8E4364861C2F86D
:1001D000BC010B600120704701F1080313F0070F09
:1001E0000EBF0023C3F1080303F007031944D21A1A
:1001F0008161C26042F001034B60091D28238B50CE
:10020000DFF8A4160A69C26170472DE9FC4B074666
:1002100001F1080010F0070F0FBF8946C0F1080078
:1002200000F0070001EB000902F1080111F0070FCF
:1002300006D002F10800C0F1080000F007000244F7
:100240001546A5EB090009EB0306A0EB030B43F0F1
:100250000303C9F80430AE4228BF00F051FF2879EB
:10026000C10758BF00F04CFFBBF1100F38BF00F0C2
:1002700047FFB869854207D1F8685844F860BE6105
:1002800040F00100706050E1786985420AD1B86899
:100290008344C7F808B07E614BF00100706046F8F7
:1002A0000BB042E1686800F00301012940F0AB8027
:1002B000C008C0000190C0081F2839D8AC68D5F824
:1002C0000C800090454508BF00F01AFFA54208BF0A
:1002D00000F016FF68680099C008C000B0EBC10FBD
:1002E00018BF00F00DFF009907F1280000EBC100D6
:1002F000844206D03A699442C0F08080E168A94205
:100300007CD1A04506D100983968012282409143F2
:10031000396075E0804506D0386980456ED3D8F8DD
:100320000800A8426AD1C4F80C80C8F8084067E009
:10033000EC68D5F81880AC420CD0A86839698842BE
:1003400022D3C168A94204BFA168A9421CD1C460DC
:10035000A0601BE005F11402146834B905F1100225
:1003600014689CB101E01A46146804F1140319687A
:10037000002902BF04F1100318680028F3D139697D
:100380008A4228BF106001D200F0BAFEB8F1000F17
:1003900036D0E96907F5987000EB81000268954254
:1003A00008D10460A4B9E8697968012282409143C8
:1003B000796025E03869804508D3D8F81000A84254
:1003C00014BFC8F81440C8F8104001E000F098FECF
:1003D000B4B139698C4211D3C4F81880286928B1A6
:1003E000884226BF2061846100F08AFE686938B1C6
:1003F0003969884202D36061846101E000F080FEC7
:1004000001982D18834468684008400068604BF0EC
:10041000010171604FEADB0446F80BB01F2C23D8B2
:1004200007F1280000EBC4084546BBF1100F38BFA8
:1004300000F066FE386820FA04F1C90705D40121EE
:1004400001FA04F404433C6007E0D8F80800396975
:1004500088422CBF054600F053FEC8F80860EE60E5
:10046000B560C6F80C8060E05FEA1B2008BF002181
:1004700023D0B0F5803F28BF1F211ED2A0F5807287
:10048000120C02F008029040A0F58051090C01F016
:1004900004018840A0F580431B0CC2F10E0203F05A
:1004A0000203521AD21A984002EBD032D01D2BFA16
:1004B00000F101F0010101EB420107F5987202EB36
:1004C0008100F1610022726132617A6822FA01F3DF
:1004D000DB0707D4012303FA01F1114379600660B9
:1004E000B0611DE002681F291DBF4908C1F1190153
:1004F0000BFA01F1594600E002465068C008C000FE
:10050000584516D002F11003CC0F03EB84034900C9
:1005100018680028F0D13869834204D31E60B261A4
:10052000F660B66001E000F0EBFD09F10800BDE8FF
:10053000F68B396990688A4228BF8842F3D3C66037
:100540009660B060F2600020B061EEE72DE9FE4FEA
:1005500004468B46A5692E46904699463146FFF7DC
:1005600013FEA8F128020168406801EB000AAAF115
:10057000270111F007000EBF0021C1F1080101F0B1
:1005800007010AEB0100A0F12F0706F110008742D6
:1005900038BF374607F118000190594600200090F7
:1005A0002046FFF719FE07F1080010F0070F18BFEB
:1005B00000F0A6FD1B20786007F1080104F5E0704B
:1005C00090E80C5081E80C50C0F800B0C0F80480EE
:1005D000C0F80C9081600198009900E0001D07228E
:1005E0004260491C00F108025245F7D30129D8BFE7
:1005F00000F086FDB74200F09580BF1B301D311D15
:10060000C05940084000C85147F0010171604FEAED
:10061000D70BF751BBF11F0F21D804EBCB0000F132
:100620002805A846102F38BF00F06AFD206820FA80
:100630000BF1C90705D4012101FA0BF10843206031
:1006400006E0A868216988422CBF804600F058FD6A
:10065000AE60C8F80C60C6F80880F5606FE0380A34
:1006600008BF002123D0B0F5803F28BF1F211ED234
:10067000A0F58072120C02F008029040A0F58051A3
:10068000090C01F004018840A0F580431B0CC2F165
:100690000E0203F00203521AD21A984002EBD03233
:1006A000D01D27FA00F101F0010101EB420104EB3A
:1006B0008102002302F59870F16173613361626811
:1006C00022FA01F3DB0707D4012303FA01F11143F6
:1006D00061600660B0611DE002681F291DBF490806
:1006E000C1F1190107FA01F1394600E002465068EC
:1006F000C008C000B84216D002F11003C80F03EBC7
:100700008003490018680028F0D12069834204D38F
:100710001E60B261F660B56011E003B0BDE8F04F55
:1007200000F0EEBC0BE0216990688A4228BF884245
:10073000F3D3C6609560B060F2600020B06103B092
:10074000BDE8F08F2DE9F041574F054638688846DF
:1007500008B9FFF728FDB96801EB08002F30491EE2
:1007600020EA010188457DD205F5D876B06828B128
:10077000326889188A4275D2884273D300F0D0FC5F
:1007800001001CBF0C6811F1010F6BD030682018FC
:1007900005F5D87230605368984238BF18467060CB
:1007A000A86960BB286908B1814200D22961316122
:1007B00074610020F06105F12802386868624FF02A
:1007C000FF3028620020D260926002F1080353617A
:1007D0001361801C10322028F5D33448854208BFAD
:1007E000A4F1280228D055F8040CC00805EBC0027B
:1007F000A2F108000A19121A283A01461CE005F570
:10080000E070024600E092687AB3136857683B4490
:100810009942F8D1137B1F0727D4AB691768BB42F5
:1008200023D3D2F804C06744BB421ED2A444C2F80A
:1008300004C0E868A96922182846FFF7CDFC1FE02C
:100840008068C0B103689342FAD1027B130712D4C7
:10085000026801604368E418446043462846BDE8E6
:10086000F041D2E40020BDE8F0812A69914238BF0E
:1008700029610A19E5E7002322462846FFF766FEAC
:10088000E8688045EED2A0EB0800A969E86001EBBA
:100890000802AA6140F00100506048F0030048607F
:1008A00001F10800BDE8F081AC0800201000002034
:1008B0006859883C2DE9F84F00258946090AC9F195
:1008C000000B08BF002323D0B1F5803F28BF1F23B2
:1008D0001ED2A1F58072120C02F008029140A1F51F
:1008E00080531B0C03F004039940A1F58044240CB1
:1008F000C2F10E0204F00204D21A121BA14002EB54
:10090000D132D11D29FA01F303F0010303EB4203B5
:10091000074607F5987858F8230030B31F2B0FBF10
:100920004C465C08C4F1190409FA04F4AC46594673
:1009300000E064004268D208D200A2EB09028A42B9
:1009400003D21100054600F06881426910304FEA79
:10095000D47B50F82B00002A1CBF8242944600280A
:10096000E7D18B466046B0BBBDBB012000FA03F364
:100970005B00584203437868034000F04D815842C1
:1009800003405B1E180B00F01000C340590901F032
:100990000801CB409A0802F00402D3405C0804F03E
:1009A00002040818E3401018C3F34006201830442E
:1009B000F3401B1858F823000DE008464168C908A9
:1009C000C900A1EB090159453CBF8B4605460169A9
:1009D0000029F2D140690028F0D1002D00F01C81DF
:1009E000B868A0EB0900834580F01681386985421C
:1009F000C0F010816868C008C00009EB0B01884294
:100A000018BF00F07DFB05EB0906B54280F00281BE
:100A1000EC68D5F818A0AC420CD0A86839698842B7
:100A200022D3C168A94204BFA168A9421CD1C460F5
:100A3000A0601BE005F11402146834B905F110023E
:100A400014689CB101E01A46146804F11403196893
:100A5000002902BF04F1100318680028F3D1396996
:100A60008A4228BF106001D200F04AFBBAF1000FA1
:100A700036D0E96908EB81000268954209D104602B
:100A8000200014D1E869796801228240914379609D
:100A900026E03869824508D3DAF81000A84214BF6E
:100AA000CAF81440CAF8104001E000F029FBBCB1BC
:100AB0003869844212D3C4F818A0286930B1396962
:100AC000884226BF2061846100F01AFB686938B152
:100AD0003969884202D36061846101E000F010FB53
:100AE000BBF1100F0CD2D94449F003006860291DF6
:100AF000281D50F8090040F0010041F8090088E085
:100B000049F0030068604BF0010070604FEADB00C1
:100B100046F80BB01F281DD807EBC00101F12804CF
:100B2000396821FA00F2D207A34605D4012202FA5D
:100B300000F00843386006E0A068396988422CBF9D
:100B4000834600F0DDFAA660CBF80C60C6F808B06A
:100B5000F4605EE05FEA1B2008BF002123D0B0F5FF
:100B6000803F28BF1F211ED2A0F58072120C02F018
:100B700008029040A0F58051090C01F00401884062
:100B8000A0F580431B0CC2F10E0203F00203521ABF
:100B9000D21A984002EBD032D01D2BFA00F101F0AE
:100BA000010101EB4201F16100227261326108EB47
:100BB00081007A6822FA01F3DB0707D4012303FAE4
:100BC00001F1114379600660B0611DE002681F29E0
:100BD0001DBF4908C1F119010BFA01F1594600E0A6
:100BE00002465068C008C000584518D002F11003F2
:100BF000CC0F03EB8403490018680028F0D1386952
:100C0000834204D31E60B261F660B66001E000F07A
:100C100077FA13E100F074FA0DE18B46A3E6396927
:100C200090688A4228BF8842F1D3C6609660B0605F
:100C3000F2600020B061ECE72DE9F84F06468846E7
:100C4000716848420140491E080B00F01000C14085
:100C50004A0902F00802D1408B0803F00403D9408E
:100C60004D0805F002051018E9401818C1F34004BA
:100C7000281806F5987A2044E14009185AF82110FE
:100C80004868C008C0000D46A0EB080909E001460D
:100C90004868C008C000A0EB080048453CBF81463A
:100CA0000D4608690028F2D149690029F0D1306960
:100CB0008542C0F0BE806868C00808EB090BC00020
:100CC000584518BF00F01CFA05EB0800854200905B
:100CD00080F0AF80EF68AC69AF420CD0A868316992
:100CE000884222D3C168A94204BFB968A9421CD175
:100CF000C760B8601BE005F11402176837B905F149
:100D0000100217689FB101E01A46176807F1140333
:100D10001968002902BF07F1100318680028F3D1F1
:100D200031698A4228BF106001D200F0E9F9002C35
:100D300031D0E9690AEB81000268954208D1076069
:100D40008FB9E8697168012282409143716022E0A5
:100D50003069844205D32069A84214BF67612761C6
:100D600001E000F0CDF9B7B13069874211D3BC6121
:100D7000286930B13169884226BF3861876100F047
:100D8000BFF9686938B13169884202D378618761F7
:100D900001E000F0B5F9B9F1100F0BD24BF00300F0
:100DA0006860291D281D50F80B0040F0010041F833
:100DB0000B003DE048F00301696049F00100291D86
:100DC00041F80800009840F80990D6F808804FEAEA
:100DD000D80BBBF1200F28BF00F092F9B8F1000F3B
:100DE00022D006EBCB00776900F12804A246B8F1C7
:100DF000100F38BF00F084F9306820FA0BF1C907F2
:100E000005D4012101FA0BF10843306006E0A06827
:100E1000316988422CBF824600F072F9A760CAF897
:100E20000C70C7F808A0FC60C6F8089000987061C4
:100E300004E000F065F90020BDE8F28F05F108003C
:100E4000BDE8F28F2DE9FE4F0546AFF30080F52D8A
:100E5000DFF8A86280F004810B2D31BF10250B351F
:100E6000ED08ED003068EC08E04010F0030F46D0CC
:100E7000C04300F00100041906F1280000EBC4088B
:100E8000E700D8F808506868C008C000B84218BF2A
:100E900000F036F9D5F80890454508BF00F030F964
:100EA0004D4508BF00F02CF96868C008C000B84282
:100EB00018BF00F025F9C84507D13168012000FAB4
:100EC00004F421EA040434600DE03069814508D35C
:100ED000D9F80C00A84204D1C8F80890C9F80C80D1
:100EE00001E000F00DF947F003006860291D281D9E
:100EF00005F10804C05940F00100C851F8E0B1689C
:100F0000A94280F0BE80002800F0A1804FF00108C7
:100F100008FA04F1490000FA04F4484201430C4085
:100F200060420440641E200B00F01000C4406109C0
:100F300001F00801CC40A20802F00402D44063088A
:100F400003F002030818DC401018C4F34007181817
:100F50003818FC40241806F1280000EBC40AE7000A
:100F6000DAF80890D9F80400C008C000B84218BFE9
:100F700000F0C6F8D9F808B0D14508BF00F0C0F8B5
:100F8000D94508BF00F0BCF8D9F80400C008C0007B
:100F9000B84218BF00F0B4F8DA4506D1316808FA53
:100FA00004F421EA040434600DE03069834508D379
:100FB000DBF80C00484504D1CAF808B0CBF80CA007
:100FC00001E000F09DF845F00300C9F804007F1B24
:100FD00009F1040147F00100485109EB05000190B7
:100FE000C751B4684FEAD40ABAF1200F28BF00F005
:100FF00087F834B3CDF800A006F12800756900EB3E
:10100000CA0AD346102C38BF00F07AF8316800982D
:1010100021FA00F2D30704D408FA00F00843306044
:1010200007E0DAF80800316988422CBF834600F0F7
:1010300067F8CAF80850CBF80C50C5F808B0C5F8E6
:101040000CA0B76009F108040198706150E0706865
:10105000C0B329463046FFF7EFFD040011D047E04A
:1010600015F1400F28BF4FF0FF350AD20B35ED08C0
:101070007068ED0028B129463046FFF71BFC0400DC
:1010800036D1B068A8421DD3411B726910290AD31A
:1010900050197061B16041F001034360415045F067
:1010A000030555600BE00021B1607161131D40F034
:1010B00003015160111D095841F00101195002F15D
:1010C000080415E0F06885420DD2401BB169F0605C
:1010D0004A19B26140F00100506045F003054D60CF
:1010E00001F1080404E029463046FFF72BFB0446D3
:1010F000AFF300802046FFF722BB00001000002065
:10110000012000F023B88268521C8260426832B12C
:101110000268531C036011704168491E41607047AA
:101120000749086808B1002070470648C008C00099
:1011300008600549C908C900091A0160704700BF65
:10114000D0080020DF0C0020D814002080B5AFF3B9
:101150000080024A11001820ABBEFBE72600020007
:101160002DE9F0439FB000BF66A6269CDFF8E48A15
:1011700002918DF83B4000210B914FF0FF37044660
:1011800091461D460AE019F8011B0298A047002865
:10119000029000F0A4800B98401C0B9099F800007E
:1011A00050B12528EFD1002000210590069107902D
:1011B000089109900A9103E00B98A7E041F0010122
:1011C00019F8010F2028F9D023280CD02B2804D09F
:1011D0002D2805D0302809D083E041F00201EFE747
:1011E00041F00401ECE741F00801E9E741F01001AA
:1011F000E6E700200D900AE00D98404505DA00EB87
:10120000800302EB4302303A0D9209F1010999F88B
:101210000020A2F130000A28EED399F800002E2811
:1012200018BF0C9726D119F8010F2A2808D1286871
:10123000286009F1010950F8042B28600C9219E08C
:101240002D280CBF19F8010B002000220C920BE096
:1012500040B90C9A424505DA02EB820203EB4203E5
:10126000303B0C9309F1010999F80030A3F13002E9
:101270000A2AEDD3ADF83810304699F8001000F086
:1012800081FE08B119F8010B8DF83A009DF83A007B
:10129000682804BF99F80010682903D162208DF8EE
:1012A0003A0008E06C2804BF99F800006C2804D1CB
:1012B00071218DF83A1009F1010910A804902A460D
:1012C00019F8013B6946204600F060F838B910AAC9
:1012D0006946204600F08CF900287FF55FAF38465C
:1012E00014E02A2885D12A682A6052F8040B2A6063
:1012F00000280D9003D540420D9041F0040109F102
:1013000001098AE7686A6C747A4C00001FB0BDE876
:10131000F083622820D0682811D06A2803D06C2876
:1013200027D0712825D10868C01D20F0070008606B
:10133000D0E9002308300860194610467047002A9B
:101340000A680A60106803D0121D0A6000B217E034
:10135000121D0A6080B217E0002A0A680A6010684D
:1013600003D0121D0A6040B20AE0121D0A60C0B22A
:101370000AE0002A0A680A60106803D0121D0A6099
:10138000C1177047121D0A600021704770B51C46D6
:101390000D46B4F125002E69114600F017811C3866
:1013A0006AD0001F022867D9133843D0093863D0A8
:1013B000801E16D0401E1ED0401E02285CD9001F81
:1013C00019D0401F00F08380401E33D0401E00F033
:1013D000CD80C01E00F0D880801E2BD0C01E29D02A
:1013E000FAE06869421C6A610A680A6052F8043BC4
:1013F0000A603354FAE095F83A000122FFF789FFBA
:10140000C5E900010023994204DA6869411C696159
:101410002D210DE0288F810704D56869411C696181
:101420002B2105E0C00722D56869411C6961202194
:1014300031541CE095F83A000022FFF76AFFC5E935
:10144000000195F83800010711D5D5E900230020E7
:10145000834208BF82420AD044F02000782806D197
:10146000686930213154401C411C69613454214663
:1014700068693044E86083E00868C01D20F0070018
:101480000860D0E9002308300860C5E90023D5E9E9
:101490000001C80F04D06869411C69612D210DE06D
:1014A000288F810704D56869411C69612B2105E0FB
:1014B000C00704D56869411C6961202131546869FD
:1014C0003044E8602146284600F0C4F98EE005F17A
:1014D0003A02507820B14FF0FF340FF648205EE01A
:1014E0001078622808D0682824D06A2812D06C2886
:1014F0002ED071280ED02BE00A680A6052F8040B37
:101500000A6020B94FF0FF340FF6302047E0E96A57
:1015100001706BE00A680A6052F8040B0A6020B997
:101520004FF0FF340FF6142039E0EA6AD317C0E910
:1015300000235BE00A680A6052F8040B0A6020B9D5
:101540004FF0FF340FF6F41029E0E96A01804DE016
:101550000A680A6052F8040B0A6020B94FF0FF34A1
:101560000FF6D8101BE0E96A01603FE00A680A60E4
:1015700052F8040B0A600021C5E90001EE607821F1
:10158000284600F0BBF831E00868086050F8044BCA
:101590000860EC603CB94FF0FF340FF6B81000F073
:1015A000FDFC201A70BD2E6B002E04D5204600F0E5
:1015B00015FD044608E032460021204600F02AFDD1
:1015C000002814BF041B3446AC610FE06869411C5D
:1015D00069612521315409E06969481C6861252247
:1015E0007254210002D0411C69613454002070BD46
:1015F0002DE9FC410F460646796B7869BC6A091AE9
:10160000386A091AB869091A786A091AF869091A48
:1016100097F838000C1B410790460FD42021002C6E
:101620008DF800100ADD254601236A46394630460A
:1016300000F060FC00285DD16D1EF5D17B6942464B
:101640003946304600F056FC002853D130208DF842
:1016500000003D6A002D09DD01236A463946304607
:1016600000F048FC002845D16D1EF5D1BB69FA6831
:101670003946304600F03EFC00283BD130208DF842
:1016800000007D6A002D08DD01236A463946304698
:1016900000F030FC70BB6D1EF6D1F868B969FB69CB
:1016A00042183946304600F025FC18BB30208DF832
:1016B0000000BD6A002D08DD01236A463946304628
:1016C00000F018FCB0B96D1EF6D197F8380041074C
:1016D0000DD52021002C8DF8001008DD01236A466D
:1016E0003946304600F006FC20B9641EF6D10020D1
:1016F000BDE8F6814FF0FF30BDE8F6812DE9FC47EB
:1017000007468A463E69BAF16F0F08BF082405D024
:101710004AF02001782914BF0A2410243C25D7E977
:101720000023BAF1640F18BFBAF1690F90469946C9
:1017300006D100218B4203DAD8F1000869EB490990
:101740000020814508BF80451FD1386BE8B9082CBF
:101750004CD197F83800010748D530203B2586F852
:101760003B0043E000280ED597F8380000F0140045
:10177000102808D17A6B7869121A386A121A511A2D
:101780000029C8BF3962BDE8F3878DF800A0404644
:1017900049462246E31700F069FC3032D0B26D1E94
:1017A0003A28019504DB9DF80000A0F151018A1848
:1017B0007255404649462246E31700F057FC8046E2
:1017C00089460020814508BF804503D0F86871191B
:1017D0008842DCD3082C09D197F83800010705D5D9
:1017E000715D302902D06D1E30207055C5F13C016D
:1017F000B9617019F860386B8142B3DA411A396205
:101800004FF6EF70398F01403987BDE8F3872DE936
:10181000D04306460F4614464FF00008DFF83894D0
:1018200012E0E00707D542464B463046394600F005
:1018300035FD06460F464046494642464B4600F0B7
:101840002DFD641080468946002CEAD13046394689
:10185000BDE8D0832DE9F34F054641F020048DB05B
:10186000D5E90089612C02AE09D0286B002848BF59
:10187000062003D408BF672C01D101202863D5E9D5
:10188000002358004015401C0ED119030CD0032032
:10189000A8619DF8380061381A2802D20FF2D06191
:1018A00011E00FF2D0610EE058004015401C0FD13E
:1018B00019030DD10320A8619DF8380061381A285A
:1018C00014D30FF2B861E868032200F0B9FDD3E148
:1018D000194621F00043B3F5801F10460DD20027B2
:1018E000BB4208BFBA42019703D111E00FF28861F1
:1018F000E9E701AA00F0F8FD0AE0DFF8607307EB02
:101900001352DFF85C3301921940DFF85833194362
:10191000C5E90001612C0ED1E86830210170811CFD
:10192000E9609DF8381061290CBF78215821417079
:101930006869801C6861D5E900AB2BF0004300208A
:101940002AF00002834204BF8242002300F05A8141
:10195000612C40F0A980286B00284CBF2120401C3E
:1019600000904046009F7F1C49460022002300F063
:10197000F3FDD94601988DF8082038BF89F0004959
:10198000001F0190002FD0460DF1090040F349815E
:1019900040F2FF71DFF8D0B20C910646404649464E
:1019A0000022002300F0F0FD80F03A814800400D55
:1019B00000F11C0210D0002A0EDD0C98824205DBDB
:1019C00009F0004040EA0B01002013E0A448084061
:1019D00040EA025140460DE029F00043002028F083
:1019E0000002834208BF82420FBF40461C2240468D
:1019F00000F0E2FD8046894600F07CFEFF1F002FCC
:101A0000044609DD00F094FE02460B464046494676
:101A100000F0A0FE80468946F01D072104E004F096
:101A20000F0200F8012D2411002C01DD491EF6D50E
:101A3000491E5CBF002200F8012DF9D5ECE0002022
:101A4000194602AA0A4400E05B1E12F80149491E29
:101A50008442F9D00F2804D10DF10900425C521CD8
:101A60004254002904D50198001D02AE5B1C019070
:101A7000591E12D49DF838007218147804F13008F9
:101A80005FFA88F4392CC4BFA0F13A04A044491E7F
:101A900002F80189F1D58DF83800286B002840F153
:101AA000B080591E2963ACE040464946002200231D
:101AB00000F052FD019938BF89F0004947F2975074
:101AC00041436A4A91FBF2F20192D2F1070204DD2E
:101AD00040464946FFF79BFE0AE052420020644917
:101AE000FFF795FE02460B464046494600F0A4FE2D
:101AF0008046662C286BDFF87CB106BF019F0A3751
:101B000006273F18142FC8BF142730208DF808006F
:101B100089460DF1090000E03046002F34DD06460D
:101B20004046494600F0ACFF01460A4606F108036C
:101B300004200A26B2FBF6F606EB860EA2EB4E0256
:101B4000303203F8012C0A22B6FBF2F202EB820ECD
:101B5000A6EB4E063036401E03F8026DE9D1083F71
:101B6000002F03F10806D7DD084600F09DFF02466E
:101B70000B464046494600F0EDFD00225B4600F072
:101B80008DFB80468946CBE70DF10901401A0DF126
:101B9000090604E00199491E401E0191761C317826
:101BA0003029F7D0662C02D10199491C03E0652C3D
:101BB0000CBF012100212B6BCB189842B8BF431EEC
:101BC000002B1ED4834204DAF05C3528A8BF3920EC
:101BD00000DA30201946721E02EB010800E05B1E9D
:101BE00018F80199491E8145F9D0392802D1705C55
:101BF000401C7054002904D50198401C16465B1CFB
:101C00000190019800B200901BB29DF83810324646
:101C1000284600F035F82FE0C61D002F3FF7BEAE76
:101C200030460DF10901401A009903468842C8BFA9
:101C30000B46002B0DF109063FF52FAF8342BFF68F
:101C4000FEAE0DF10900C05C07287FF7F8AE0F204B
:101C5000F6E60000CBCCCC0C0000244002FCFFFFD9
:101C6000FFFF0F800000E03F0000F07FA086010032
:101C70000000F03F84D797410FB0BDE8F08F00001F
:101C80002DE9FC43054683B01F46D5F83080002F70
:101C9000164602DC5FF00107B9A68946BDF930405F
:101CA00049F02000662808BF641C17D0672840F060
:101CB000888014F1040FC0F28A80444580F2878046
:101CC00095F83800641C010702D44745B8BFB846F0
:101CD00020B2B8EB000848BF4FF000080FFA84F9B3
:101CE000E868A969B9F1000F27DC4A1C3023435486
:101CF000B8F1000F03DC95F83800010703D5E86858
:101D00002E218154521C18EB090FB8BFC8F10004F2
:101D100024B260426862A044B845AA61B8BF474691
:101D2000E868AB693FB2EF613A463146184400F0CB
:101D300087FBA8EB0700A862C5E022B297420844DF
:101D400019DA3A46314600F07BFBA8693818A9EB4E
:101D50000707B8F1000FA8616F6203DC95F838102F
:101D60000A0705D5E9682E220A54E869401CE86193
:101D7000C5F82880A7E0314600F062FBA8693F1B48
:101D8000B8F1000F484403DC95F838100A0703D572
:101D9000E9682E220A54401CA86138B28045E868E0
:101DA000AB69B8BF47463AB206EB0901184400F0E8
:101DB00047FBA8693FB23818A8EB0707A8616F6214
:101DC00081E0B9F1610F16D14FF0700918E0474575
:101DD00004DA95F838100A0758BFB846B8F1010878
:101DE00048BF4FF00008B9F1670F14BF4FF0450925
:101DF0004FF0650904E0B9F1410F08BF4FF05009F9
:101E0000A969EB68481CA861B8F1000F16F8012B0E
:101E10005A5403DC95F838100A0719D5EA68431CB0
:101E2000AB612E211154B8F1000F11DD7F1E38B2C5
:101E30008045E868B8BF47463AB23146184400F0DA
:101E4000FFFAA8693FB23818A861A8EB07006862DA
:101E5000E868A9690844002C80F8009003D42B217D
:101E60004170811C03E02D2141706442811C0020DF
:101E70006A460AE023460A2493FBF4F404EB840642
:101E8000A3EB460302F8013B401C24B2002CF1DC1A
:101E9000012806DC49F02002652A04BF302201F83F
:101EA000012B48B9302001F8010B07E0401E1DF856
:101EB0000020303201F8012B0028F7DCE868AA691D
:101EC0001044091AE96195F8380000F01400102850
:101ED0000DD16969A8694118686A4118E869411813
:101EE000A86A4118686B8142BCBF411A296205B0DB
:101EF000BDE8F083F8B505460E4617461C4600209F
:101F000074B117F8011BB068A847B06030B1F06A2F
:101F1000401CF0620020641EF3D1F2BD4FF0FF3090
:101F2000F2BD00007072696E74665F733A20256EB0
:101F300020646973616C6C6F776564007072696EA0
:101F400074663A2062616420256E20617267756D47
:101F5000656E74007072696E74665F733A206261B8
:101F60006420257320617267756D656E74000000D2
:101F70006E616E004E414E00696E6600494E46002D
:101F8000300000000278C9B28A421AB11CBF10F8B2
:101F9000012FF9E718BF00207047000080B500B995
:101FA00006A005490B681BB122220021984701E0D9
:101FB000FFF7A6F8222002BDD4080020636F6E73DD
:101FC000747261696E742068616E646C65723A2027
:101FD000626164206D6573736167650000F10103E0
:101FE000810704D010F8011B89B18107FAD102687A
:101FF000B2F10131914311F0803F04BF50F8042F3A
:10200000F6E710F8011B11B110F8011BFBE7C01A2D
:1020100070470000C9B2830706D0521E22D310F8C1
:10202000013B9942F7D11FE0083A13D302F10402B1
:1020300041EA012141EA014150F8043B121F21BF4E
:102040004B40A3F1013C2CEA030C1CF0803FF3D081
:10205000C9B2001F083210F8013B521E28BF91EA96
:10206000030FF8D818BF0120401E7047B3BBD9B189
:10207000B2F5803F7DD2022A1ED98C46B1FBF2F127
:1020800002FB11C31B0443EA1043B3FBF2FC02FB47
:102090001C3380B240EA0343B3FBF2F002FB103280
:1020A00040EA0C4000237047022A05D98446B0FB61
:1020B000F2F002FB10C270474AB105D100F00102F4
:1020C00049085FEA3000704700220023704700F0A3
:1020D000F9BC0B000200002100207047904271EB18
:1020E000030CF6D3B3F5803F2FD2F0B5B3FA83F7E4
:1020F000B1FA81F4A7F10F0E3D1B5340CEF120063B
:1021000002FA0EF2F3415340B5F10F0746D80F3CE7
:102110002C444140C4F12006A040F1414140B1FBB4
:10212000F3F603FB1611A2FB0645001BA94102D2E0
:10213000761E8018594180EA010221FA0EF362FAF4
:102140000EF200215A403046F0BD30B4B1FBF3FC32
:1021500003FB1C11A2FB0C45001BA94103D2ACF1EF
:10216000010C8018594130BC02460B4660460021E4
:102170007047B2F1807F65D3F0B5B2FA82F7B1FA59
:1021800081F4C7F10F063D1B22FA06F307F1110E89
:10219000F24120355A40B5F10F07B8D94140C4F19A
:1021A0002006A040F1414140B1FBF3FC03FB1C11B0
:1021B000A2FB0C45001BA94103D2BCF1010C801805
:1021C00059410F2F12D30F3FC90341EA5041B1FBD0
:1021D000F3F603FB1611A2FB0645D4EBC030A94170
:1021E00002D2761E8018594146EACC3C07B34140E2
:1021F000C7F12006B840F1414140B1FBF3F603FBC3
:102200001611A2FB0645001BA94102D2761E8018BA
:10221000594180EA010221FA0EF3C7F1200462FA63
:102220000EF20CFA07F05A402CFA04F13043F0BDDC
:1022300080EA010221FA0EF3002162FA0EF26046F2
:102240005A40F0BD8C46B1FBF2F102FB11C31B02F8
:1022500043EA1063B3FBF2FC02FB1C331B024CEAA3
:10226000002043EA1063B3FBF2FC02FB1C331B02A9
:102270004CEA002043EA1063B3FBF2FC02FB1C3380
:102280001B024CEA002043EA1063B3FBF2FC02FBA2
:102290001C324CEA0020002370470000B0B581EAF0
:1022A000030C0CF0004C40F2FF7515EA11541DBFF1
:1022B00015EA1357AC42AF4239E0E41923EA45531B
:1022C00043F48013C90241F0004141EA505EC70265
:1022D0001100A7FB020200284FF00000EEFB0120D6
:1022E0004FF00001E3FB072118BF42F00102401844
:1022F00000214941E3FB0E01A4F580640F0302D2E3
:1023000052004041494154F101046CDD470872F12B
:10231000004250F1000051EB0451A1F580115CBF67
:1023200041EA0C01B0BD4CEA05510020B0BD05EA00
:102330001357AC4214BFAF4241E050EA410E1CBFFC
:1023400052EA430E02E061460020B0BD24423C4404
:102350001BD15FEA070EF6D0090302BF0146002039
:10236000AEF1140EB1FA81F7AEEB070401FA07FEE5
:102370000C37C7F1200100FA07F7C8404EEA000EFB
:1023800023EA455343F48013A2E733F00043B3FA42
:1023900083F704BFB2FA82FE77440B3FE41BB7F128
:1023A000200E2FBF02FA0EF3BB40C7F1200E22FA17
:1023B0000EFE38BF43EA0E03BA40641C82E750EABF
:1023C000410E14BF52EA430E6FF000014FF40017A4
:1023D00017EB430F8ABF194617EB410FB5E74CEADD
:1023E00005510020B0BDD4F10104B4F120070FDA8B
:1023F000C4F12007520828BF42F0010210FA07F585
:1024000001FA07F7E1BF2A43E0403843E1400FE01B
:10241000352C98DCC7F1200452EA400220FA07F27A
:1024200018BF42F0010231FA07F0A1400A4300212F
:1024300072F1004250F1000051EB0C01B0BD000000
:1024400062B38B0708D0521E11F8013B00F8013B24
:1024500000F024808B07F6D1830740F0208000BF76
:10246000103A07D330B4B1E83810103AA0E8381069
:10247000F9D230BC530724BFB1E80810A0E8081017
:1024800044BF51F8043B40F8043BD20724BF31F865
:10249000022B20F8022B44BF0B7803707047121FE9
:1024A00017D35B0009D151F8043B20F8023B1B0C09
:1024B000121F20F8023BF6D20BE051F8043B00F863
:1024C000013B1B0A20F8023B1B0C121F00F8013BCA
:1024D000F3D238BF121D521E24BF11F8013B00F881
:1024E000013BF8D87047000010B5144600F002F820
:1024F000226010BDC1F30A5343B14A0012F5001F18
:1025000028D2A3F2FE32A1EB0251704750EA410CEF
:1025100020D001F0004C31EA0C01B1FA81F204BF85
:10252000B0FA80F3D2180B3AB2F120032CBF00FAB4
:1025300003F1914041EA0C013EBFC2F1200C20FAA8
:102540000CF319439040524240F2FD33D21A01EB92
:1025500003517047002270474FF4001C1CEB410FE1
:1025600094BF1CEB430F09E041EA030C50EA4C0C0A
:1025700052EA0C0C03D2994208BF9042704714BF34
:102580008B428242704700004FF4001C1CEB410F4D
:1025900094BF1CEB430F09E041EA030C50EA4C0CDA
:1025A00052EA0C0C03D28B4208BF8242704714BF20
:1025B0009942904270470000124254D440F2FF7C8E
:1025C0001CEA11530FD0634531D09B1863453CBFC3
:1025D00001EB0251704701F0004141EA0C5100202B
:1025E000AFF30080704750EA410320D001F0004C67
:1025F00091EA0C011CD0B1FA81F30B3B9A420DD940
:10260000D21A994051EA0C01C3F1200C20FA0CFCBB
:1026100061449840531C40F2FF7CD7E7914041EA67
:102620000C01C2F1200C20FA0CF3194390407047C2
:10263000B0FA80F31533202BE0D3202AEED3203AD2
:10264000203B9A4209D9D21A00FA03F141EA0C015F
:102650000020531C40F2FF7CB8E700FA02F141EA87
:102660000C0100207047524240F2FF7C1CEA1153DB
:102670000DD06345DBD0B2EB030C3CBFA1EB0251A4
:1026800070470CF1010221EA035141F4801150EA34
:10269000410CCCD001F0004C352A27DC30B481EA63
:1026A0000C01B2F1200309DAC2F12003044601FA59
:1026B00003F5D0402843D1409C400CE0C3F12002F8
:1026C000450020FA03F418BF44F0010421FA03F096
:1026D00091400C43002174F1004550F1000051EB92
:1026E0000C01244230BC7FF47BAF70476146002070
:1026F00076E70000C1F30A5340F2FE329B1A14DD64
:10270000D3F120034FEAE17208DDC90241EA5051DA
:1027100041F00040D84080185040704703F2E1304B
:1027200010B1D24382F00040704700207047000093
:10273000C11768B14840401AB0FA80F29040D21CEC
:10274000C907C2F5846241EA025202EBD02140057A
:102750007047000070B44FF0004591EA030F40F15C
:10276000B3816B40841A71EB030603D2001BB141A5
:10277000121973414FF4001C1CEB410F34BF7CEB6A
:10278000430442E00C0DA4EB1356352E4FDC45EA12
:10279000C323DB0A45EAC121C912B6F120050DDDCC
:1027A00063FA05F6EB4086EA0305124218BF45F0CE
:1027B0000105C01851F100010CD213E062FA06F5D0
:1027C000F2405540F3415A40B340F3405A4080181C
:1027D000594107D349085FEA30005FEA350528BF51
:1027E00045F0010501F58011420875F1004250F1F4
:1027F000000041EB04514E0016F5001F70BC38BFBD
:1028000070470020090D090570471CEB410F10D2DD
:1028100052EA43060BD0BCEB410F05D80C0DAB437D
:10282000661E342EB6DD02E0AB438018594170BC01
:10283000704770BC70470000F0B540F2FF7581EA48
:10284000030C0CF0004C15EA11541DBF15EA135788
:10285000AC42AF42E5E0BC41C1F31301C3F3130343
:10286000801A994143F4801304D2641E4000494108
:1028700080185941C90241EA5051B1FBF3F603FBFC
:102880001611A2FB0675D7EBC020A94102D2761E15
:1028900080185941C90241EA5051B1FBF3FE03FBD4
:1028A0001E11A2FB0E75D7EBC020A94103D2AEF1D9
:1028B000010E80185941890241EA9051760546EA95
:1028C0008E2EB1FBF3F603FB1611A2FB0675D7EBB8
:1028D0008020A94102D2761E80185941C90241EADE
:1028E00050514EEA060EB1FBF3F603FB1611A2FBA4
:1028F0000675D7EBC020A94102D2761E8018594137
:10290000C90241EA5051B1FBF3F703FB1711A2FBD7
:102910000735D3EBC020A94167F100070CBF004287
:1029200047F0010766F3D5274FEA1E31B80814F5C2
:10293000806412DDBD0775F1004250EB0E5051EB83
:10294000045111F5801F5CBF41EA0C01F0BD4CF051
:102950007F6141F0E0410020F0BDBD076D0840EA15
:102960000E5041F48011D4F10104B4F120060ADACA
:10297000C4F120060200E04001FA06F3E1401843EA
:10298000B24015430EE0342C13DCC6F1200445EAB6
:1029900040056D0820FA06F2154321FA06F0A14021
:1029A0000D43002175F1004250F1000051EB0C0184
:1029B000F0BD00205FEA0C01F0BDCFB992185B4179
:1029C000B3FA83F704BFB2FA82F6BF190B3FB7F12F
:1029D00020062FBF02FA06F3BB40C7F1200622FAF9
:1029E00006F638BF3343BA401CB1E419641E33E71E
:1029F0007F4231F00041B1FA81F404BFB0FA80F6B1
:102A0000A4190B3CB4F120062FBF00FA06F1A14037
:102A1000C4F1200620FA06F638BF3143A0403C1B23
:102A20001AE7AC421ABF05EA1357AF4212E050EA68
:102A300041061CBF52EA4306BFE750EA4107304651
:102A400061461CBF41EA0551F0BD52EA430C08BF84
:102A5000C143F0BD00204FF4001616EB410F98BFA4
:102A600016EB430F08BF16EB410F24BFC14305E02F
:102A700016EB430F0CBF61464CEA0551F0BD000058
:102A8000400D491840EA81200CD2490DA1F5806122
:102A9000491C40F0004005DBD1F11F0154BFC84084
:102AA000C017704700207047014648B1B0FA80F166
:102AB0008840C91CC1F58461090501EBD02140059E
:102AC0007047000070470000841A71EB030604D2BF
:102AD0006E40001BB141121973414FF4001C1CEBF6
:102AE000410F34BF7CEB430682E00C0DA4EB135680
:102AF000362E7BDC012E45EAC32341DC43EA5253E8
:102B000012BFD20292025B08240545EAC12141EAC4
:102B10005051D2EBC020994125D407D1B0FA80F6AC
:102B200010FA06F162D00020203608E0B1FA81F6F2
:102B3000B140C6F1200220FA02F21143B0404FEA40
:102B4000F474B4EB465434F001064FEA74040AD826
:102B5000D6F50016760D04F00044F04061FA06F256
:102B60005040F1404840C00A40EA415021F0004145
:102B700028BF5FEA500550F1000044EBD12135E059
:102B8000DB0A45EAC121C90AB6F120050EDD42EA99
:102B90000242120CC5F1200603FA06F6EB4042EAA7
:102BA00006056D42984161F100010DE062FA06F5FB
:102BB000F240554063FA06FC82EA0C02F3405A40A8
:102BC0006D42904161EB030111F4801F05D1641E39
:102BD000620502D06D004041494121F48011430853
:102BE00075F1004350F1000041EB045170BC704797
:102BF0001CEB410F15D223F0004352EA43060BD0E1
:102C00004FEA4C0CBCEB410F04D80C0D661E342E61
:102C1000B7DDEBE7801A994150EA410608BF002171
:102C2000E4E708BF1CEB430F28BF6FF00001DDE7AE
:102C300038B504001ED094F8200010B9204600F0EA
:102C400043FB2068016821F00201016000F078FB7D
:102C50000546206841688A0762D500F071FB401B79
:102C60000B28F6D304E000F06BFB401B0B285AD373
:102C700000F0FAF8012032BD016821F08001016006
:102C8000617E2068012904D1026842F0400202609E
:102C900003E0016821F040010160A17E2068012964
:102CA00004D1026842F02002026003E0016821F0D2
:102CB00020010160E17E2068012904D1026822F030
:102CC0001002026003E0016841F010010160217F01
:102CD0002068012904D1026842F00802026003E082
:102CE000016821F008010160617F2068012904D199
:102CF000026842F00402026003E0016821F004016E
:102D00000160A268E06821680243206902436069AB
:102D100002436068401E0243CA6100206062ABE06B
:102D200000F0AFF8054620684168CA079BD5217EB0
:102D30000129A1D1026842F080020260A0E7F8B543
:102D400090F82020012A18BF022A5DD1504A10684D
:102D500040F001001060136823F47C531360106886
:102D60004B6A40EA0320106001200B7D03F01F0333
:102D700000FA03F3D069DC432040D061454800F5F8
:102D8000117500F51076C86970B9D7682740D7600B
:102D90004F68C86800F03BF808688F6880B240EA66
:102DA00007404F6945F83700C86901280ED1D76838
:102DB0001F43D7604F68086800F029F8C8688E681C
:102DC00080B240EA06404E6945F83600886918B975
:102DD00055682540556002E0506818435060086906
:102DE00018B955692C40546102E05069184350618C
:102DF000086A012802D1D1690B43D36110684008E9
:102E0000400010600020F2BD00F0AAF89FE0BFB2C1
:102E100047EA0047486946F83070704738B50446BD
:102E200094F82000012816D1022184F8201020688F
:102E3000016849084900016000F082FA05462068EF
:102E40004168C8070DD500F07BFA401B0B28F6D36C
:102E500000F00AF803E0606A40F40020606201209C
:102E600032BD0020606232BD606A40F400306062B2
:102E7000052184F820107047012084F820000020EC
:102E800032BD016841F00101016000F059BA000053
:102E90000066004000640040F8B590F820400568E6
:102EA000AD68012C18BF022C4FD115F0E05F48D05F
:102EB000C5F30164032C03D3416A41F4000146E0E9
:102EC0000125A5401D6024010368CE6803F5C07587
:102ED0008B681BB90B6846EA435603E04F6843EA28
:102EE000C7031E432E5105680B6905F5C2763351A1
:102EF000097D012906D1036803F5C2710D5945F416
:102F000080750D519379D17955791B0443EA01639A
:102F1000117900F01FF8C1F88C319378D178557889
:102F20001B0443EA0163117800F014F8C1F88831FA
:102F3000006800F5C070015941F001010151002005
:102F4000F2BD416A41F4001101E000F009F841626C
:102F50000120F2BD43EA05230B4301682144704779
:102F6000416A41F480217047416A41F48021416205
:102F70000120704778B590F82040012C18BF022C32
:102F800068D10029046801D1E56800E0256915F0E1
:102F9000030F03D1416A41F400115DE00D0104F516
:102FA000D876745914F004049460066806F5D8764F
:102FB00003D17459640D146002E07659F608566026
:102FC000046804F5D8767659C6F34004D46000F05E
:102FD0004BF804F00F04146100F046F8C4F3072422
:102FE000946100F041F8240C546102682A44D2F83C
:102FF000B8211A7002682A44D2F8B821120A5A700D
:1030000004686219D2F8B821120C9A700468621927
:10301000D2F8B821120EDA7000F021F81A710268A5
:103020002A44D2F8BC21120A5A7100F018F8120C86
:103030009A7100F014F8120EDA71006821B9C168B3
:1030400041F02001C16003E0016941F0200101610C
:10305000002072BDFFF784FF4162012072BD046849
:103060006219D2F8BC21704704682C44D4F8B441EA
:10307000704790F82020012A18BF022A03D1006867
:103080004269114300E06FE74161002070472DE97C
:10309000F84F05464FF0000828684669D0F804B09C
:1030A0008468D0F80C90D0F810A08769F10745D556
:1030B000E10713D501218160A00703D5284600F060
:1030C00045F90BE0600748BF4FF4006806D42007BD
:1030D0004EBF4FF48058284600F039F9E00515D569
:1030E00029684FF480708860A00503D5284600F059
:1030F0002FF90BE0600548BF48F4005806D42005BE
:103100004EBF48F48048284600F023F9E00315D567
:1031100029684FF480308860A00303D5284600F06A
:1031200019F90BE0600348BF48F4004806D42003B7
:103130004EBF48F48038284600F00DF9300748BFEC
:103140005FEAC96004D52968102048F40078C86097
:10315000700748BF5FEA097005D529680820C86074
:10316000284600F08BF9B00707D52868C16811F030
:10317000030F1CBF284600F054F9700648BF5FEAF1
:10318000CA6004D52968102048F480680861B00638
:1031900048BF5FEA0A7005D52968082008612846FB
:1031A00000F07EF9F00607D52868016911F0030FD9
:1031B0001CBF284600F075F9B00348BF5FEACB603A
:1031C00005D5296810204860284600F06BF9F00307
:1031D00048BF5FEA0B7005D529680820486028467B
:1031E00000F061F9300440D55FEA4B703AD5F00544
:1031F00003D5F80748BF48F00108B00503D5B80764
:1032000048BF48F00208700503D5780748BF48F06A
:103210000408300526D517F0700F23D007F070078B
:10322000102F0CD0202F0DD0302F0ED0402F0FD0CC
:10323000502F10D0602F08BF48F480780DE048F080
:1032400008080AE048F0100807E048F0200804E009
:1032500048F0400801E048F080082868816921F0C2
:1032600070018161042029684860B8F1000F08D01E
:10327000686A48EA000068622846BDE8F24F00F03C
:1032800013B9BDE8F18F000080B5294829490160D4
:103290000321416000218160C1604FF40021016180
:1032A0004FF4401141610021017601214176002156
:1032B0004183017701214177FFF7BAFC18B1BDE8DE
:1032C000014000F085B901BD10B586B0044601A8E3
:1032D000142100F07FF92168164A914225D100207F
:1032E000009000221448016941F0007101610169F8
:1032F00001F000710091009900924FF4C0510368F1
:1033000043F0010303600222006800F00100009016
:103310000098019100200390032109200491059059
:10332000029201A9054800F059F906B010BD00004D
:103330005C08002000640040303802400000024079
:1033400001484068704700BF000000207047704788
:10335000704770477047704710B50146454C8AB0BA
:1033600020462822FFF77CF80020002105900691D6
:103370000091019102910391049101200E21079087
:103380000890099120466946FFF7D9FC08B100F082
:103390001FF92046FFF742FD08B100F019F902219C
:1033A0002046FFF766FE08B100F012F9042120461E
:1033B000FFF75FFE08B100F00BF92F4C0020E06032
:1033C000A0600820206100202075606D38B90022BF
:1033D0000FF2AD010FF2AD0000F00EFA606500F0E3
:1033E000F7FA0AB010BD38B504460D460420FDF7C3
:1033F00029FD214B04600146586D2A46BDE838403E
:1034000000F022BA10B51C4C606D04F1500100F0C0
:1034100061FA010004D004F12800BDE8104008471B
:1034200010BD10B5144C04F1180304F1340200214E
:10343000FFF7A0FD606B2065D4E90601C4E90A012D
:103440000120206310BD000010B50B4C012020624C
:10345000AD206062012020600EA000F0C4FB04F1EA
:10346000580304F120022146BDE810400148FFF74F
:1034700013BD000084080020F805002070470000FC
:103480000068704700680968884201D100207047D1
:103490000120704773656E6420646174610D0A00D9
:1034A00070477047704770477047000080B500F064
:1034B00035FC00F03BF800F04BFC00F05DFDFFF741
:1034C000E3FE00F0ADFD00F0C4FD00F0CCFD00F027
:1034D00099FD00F08DFD00F0BFFF00F063FF0022BA
:1034E0000121142001F070F8142001F08AF8002264
:1034F0000121252001F068F8252001F082F8002242
:103500000121262001F060F8262001F07AF800223F
:103510000121272001F058F8272001F072F82849EE
:10352000284801F099F801F0A8F8FCE780B592B0BE
:1035300006A8302100F04EF801A8142100F04AF846
:10354000002000902048016841F080510160002176
:10355000006800F08050009000981C480091012104
:10356000026842F4804202604FF48032006800F446
:10357000804000900098069102200C904FF480014A
:103580000D9104200E90A8210F910220109004218B
:103590000792119106A801F091F80F2001900221E5
:1035A0000020029103904FF4A0514FF480500491F9
:1035B0000590052101A801F0F9F913B000BD000044
:1035C0005C0800201C0800204038024000700040C9
:1035D00070470000002201F0B9BA00002DE9F84F51
:1035E0004FF0000E6D4A6E4BDFF8B8814FF00F09B7
:1035F00006468A460121DAF8004001FA0EF10C4035
:103600008C4240F0BC80DAF80450022D18BF122D15
:103610004FEA8E0012D14FEADE0506EB850C00F072
:103620001C05DCF8207009FA05FB27EA0B07DAF81D
:1036300010B00BFA05F53D43CCF820504FEA4E0C84
:10364000032537689AF804B005FA0CF5ED430BF042
:10365000030B2F400BFA0CFB4BEA07073760DAF835
:103660000470012F18BF022F03D0112F18BF122F83
:1036700013D1B768DAF80CB02F400BFA0CFB4BEA09
:103680000707B760776827EA0101DAF80470C7F323
:10369000001707FA0EF739437160F1680D40DAF848
:1036A000081001FA0CF12943F160DAF80410C9009E
:1036B00065D50025009500F00C00D8F8001041F405
:1036C0008041C8F8001009FA00F7D8F8005005F456
:1036D0008045009500994FEA9E0153F8215025EA54
:1036E0000707314DAE4208BF002522D02F4DAE4214
:1036F00008BF01251DD02E4DAE4208BF022518D0AF
:103700002C4DAE4208BF032513D02B4DAE4208BF4F
:1037100004250ED0294DAE4208BF052509D0284DFD
:10372000AE4208BF062504D0264DAE420CBF072589
:10373000082505FA00F0384343F82100E0431168FA
:10374000DAF804500140ED0348BF2143116051688D
:10375000DAF804500140AD0348BF2143516091683D
:10376000DAF804500140ED0248BF21439160D1686E
:103770000140DAF80400800248BF2143D1600EF115
:10378000010EBEF10F0F7FF635AFBDE8F18F81B0AE
:1037900002B90904FFE7816101B07047003C0140B4
:1037A0000838014044380240000002400004024052
:1037B00000080240000C02400010024000140240C9
:1037C00000180240001C0240884201D001207047CE
:1037D00000207047800870477047024641F205504C
:1037E00004E012F8011B01EB4011081811780029C0
:1037F000F7D120F00040704770B504460D461646DC
:10380000FC20FDF71FFB210008BF0C4C290008BF5E
:103810000B4D310008BF0B4EC4600561466100F1DD
:103820001801016000220021036843F82120491C8F
:103830001329F9DB4260826070BD0000C9370000C7
:10384000D5370000D93700002DE9F84306460D466C
:103850009046002750A40FF2481926B9532200F0D1
:1038600035F8AFF3008025B9542200F02FF8AFF3FC
:1038700000803169284688471322B0FBF2F902FB29
:103880001909306850F8294005E02168F268284697
:10389000904790B1A468002CF7D10C20FDF7D2FA24
:1038A000040010D02560306850F82910A16040F85D
:1038B00029407068401C706000E06768C4F80480AC
:1038C000B068401CB0603846BDE8F28349462046E7
:1038D00001F056B9F8B505000E4600BF0FF2B80466
:1038E0002FA705D176223946FFF7F1FFAFF300800D
:1038F0002EB977223946FFF7EAFFAFF30080296936
:103900003046884713222B68B0FBF2F2132101FBEB
:10391000120053F8204000E0A4683CB12168EA6836
:10392000304690470028F7D16068F2BD0020F2BD14
:103930002DE9F84F06000D4691460FF25C080FF294
:10394000600B04D1A32200F023F8AFF3008025B967
:10395000A42200F01DF8AFF30080D6F808A00027DD
:10396000306850F827400CE020684A46211DA847DF
:10397000B068824504D0AA2200F00AF8AFF30080B4
:10398000A468002CF0D17F1C132FE9DBBDE8F18F78
:103990005946404601F0F4B87465737400000000A5
:1039A000443A5C526F626F636F6E436F64655C3163
:1039B000395F6672616D655C73696D706C656C69A9
:1039C000625C5372635C686173682E630000000080
:1039D0000FF209010120FFF706BD000001A000F071
:1039E00002B9000063616E207278206F6B0D0A00CF
:1039F00010B50146AE4C20464022FEF731FD632251
:103A0000AC49204601F046F900F006F82068C1688C
:103A100041F01001C16010BD10B5A74C206830B94D
:103A20000022A6490FF20120FFF7E6FE2060BDE864
:103A300010400FF2451200BF0FF2AC21A8A0A9E080
:103A40001CB59F4C04F168026946204600F068F8F6
:103A5000009804F1680100F079F862212046FFF730
:103A6000B9FD0020606613BD2DE9FC410546904E6E
:103A700028683168934C884223D10021009104F1D9
:103A80008408026800F045F88F4801F04CF9404680
:103A900004F1E70110F8012B0AB98842FAD3884FE4
:103AA000411E384601F0A2FB387808B10121E167D8
:103AB00062214046FFF78EFD63224146304601F009
:103AC000E9F82868814D2968884220D100210091B9
:103AD00002687F4E00F01DF8284601F024F93146B7
:103AE00004F1180001F082FB207E10B10121C4F81E
:103AF000801000F0A7F862213046FFF76BFD3146D9
:103B0000284602B0BDE8F041632201F0C3B8BDE829
:103B1000F381009241680091009A01684068704703
:103B2000F8B50C466CA61546314601F085FB00271A
:103B300048B10D2F07DA45F827003146002001F083
:103B40007BFB7F1CF4E727600020F2BD38B50D46F3
:103B5000594A296804461068FFF7BCFE020005D0E8
:103B60001268294620469047002032BD62A000F02E
:103B70003AF8012032BD000080B500BF62A000F01D
:103B800032F84D480FF2B1010068BDE8084000224C
:103B9000FFF7CEBE2DE9F8430446894616460820B5
:103BA000FDF750F907462046FEF718FA401CFDF7CE
:103BB00049F980464846FEF711FA401CFDF742F9E4
:103BC00005462146404601F011FB4946284601F0D2
:103BD0000DFB3A4641463E607D6037480068BDE8CF
:103BE000F843FFF731BE0EB430B50246304C03AB9C
:103BF000652104F1400001F043FB04F13005202170
:103C0000697282B204F14001204601F007F810B158
:103C10000A2001F053FB286890F835100129FAD1E9
:103C200030BC5DF810FB000080B501F05BFB00B11B
:103C30000120C0B202BD000009684A684FEA0001D5
:103C400033A0D0E710B51F4CD4F88000F0B10020AD
:103C50001F490A5C0D2A02BF0A1853780A2B08D1A3
:103C6000492806DA927E0A2A02BF0A18D37E0D2B53
:103C70000DD0401C6328ECDB0020C4F880006221DA
:103C800004F11800BDE81040FFF7A4BC10BD0844C3
:103C9000811C18222046FEF7D3FB0E482168816064
:103CA000E16801602169416001F042FBE4E7000046
:103CB00050040020EC030020F4050020DB37000056
:103CC000F8040020680300201C0800209C07002046
:103CD00090050020540600202C200D0A0000000052
:103CE00068656C700000000073686F7720636D6416
:103CF0002075736167650000636D64206E6F7420CA
:103D000066696E640D0A000068656C703A0D0A0001
:103D100025733A2025730D0A0000000080B50B487A
:103D2000016841F400710160026842F4806202603F
:103D3000016841F480710160032000F038FC00202C
:103D400001F05CFB01F07AFB002002BD003C024068
:103D50002DE9F84386B068461421FFF73BFC0024A8
:103D60006D486E4D6E4E6F4FDFF8BC81DFF8BC9131
:103D7000059440F25554016841F010010160026859
:103D800002F010020592002205990592036843F0A3
:103D900004030360016801F0040100F0D8F843F067
:103DA00020030360016801F0200100F0D0F843F027
:103DB00080030360016801F0800100F0C8F843F05F
:103DC00001030360016801F0010100F0C0F843F055
:103DD00002030360016801F0020105910599059253
:103DE0002146036843F008030360006800F0080000
:103DF000059005982846FFF7CAFC012201213046AC
:103E0000FFF7C5FC01224FF460413846FFF7BFFCC5
:103E100001224FF410414046FFF7B9FC00224FF455
:103E2000C2414846FFF7B3FC552000F095F83846EC
:103E3000FFF7D4FB00F097F83846FFF7CFFB42F2CC
:103E4000060000F089F83046FFF7C8FB0120022188
:103E5000019002910391009469462846FFF7BEFB4A
:103E600000F081F82846FFF7B9FB012002210090FD
:103E700001900290039130466946FFF7AFFB08209E
:103E800000F072F82A48FFF7A9FB032000F06CF855
:103E90004046FFF7A3FB4FF4604000F050F838466F
:103EA0006946FFF79BFB4FF4104000F048F840468E
:103EB0006946FFF793FB4FF4C64000F04DF84046CB
:103EC000FFF78CFB4FF480700090012100200191DE
:103ED0000290039069464846FFF780FB4FF48050FC
:103EE000002100900191029100F025F8012101913B
:103EF00002914FF400500021009000F01BF84FF4A5
:103F0000804001210090019102200021029000F0E8
:103F100011F807B0BDE8F0833038024000140240C9
:103F2000000802400010024000040240000C024061
:103F300000000240039148466946FFF74FBB01214C
:103F40000090019102200321029003917047059196
:103F500005990592036870470090002102200191A5
:103F600002906946704720200090002101200191B5
:103F7000029069467047000080B5002000901B4801
:103F8000016841F400110160026802F4001200921D
:103F90000022009900920021036843F4800303602B
:103FA000006800F48000009000980C2000F00CFBEA
:103FB0000C2000F026FB002200210E2000F004FB64
:103FC0000E2000F01EFB002200213A2000F0FCFA37
:103FD0003A2000F016FB00220021462000F0F4FAFF
:103FE000BDE80240462000F00CBB00BF3038024064
:103FF00080B5DFF82403DFF8241300F01BF800B1CC
:104000000AE001BD80B5DFF81803DFF8181300F0EF
:1040100011F800B100E001BDBDE80140FFF7D8BADA
:1040200080B5DFF80403DFF8041300F003F800B1F3
:10403000F2E701BD01604FF4E13141600021816090
:10404000C16001610C21416100218161C16100F009
:10405000A9BD80B5DFF8D802DFF8D812FFF7EAFF74
:1040600000B1D9E701BD80B5DFF8CC02DFF8CC1292
:10407000FFF7E0FF00B1CFE701BD2DE9F04786B0C3
:10408000044668461421FFF7A5FA2368A34DAC48FF
:10409000AC4AAB424FF4406120D100230593146930
:1040A00044F4002414610024136903F400230593ED
:1040B000059B0594156845F004051560126802F02B
:1040C00004020592059A00910122022101910292B7
:1040D00003210391082204926946B3E0914DDFF871
:1040E00068A2AB4237D100210591136943F48013D4
:1040F00013610023116901F480110591059905935D
:10410000146844F004041460116801F0040105917E
:10411000059905930223146844F00804146011689B
:1041200001F0080105914FF4805205990092012198
:104130000291032208210491019303926946FFF73B
:104140004DFA0420009002210191012002900321E8
:104150000391082073E075487C4D834205F1840685
:104160004FF480784FF480674FF000694AD1002007
:1041700005905169DFF8D8A141F01001516100218B
:10418000506900F010000590059805914FF4C0614A
:10419000136843F001031360106800F0010000F0A1
:1041A000A8F8072003910490019269466948FFF737
:1041B00015FA0AF178002860C5F804904020A8603C
:1041C00000F09FF808B1FFF703FA25630020AC6305
:1041D000C5F860A0C5F86490A866E8662F676867B0
:1041E000A867C5F880003060C5F87C8005F16000E4
:1041F00001F040F908B1FFF7EBF905F160006063E9
:10420000746173E04B4883421FD10020059011690F
:1042100041F4003111610021106900F40030059073
:10422000059805916021136843F008031360106836
:1042300000F0080000F05DF801920391072004905F
:1042400069465046FFF7CAF950E03C4883424DD1D9
:10425000002005901369DFF800A143F48023136167
:104260000023106900F480200590059805931068DC
:1042700040F002001060106800F002000590059800
:104280000091022001210190029103200721039057
:10429000049169463148FFF7A1F90020C6F83CA017
:1042A000C6F840907064B064F764C6F85880306512
:1042B0007065F065306605F1C008404601F0DAF837
:1042C00008B1FFF785F905F590750AF13000C4F8DB
:1042D0003480286074674020A860C5F8049000F01E
:1042E00010F808B1FFF774F92563AC6306B0BDE8B8
:1042F000F087059002220598009101200290032189
:1043000070470020E8602F616861A861E861286259
:104310006862284601F0AEB81C070020004C00403F
:104320005C070020005000409C0700200010014066
:10433000DC070020004400401C080020004800402A
:104340000008024030380240000C0240E801002022
:104350004064024000000240286002400004024025
:1043600081B0006801680168CA0703D541686FF031
:10437000010202600268910703D541686FF00202F2
:1043800002600268510703D541686FF004020260C1
:104390000268110703D5C1686FF00802026001B01E
:1043A0007047000018B500BF75A16D4CD1E900231E
:1043B00091B00AA8CDE900231C21FFF70BF902A850
:1043C0002021FFF707F96748206040F28F606060A6
:1043D0000020A06040F2CF70E060002020616061AA
:1043E000A061204601F05DFA08B1FFF7F1F800F096
:1043F00063F808B1FFF7ECF8602000210A900B91F8
:104400000C910D910E910F91109100220AA9204656
:1044100001F05CFA08B1FFF7DBF804220AA9204694
:1044200001F054FA08B1FFF7D3F800204FF400511F
:10443000029003900490059006900791099002A9BC
:10444000204601F07AFC08B1FFF7C2F8204600F0E0
:1044500060F812B010BD0000D0B586B002A81021DF
:10446000FFF7B8F8DFF8000147A4D4E900673F4C34
:104470002060472060600020A06042F20F70E06082
:104480000020CDE900672061A061204601F0F2F92B
:1044900008B1FFF79DF84FF48050029002A9204622
:1044A00001F088FA08B1FFF793F800F005F808B1B9
:1044B000FFF78EF806B0D0BD00200090019069464D
:1044C000204601F01BBC81B00068264988420BD110
:1044D000002127480091026842F001020260006852
:1044E00000F001000090009801B0704781B00068B2
:1044F0001D4988420BD100211E480091026842F0FC
:1045000002020260006800F002000090009801B012
:10451000704710B586B0044601A81421FFF75AF879
:104520002168104A914219D10020009002221248BD
:10453000016841F0100101604FF42061006800F053
:1045400010000090009801910020039004900292C6
:104550000120059001A90948FFF740F806B010BDF9
:104560009C0600200000014000040040DC06002002
:1045700044380240403802403038024000100240C7
:10458000000000000000000000000000000000002B
:104590000901020081B002D42948815405E029486C
:1045A00002F00F02104400F8041C01B07047264AC4
:1045B00013684FF6FF0100020B4000F4E06018435F
:1045C000224908431060704738B51F4B1C68C4F37C
:1045D0000223C3F10704052C28BF04241D1D072D49
:1045E00034BF0023DB1E012505FA04F4641E2140BC
:1045F000994005FA03F35B1E1A401143BDE83440AD
:10460000C6E7010007D4012200F01F01104B8A40C9
:10461000400943F82020704710B5401EB0F1807F5C
:1046200001D3012010BD0B4C60600F214FF0FF3013
:10463000FFF7AEFF0022A26007202060002010BD1F
:1046400000E400E018ED00E00CED00E00000FA05E9
:1046500000E100E010E000E010B50C46FFF7C8F9FB
:104660004FEA0400FEF778FE01F092FBFFF7B0F985
:10467000BDE810400BA0FFF7B6BA10B5074C206894
:1046800018B1FFF7DDF900212160054C206818B151
:10469000FEF7B8FE0021216010BD0000E4030020F9
:1046A0002806002073696D706C656C696220696E04
:1046B000697420646F6E650D0A0000002DE9F843EF
:1046C000040017D02078B54EC10741D5B06800F07E
:1046D0000C00042807D0B06800F00C0008280BD1AB
:1046E0007068410208D53168880331D560680028B8
:1046F00040F0B68001204FE16068B0F5803F06D001
:10470000B0F5A02F316807D141F4802131603068C5
:1047100040F48030306006E021F48031316032684E
:1047200022F480223260606868B1FEF709FE054617
:104730003168880300F19480FEF702FE401B652873
:10474000F6D3032028E1FEF7FBFD05463068810320
:1047500040F18680FEF7F4FD401B6528F6D3F0E7B4
:10476000FEF7EEFD401B022840F2A780E9E7E06873
:1047700070B101213960FEF7E3FD0546306881071D
:1047800000F1CB80FEF7DCFD401B0228F6D9D8E70C
:104790003860FEF7D5FD05463068810763D5FEF722
:1047A000CFFD401B0228F7D9CBE70860FEF7C8FD14
:1047B0000546706F810775D5FEF7C2FD401B0228C4
:1047C000F7D9BEE70528306F06D140F00400306706
:1047D000306F40F0010005E0400840003067306F66
:1047E00020F00400306741F28938A06868B1FEF714
:1047F000A7FD8146306F810700F19C80FEF7A0FD88
:10480000A0EB09004045F5D39BE7FEF799FD8146F3
:10481000306F810740F18E80FEF792FDA0EB09001A
:104820004045F5D38DE7FEF78BFD401B022840F293
:10483000968086E7FEF784FD001B022840F2A780E1
:104840007FE700203866FEF77BFD04463068810173
:1048500040F1A180FEF774FD001B0228F6D970E735
:1048600020784F4F81071BD5B06810F00C0F09D08E
:10487000B06800F00C0008287FF479AF706841023E
:104880003FF575AF3168880703D5E06801287FF4EC
:1048900031AF3168206921F0F80141EAC00131608F
:1048A000217808070DD560693E4900283FF47DAFA7
:1048B00001220A60FEF744FD0546706F81077FF50F
:1048C0004FAF217848073AD5306C0025C1000AD493
:1048D00000950125306C40F080503064306C00F061
:1048E000805000900098DFF8C080D8F80010C8050C
:1048F0001BD4D8F8000040F48070C8F80000FEF720
:104900001FFD8146D8F80010C8050ED4FEF718FD2B
:10491000A0EB09000228F5D913E73068216920F0DF
:10492000F80040EAC1003060BAE7A06801287FF4CF
:1049300049AF4DE71DB1306C20F080503064A06964
:1049400048B3B16801F00C0108293FF4D3AE022846
:104950007FF477AF00203866FEF7F2FC054630683A
:1049600081013FF560AFE169206AA26A0143606A94
:10497000520841EA8011521EE06A41EA024141EACE
:104980000061716001213966FEF7DAFC0446306887
:1049900081017FF54FAF0020BDE8F283003802406F
:1049A00000004742800E4742007000402DE9F84366
:1049B00004000F4677D0494E306800F00F00B8422F
:1049C00002D200F072F86ED12068454D810712D5F1
:1049D000400703D5A86840F4E050A8602178080794
:1049E00003D5A86840F46040A860A968A06821F0D9
:1049F000F0010143A9602078C1074CD56068012807
:104A000002D129688A0305E0022818BF032803D1D0
:104A100029688A0103D446E02A68910743D5A9682A
:104A2000890840EA8100A86041F28939FEF788FCD4
:104A30008046A868616800F00C00B0EB810F2AD0B6
:104A4000FEF77EFCA0EB08004845F2D3032020E0EF
:104A50002078410705D5A968E06821F4E0510143B9
:104A6000A9602078010706D5A868216920F4604074
:104A700040EAC100A86000F03DF8AA681949C2F3F5
:104A80000312895C184AC8401060002000F0B6FC90
:104A90000020BDE8F283306800F00F008742D7D2D3
:104AA00000F003F8D4D00120F3E73770316801F04B
:104AB0000F01B94270470C480C4A006813680C4952
:104AC000C3F3822206E00848084A006813680849D0
:104AD000C3F34232895CC84070470000003C02408A
:104AE000003802404C6100000C00002008380240F1
:104AF0009862000018B5124C606800F00C000428A1
:104B000002D0082802D019E00E4812BD0023226806
:104B1000206841022068C0F388104CBF09490A4947
:104B200002F03F02A1FB0001FDF7A0FA2168C1F3EA
:104B30000141491C4900B0FBF1F012BD024812BD11
:104B40000438024000127A000024F40000B500BFCF
:104B5000130096469446103928BFA0E80C50FAD8A6
:104B60005FEA417C28BF0CC048BF40F8042BC9074E
:104B700028BF20F8022B48BF00F8012B00BD000021
:104B800000B583B00091019202906A460449182052
:104B9000ABBE002801D1FCF7B3FA03B000BD00BFE3
:104BA0001010020038B5040001D1012032BD00F020
:104BB00022F808B900F023F800F013F800F024F808
:104BC000FFE7416100F001F832BD2068C16841F49F
:104BD0000051C1600020686020206870A87000202B
:104BE0007047242068702068C16821F40051C160BA
:104BF000204600F038BA04F1380568787047002183
:104C000029702046FFF739BA2068016921F49041E4
:104C100001612068416921F02A01704770B504469E
:104C200004F1380513466878202831D109B11800FD
:104C300001D1012070BD2878012829D001222A70D5
:104C40002162A384E3840020686021206870226BC5
:104C50000FF28520D063226B0FF2A9201064226B23
:104C60000FF2E920D0640020266B30652068021D19
:104C7000206B00F072FC21686FF04000086000209B
:104C800028702068416941F080014161002070BDB9
:104C9000022070BD38B5044604F138051346A878E3
:104CA00020283ED109B1180001D1012032BD287859
:104CB000012836D001222A70A162A38500206860F5
:104CC0002220A870626B0FF24520D063626B0FF256
:104CD00075201064626B0FF27520D0640020626B47
:104CE00010650A462068011D606B00F036FC00204C
:104CF00000902068016800914268009200220099AB
:104D00002A70C26842F48072C2602068416941F032
:104D1000010141612068416941F040014161002089
:104D200032BD022032BD38B5044604F13905206891
:104D300041692A78212A09D1090607D500F017F818
:104D400008B100F03FFC204600F025F920684169D9
:104D50006A78222A09D1490607D500F00EF808B171
:104D600000F030FC204600F01FF9002032BD416900
:104D700021F080014161206B7047416921F04001C1
:104D80004161606B704738B5044625682968EA6858
:104D90006B6911F00F0007D188065DD590065BD5D1
:104DA0002046BDE8324013E1D80702D412F4907FC8
:104DB00052D0C80705D5D00503D5E06B40F00100FF
:104DC000E063480705D5D80703D5E06B40F0020043
:104DD000E063880705D5D80703D5E06B40F00400F1
:104DE000E063080705D5D80703D5E06B40F008005D
:104DF000E063E06B00286ED0890604D5900644BFBE
:104E0000204600F0E5F820684069E16B0A0701D40C
:104E100040061BD5204600F0C7F8206841694A06C5
:104E20000FD5FFF7AAFF60B10FF299110165606B12
:104E300000F00DFC00284ED0606B016DBDE83440E1
:104E400008472046BDE83240FFF78ABA2046FFF700
:104E500087FA0020E06331BD08062CD510062AD55C
:104E600094F83900212836D1A168206AB1F5805F15
:104E70000DD10188C1F308016960206918B9216A60
:104E8000881C206207E0206A411C216203E0411C6B
:104E9000216200786860E08C401EE08480B2D0B966
:104EA0002068C16821F08001C1602068C16841F0BC
:104EB0004001C16031BD48060DD550060BD5E868EC
:104EC00020F04000E860202184F839102046BDE839
:104ED000324000F0A3BF31BD816B00680268D3058A
:104EE00044BF084600F09ABF0020C88408684269A1
:104EF00022F0800242610868C16841F04001C1604F
:104F000070470000806B00F08ABF0000816B006872
:104F10000268D30513D40020C8850868C26822F44B
:104F20008072C26008684269520852004261086893
:104F3000426922F040024261202081F83A0008468E
:104F400000F06EBF806B00F06CBF000038B5846B62
:104F50002068406904F139052978212906D1000625
:104F600004D50020E084204600F015F82068406950
:104F70006978222906D1400604D50020E085204624
:104F800000F012F8E06B40F01000E0632046BDE84E
:104F90003240FFF7E5B90168CA6822F0C002CA6072
:104FA000202180F8391070470168CA6822F4907295
:104FB000CA6001684A69520852004A61202180F89B
:104FC0003A107047806B0021C185C184FFF7C8B9D2
:104FD00080B590F83A10222943D18268B2F5805FFB
:104FE00014D1826A016941B903685968C1F30801A3
:104FF0001180826A911C816218E001684B6803F09D
:10500000FF031380816A4A1C82620FE00169002954
:10501000816A04D14A1C82620268536805E04A1C16
:1050200082620268536803F07F030B70C18D491ED2
:10503000C18589B299B90168CA6822F02002CA60A4
:105040000168CA6822F48072CA6001684A6952081D
:1050500052004A61202180F83A1000F0E1FE002061
:1050600002BD022002BD2DE9F047044664252168F7
:105070000A69E06822F4405202430A611926CA68AC
:1050800048480240A0680243206902436069024325
:10509000E0690243CA604A69A06922F4407202438F
:1050A0004A61E3694048414AB3F5004F3BD1914220
:1050B00018BF814210D1FFF706FD0746FFF703FD39
:1050C0008046FFF700FD8146FFF7FDFC06FB09F96E
:1050D0008246FFF7F8FC0FE0FFF7EDFC0746FFF70D
:1050E000EAFC8046FFF7E7FC8146FFF7E4FC06FB9D
:1050F00009F98246FFF7DFFC6168490000F058F8C3
:10510000DB003233B3FBF5F35B00B2FBF5F203F4E3
:10511000F87300F05BF8ED0032356420B5FBF0F079
:1051200000F0070037E0914218BF81420ED1FFF72F
:10513000CAFC0746FFF7C7FC8046FFF7C4FC814660
:10514000FFF7C1FC8246FFF7BEFC0DE0FFF7B3FCA2
:105150000746FFF7B0FC8046FFF7ADFC8146FFF73E
:10516000AAFC8246FFF7A7FC06FB09F961688900E3
:1051700000F01EF81B013233B3FBF5F3B2FBF5F27E
:1051800003F0F00300F022F82D0132356420B5FB66
:10519000F0F000F00F002168C3188B60BDE8F087C5
:1051A00000000000F369FFFF0014014000100140FF
:1051B0007743B7FBF1F206FB08F7B7FBF1F3B9FB56
:1051C000F1F7B7FBF5F705FB1733704703EB021355
:1051D00006FB0AF74643B7FBF1F2B6FBF1F0642198
:1051E000B0FBF1F005FB1025704700005FEA000CF2
:1051F00080EA01039B0715D1830706D011F8013B14
:1052000000F8013BB3B18307F8D10A68B2F101336A
:1052100023EA020313F0803F02BF40F8042B51F849
:10522000042FF3E711F8013B00F8013B13B111F82B
:10523000013BF9E76046704738B504000D4609D0D8
:10524000204600F0EFFD0444207848B90B4A0021C5
:10525000116032BD09480468002CF1D1002032BD34
:105260002946204600F0EFFD2118087810B10022F1
:1052700001F8012B2046014A116032BDCC08002004
:1052800008B584B00023039300290EBF0193019059
:10529000491E0291009301A904AB074878441830D5
:1052A000FBF75EFF019909B100220A70002858BF80
:1052B000039805B000BD00BF4FBEFFFF38B50446E0
:1052C000FEF73EF814F1010F054602D004490878B4
:1052D0000419FEF735F8401BA042FAD331BD00BFD8
:1052E0000000002081EA00039B0717D1820707D046
:1052F00010F8012B11F8013BBAB19A42F6D014E034
:1053000002680B689A42A2F1013301BF934313F084
:10531000803F50F8042F51F8043FF3D010F8012BD0
:1053200011F8013B0AB19A42F8D0D01A7047000038
:10533000FEB5DFF8A840DFF8AC10A068DFF8A06089
:1053400000F092FD00F09AFDDFF89C20DFF89C3021
:10535000FCF7A4FF00F0B6FD6061DFF89410206850
:1053600000F082FD316800F0E1FD05466068DFF87D
:105370008010E56000F078FD716800F0D7FD06460A
:10538000A16B2661284600F0DAFD00F077FD00F001
:105390001EF800F097FD0746E16B2763304600F0EA
:1053A000CEFD00F06BFD00F012F800F08BFD6063A5
:1053B0000246A563E6633946684600F0DCFDDDE998
:1053C000000100F0C5FD00F07DFD2064F7BDDFF8B1
:1053D0002420DFF82430FDF72FBA00005406002007
:1053E000C40800200000344344174154FB21094005
:1053F00000007A447B14AE47E17A743F38B50D4D16
:105400000D4A297804464FF47A70B0FBF1F1106828
:10541000B0FBF1F0FFF700F950B9102C08D20022D0
:1054200021464FF0FF30FFF7CFF8AC60002032BDCF
:10543000012032BD000000200C00002081B00020BF
:10544000009000220A48416841F48041416041686F
:1054500001F48041009100990092036843F0805369
:105460000360006800F080500090009801B0704721
:10547000403802407CB50446FDF762FF06460CB991
:10548000012076BD04F134050020287002206870E8
:1054900000F0BDF921680868C20720D5FDF750FF6C
:1054A000801B0628F6D320202862032015E0B0F5E3
:1054B000005F09D1032E42D8DFE806F00C0A0C0287
:1054C000B1F1C07F3BD105E0022E03D9F61E36D1E3
:1054D000C80134D5402028620120687076BD0A6872
:1054E000DFF81803024060680243A0680243E068E6
:1054F00002432069024360690243A0690243E069F4
:105500000243206A0243606A042803D1E36A206BE5
:1055100003431A430A6023685A69606AD208042860
:1055200040EAC2020BD1A66AE16A324339B1A069EE
:105530000028BCD1002E18BF022EC9D0C0D35A619A
:10554000204600F07FF9A96A3F228A40826000204D
:10555000286201206870002076BDF8B5044604F189
:10556000340600253078776A012801D10220F2BD87
:10557000012030707078012820D1022070703562CF
:10558000204600F04FF9B06A3F218140B9602068A1
:10559000016841F0160101602068416941F0800115
:1055A0004161F06820B12068016841F008010160A4
:1055B0002068026842F00102026001E035700225B5
:1055C0002846F2BDF8B5064606F13404656AFDF7D3
:1055D000B7FE07466078022805D0802121620020AE
:1055E00020700120F2BD3068016821F016010160D1
:1055F0003068416921F080014161E168002904BF00
:105600006069002804D03068016821F00801016059
:105610003068026852085200026030680168CA07A8
:105620000BD5FDF78DFEC01B0628F6D32020206287
:105630000020207003206070F2BDA06A3F218140ED
:10564000A96000202070012060700020F2BD90F859
:105650003510022903D080224265012070470521C0
:1056600080F8351000680168490849000160002091
:1056700070472DE9FC41044604F1340600206049DE
:1056800000904FF41650776A0A683D68B2FBF0F854
:10569000B06A082100F0B7F80ED0206802685307FE
:1056A0000AD5036823F004030360B06A8140B9603F
:1056B000306A40F001003062B06A25FA00F1C90793
:1056C0000BD521684A69110607D5012101FA00F0BE
:1056D000B860306A40F002003062042100F092F8B5
:1056E00008D021680A68930704D5B860306A40F092
:1056F00004003062102100F085F81BD021680A6890
:10570000130717D5B860206801684A0307D50068F9
:1057100001030BD5716969B1204688470AE0016829
:10572000CA0503D4026822F008020260F16809B1D8
:1057300020468847B06A202100F065F841D02168F2
:105740000A68D3063DD5B86020687178052920D154
:10575000026822F0160202602068416921F080018F
:105760004161F168002904BF7069002804D02068F5
:10577000016821F0080101603F22B06A8240BA60EE
:1057800000F04BF8F169002935D02046BDE8FC4116
:10579000084701684A0307D5006801030DD4316941
:1057A00079B1204688470CE00168CA0505D4026833
:1057B00022F01002026000F030F8B16809B1204612
:1057C0008847306AB8B1316AC8070ED505207070B5
:1057D00000F01DF820680099491C8845009102D30B
:1057E0000168CA07F7D400F018F8B16919B120466A
:1057F000BDE8FC410847BDE8F38100003F8010F0A0
:105800000C000020B06A01FA00F0054270472068E1
:10581000016849084900016070470020307001208C
:105820007070704738B50468256825F480252560B8
:1058300063608068402802D1A260E16031BDA16050
:10584000E26031BD81B0016801F0FF02103A182317
:10585000B2FBF3F205A39B5CC365890A8902042AA3
:1058600028BF091D8165084601B070470006101663
:105870000006101638B5040001D1012032BD00F039
:1058800021F818B900F01AF8FEF730FEFFE7022001
:105890006870211D206800F0EAF80120687000207F
:1058A00032BD38B5040001D1012032BD00F00AF844
:1058B00018B900F003F8FEF706FEE8E700212970AA
:1058C0002046704704F13C056878704770B500F0D9
:1058D00065F801D1022070BD00F067F832B1042AEA
:1058E00017D0082A28D00C2A39D04AE03068294637
:1058F00000F008F93068816941F0080100F04AF8C9
:1059000021F00401816131688A69286902438A6152
:1059100037E03068294600F01EF93068816941F4AB
:10592000006100F037F821F4806100F033F82A6953
:1059300041EA0221816124E03068294600F03BF908
:105940003068C16941F0080100F020F821F004013D
:10595000C1613168CA6928690243CA6111E03068CF
:10596000294600F05AF93068C16941F4006100F03D
:105970000DF821F4806100F009F82A6941EA02215A
:10598000C161012060700020207070BDC16130686D
:10599000C16970478161306881697047064606F1C8
:1059A0003C040D4620780128704701212170022017
:1059B0006070704738B500F04FF801D1022032BD59
:1059C00001222270022060702A68DFF89402936836
:1059D000034093600868020018BF10282DD02028CB
:1059E00018BF302829D0402823D0502816D060284E
:1059F00018D0702803D0B0F5005F07D021E000F088
:105A000026F82868816841F0770105E000F01FF86A
:105A10002868816841F48041816012E000F013F849
:105A200050210BE0CA684968286800F040F96021FD
:105A300004E000F008F8402100E00146286800F08A
:105A400048F90FE00000CA684968286820E1CB687F
:105A50004A688968286844E1054605F13C042078D5
:105A600001287047012060700020207032BDF0B521
:105A70007C4C05687C4B7D4E7D4FDFF8F8C1A04221
:105A800018BFB0F1804F07D0604518BFB84203D0AF
:105A9000B04218BF98420DD14A6825F070051543F1
:105AA000A04218BFB0F1804F17D060451CBFB8426C
:105AB000B04212D098421CBF6F4A90420DD06F4A3C
:105AC00090421CBF6E4A904207D06E4A90421FBF60
:105AD0006D4A90426D4A904203D1CA6825F44075E0
