:10000000C8130020A9830000B9810000BB81000053
:10001000BD810000BF810000C18100000000000020
:10002000000000000000000000000000C38100008C
:10003000C581000000000000C7810000C9810000E8
:10004000CD830000D1830000D5830000D983000058
:10005000DD830000E1830000E5830000E983000008
:10006000ED830000F1830000F5830000F9830000B8
:10007000CD810000FD830000D381000001840000D9
:1000800005840000098400000D8400001184000034
:10009000D981000015840000198400001D8400002F
:1000A0002184000025840000298400002D840000A4
:1000B0003184000035840000398400003D84000054
:1000C0004184000045840000498400004D84000004
:1000D00051840000DF810000E5810000EB81000019
:1000E00055840000598400005D8400006184000094
:1000F00065840000698400006D8400007184000044
:1001000075840000798400007D84000081840000F3
:1001100085840000898400008D84000091840000A3
:100120009584000099840000FF8100009D840000F8
:10013000A1840000A5840000A9840000AD84000013
:10014000B1840000B5840000B9840000BD840000C3
:10015000C1840000C584000005820000C98400003D
:10016000CD840000D1840000D5840000D984000033
:10017000DD840000E1840000E58400000000000050
:10018000E9840000ED84000081B000F5E0700268B1
:10019000914203D343681A44914202D380680028F5
:1001A000F5D101B07047DFF80017086890B94FF437
:1001B000805048604FF480324FF0FF308A60C86052
:1001C00008610420DFF8E426DFF8E4364861C2F86D
:1001D000BC010B600120704701F1080313F0070F09
:1001E0000EBF0023C3F1080303F007031944D21A1A
:1001F0008161C26042F001034B60091D28238B50CE
:10020000DFF8A4160A69C26170472DE9FC4B074666
:1002100001F1080010F0070F0FBF8946C0F1080078
:1002200000F0070001EB000902F1080111F0070FCF
:1002300006D002F10800C0F1080000F007000244F7
:100240001546A5EB090009EB0306A0EB030B43F0F1
:100250000303C9F80430AE4228BF00F051FF2879EB
:10026000C10758BF00F04CFFBBF1100F38BF00F0C2
:1002700047FFB869854207D1F8685844F860BE6105
:1002800040F00100706050E1786985420AD1B86899
:100290008344C7F808B07E614BF00100706046F8F7
:1002A0000BB042E1686800F00301012940F0AB8027
:1002B000C008C0000190C0081F2839D8AC68D5F824
:1002C0000C800090454508BF00F01AFFA54208BF0A
:1002D00000F016FF68680099C008C000B0EBC10FBD
:1002E00018BF00F00DFF009907F1280000EBC100D6
:1002F000844206D03A699442C0F08080E168A94205
:100300007CD1A04506D100983968012282409143F2
:10031000396075E0804506D0386980456ED3D8F8DD
:100320000800A8426AD1C4F80C80C8F8084067E009
:10033000EC68D5F81880AC420CD0A86839698842BE
:1003400022D3C168A94204BFA168A9421CD1C460DC
:10035000A0601BE005F11402146834B905F1100225
:1003600014689CB101E01A46146804F1140319687A
:10037000002902BF04F1100318680028F3D139697D
:100380008A4228BF106001D200F0BAFEB8F1000F17
:1003900036D0E96907F5987000EB81000268954254
:1003A00008D10460A4B9E8697968012282409143C8
:1003B000796025E03869804508D3D8F81000A84254
:1003C00014BFC8F81440C8F8104001E000F098FECF
:1003D000B4B139698C4211D3C4F81880286928B1A6
:1003E000884226BF2061846100F08AFE686938B1C6
:1003F0003969884202D36061846101E000F080FEC7
:1004000001982D18834468684008400068604BF0EC
:10041000010171604FEADB0446F80BB01F2C23D8B2
:1004200007F1280000EBC4084546BBF1100F38BFA8
:1004300000F066FE386820FA04F1C90705D40121EE
:1004400001FA04F404433C6007E0D8F80800396975
:1004500088422CBF054600F053FEC8F80860EE60E5
:10046000B560C6F80C8060E05FEA1B2008BF002181
:1004700023D0B0F5803F28BF1F211ED2A0F5807287
:10048000120C02F008029040A0F58051090C01F016
:1004900004018840A0F580431B0CC2F10E0203F05A
:1004A0000203521AD21A984002EBD032D01D2BFA16
:1004B00000F101F0010101EB420107F5987202EB36
:1004C0008100F1610022726132617A6822FA01F3DF
:1004D000DB0707D4012303FA01F1114379600660B9
:1004E000B0611DE002681F291DBF4908C1F1190153
:1004F0000BFA01F1594600E002465068C008C000FE
:10050000584516D002F11003CC0F03EB84034900C9
:1005100018680028F0D13869834204D31E60B261A4
:10052000F660B66001E000F0EBFD09F10800BDE8FF
:10053000F68B396990688A4228BF8842F3D3C66037
:100540009660B060F2600020B061EEE72DE9FE4FEA
:1005500004468B46A5692E46904699463146FFF7DC
:1005600013FEA8F128020168406801EB000AAAF115
:10057000270111F007000EBF0021C1F1080101F0B1
:1005800007010AEB0100A0F12F0706F110008742D6
:1005900038BF374607F118000190594600200090F7
:1005A0002046FFF719FE07F1080010F0070F18BFEB
:1005B00000F0A6FD1B20786007F1080104F5E0704B
:1005C00090E80C5081E80C50C0F800B0C0F80480EE
:1005D000C0F80C9081600198009900E0001D07228E
:1005E0004260491C00F108025245F7D30129D8BFE7
:1005F00000F086FDB74200F09580BF1B301D311D15
:10060000C05940084000C85147F0010171604FEAED
:10061000D70BF751BBF11F0F21D804EBCB0000F132
:100620002805A846102F38BF00F06AFD206820FA80
:100630000BF1C90705D4012101FA0BF10843206031
:1006400006E0A868216988422CBF804600F058FD6A
:10065000AE60C8F80C60C6F80880F5606FE0380A34
:1006600008BF002123D0B0F5803F28BF1F211ED234
:10067000A0F58072120C02F008029040A0F58051A3
:10068000090C01F004018840A0F580431B0CC2F165
:100690000E0203F00203521AD21A984002EBD03233
:1006A000D01D27FA00F101F0010101EB420104EB3A
:1006B0008102002302F59870F16173613361626811
:1006C00022FA01F3DB0707D4012303FA01F11143F6
:1006D00061600660B0611DE002681F291DBF490806
:1006E000C1F1190107FA01F1394600E002465068EC
:1006F000C008C000B84216D002F11003C80F03EBC7
:100700008003490018680028F0D12069834204D38F
:100710001E60B261F660B56011E003B0BDE8F04F55
:1007200000F0EEBC0BE0216990688A4228BF884245
:10073000F3D3C6609560B060F2600020B06103B092
:10074000BDE8F08F2DE9F041574F054638688846DF
:1007500008B9FFF728FDB96801EB08002F30491EE2
:1007600020EA010188457DD205F5D876B06828B128
:10077000326889188A4275D2884273D300F0D0FC5F
:1007800001001CBF0C6811F1010F6BD030682018FC
:1007900005F5D87230605368984238BF18467060CB
:1007A000A86960BB286908B1814200D22961316122
:1007B00074610020F06105F12802386868624FF02A
:1007C000FF3028620020D260926002F1080353617A
:1007D0001361801C10322028F5D33448854208BFAD
:1007E000A4F1280228D055F8040CC00805EBC0027B
:1007F000A2F108000A19121A283A01461CE005F570
:10080000E070024600E092687AB3136857683B4490
:100810009942F8D1137B1F0727D4AB691768BB42F5
:1008200023D3D2F804C06744BB421ED2A444C2F80A
:1008300004C0E868A96922182846FFF7CDFC1FE02C
:100840008068C0B103689342FAD1027B130712D4C7
:10085000026801604368E418446043462846BDE8E6
:10086000F041D2E40020BDE8F0812A69914238BF0E
:1008700029610A19E5E7002322462846FFF766FEAC
:10088000E8688045EED2A0EB0800A969E86001EBBA
:100890000802AA6140F00100506048F0030048607F
:1008A00001F10800BDE8F081740F0020140700205A
:1008B0006859883C2DE9F84F00258946090AC9F195
:1008C000000B08BF002323D0B1F5803F28BF1F23B2
:1008D0001ED2A1F58072120C02F008029140A1F51F
:1008E00080531B0C03F004039940A1F58044240CB1
:1008F000C2F10E0204F00204D21A121BA14002EB54
:10090000D132D11D29FA01F303F0010303EB4203B5
:10091000074607F5987858F8230030B31F2B0FBF10
:100920004C465C08C4F1190409FA04F4AC46594673
:1009300000E064004268D208D200A2EB09028A42B9
:1009400003D21100054600F06881426910304FEA79
:10095000D47B50F82B00002A1CBF8242944600280A
:10096000E7D18B466046B0BBBDBB012000FA03F364
:100970005B00584203437868034000F04D815842C1
:1009800003405B1E180B00F01000C340590901F032
:100990000801CB409A0802F00402D3405C0804F03E
:1009A00002040818E3401018C3F34006201830442E
:1009B000F3401B1858F823000DE008464168C908A9
:1009C000C900A1EB090159453CBF8B4605460169A9
:1009D0000029F2D140690028F0D1002D00F01C81DF
:1009E000B868A0EB0900834580F01681386985421C
:1009F000C0F010816868C008C00009EB0B01884294
:100A000018BF00F07DFB05EB0906B54280F00281BE
:100A1000EC68D5F818A0AC420CD0A86839698842B7
:100A200022D3C168A94204BFA168A9421CD1C460F5
:100A3000A0601BE005F11402146834B905F110023E
:100A400014689CB101E01A46146804F11403196893
:100A5000002902BF04F1100318680028F3D1396996
:100A60008A4228BF106001D200F04AFBBAF1000FA1
:100A700036D0E96908EB81000268954209D104602B
:100A8000200014D1E869796801228240914379609D
:100A900026E03869824508D3DAF81000A84214BF6E
:100AA000CAF81440CAF8104001E000F029FBBCB1BC
:100AB0003869844212D3C4F818A0286930B1396962
:100AC000884226BF2061846100F01AFB686938B152
:100AD0003969884202D36061846101E000F010FB53
:100AE000BBF1100F0CD2D94449F003006860291DF6
:100AF000281D50F8090040F0010041F8090088E085
:100B000049F0030068604BF0010070604FEADB00C1
:100B100046F80BB01F281DD807EBC00101F12804CF
:100B2000396821FA00F2D207A34605D4012202FA5D
:100B300000F00843386006E0A068396988422CBF9D
:100B4000834600F0DDFAA660CBF80C60C6F808B06A
:100B5000F4605EE05FEA1B2008BF002123D0B0F5FF
:100B6000803F28BF1F211ED2A0F58072120C02F018
:100B700008029040A0F58051090C01F00401884062
:100B8000A0F580431B0CC2F10E0203F00203521ABF
:100B9000D21A984002EBD032D01D2BFA00F101F0AE
:100BA000010101EB4201F16100227261326108EB47
:100BB00081007A6822FA01F3DB0707D4012303FAE4
:100BC00001F1114379600660B0611DE002681F29E0
:100BD0001DBF4908C1F119010BFA01F1594600E0A6
:100BE00002465068C008C000584518D002F11003F2
:100BF000CC0F03EB8403490018680028F0D1386952
:100C0000834204D31E60B261F660B66001E000F07A
:100C100077FA13E100F074FA0DE18B46A3E6396927
:100C200090688A4228BF8842F1D3C6609660B0605F
:100C3000F2600020B061ECE72DE9F84F06468846E7
:100C4000716848420140491E080B00F01000C14085
:100C50004A0902F00802D1408B0803F00403D9408E
:100C60004D0805F002051018E9401818C1F34004BA
:100C7000281806F5987A2044E14009185AF82110FE
:100C80004868C008C0000D46A0EB080909E001460D
:100C90004868C008C000A0EB080048453CBF81463A
:100CA0000D4608690028F2D149690029F0D1306960
:100CB0008542C0F0BE806868C00808EB090BC00020
:100CC000584518BF00F01CFA05EB0800854200905B
:100CD00080F0AF80EF68AC69AF420CD0A868316992
:100CE000884222D3C168A94204BFB968A9421CD175
:100CF000C760B8601BE005F11402176837B905F149
:100D0000100217689FB101E01A46176807F1140333
:100D10001968002902BF07F1100318680028F3D1F1
:100D200031698A4228BF106001D200F0E9F9002C35
:100D300031D0E9690AEB81000268954208D1076069
:100D40008FB9E8697168012282409143716022E0A5
:100D50003069844205D32069A84214BF67612761C6
:100D600001E000F0CDF9B7B13069874211D3BC6121
:100D7000286930B13169884226BF3861876100F047
:100D8000BFF9686938B13169884202D378618761F7
:100D900001E000F0B5F9B9F1100F0BD24BF00300F0
:100DA0006860291D281D50F80B0040F0010041F833
:100DB0000B003DE048F00301696049F00100291D86
:100DC00041F80800009840F80990D6F808804FEAEA
:100DD000D80BBBF1200F28BF00F092F9B8F1000F3B
:100DE00022D006EBCB00776900F12804A246B8F1C7
:100DF000100F38BF00F084F9306820FA0BF1C907F2
:100E000005D4012101FA0BF10843306006E0A06827
:100E1000316988422CBF824600F072F9A760CAF897
:100E20000C70C7F808A0FC60C6F8089000987061C4
:100E300004E000F065F90020BDE8F28F05F108003C
:100E4000BDE8F28F2DE9FE4F0546AFF30080F52D8A
:100E5000DFF8A86280F004810B2D31BF10250B351F
:100E6000ED08ED003068EC08E04010F0030F46D0CC
:100E7000C04300F00100041906F1280000EBC4088B
:100E8000E700D8F808506868C008C000B84218BF2A
:100E900000F036F9D5F80890454508BF00F030F964
:100EA0004D4508BF00F02CF96868C008C000B84282
:100EB00018BF00F025F9C84507D13168012000FAB4
:100EC00004F421EA040434600DE03069814508D35C
:100ED000D9F80C00A84204D1C8F80890C9F80C80D1
:100EE00001E000F00DF947F003006860291D281D9E
:100EF00005F10804C05940F00100C851F8E0B1689C
:100F0000A94280F0BE80002800F0A1804FF00108C7
:100F100008FA04F1490000FA04F4484201430C4085
:100F200060420440641E200B00F01000C4406109C0
:100F300001F00801CC40A20802F00402D44063088A
:100F400003F002030818DC401018C4F34007181817
:100F50003818FC40241806F1280000EBC40AE7000A
:100F6000DAF80890D9F80400C008C000B84218BFE9
:100F700000F0C6F8D9F808B0D14508BF00F0C0F8B5
:100F8000D94508BF00F0BCF8D9F80400C008C0007B
:100F9000B84218BF00F0B4F8DA4506D1316808FA53
:100FA00004F421EA040434600DE03069834508D379
:100FB000DBF80C00484504D1CAF808B0CBF80CA007
:100FC00001E000F09DF845F00300C9F804007F1B24
:100FD00009F1040147F00100485109EB05000190B7
:100FE000C751B4684FEAD40ABAF1200F28BF00F005
:100FF00087F834B3CDF800A006F12800756900EB3E
:10100000CA0AD346102C38BF00F07AF8316800982D
:1010100021FA00F2D30704D408FA00F00843306044
:1010200007E0DAF80800316988422CBF834600F0F7
:1010300067F8CAF80850CBF80C50C5F808B0C5F8E6
:101040000CA0B76009F108040198706150E0706865
:10105000C0B329463046FFF7EFFD040011D047E04A
:1010600015F1400F28BF4FF0FF350AD20B35ED08C0
:101070007068ED0028B129463046FFF71BFC0400DC
:1010800036D1B068A8421DD3411B726910290AD31A
:1010900050197061B16041F001034360415045F067
:1010A000030555600BE00021B1607161131D40F034
:1010B00003015160111D095841F00101195002F15D
:1010C000080415E0F06885420DD2401BB169F0605C
:1010D0004A19B26140F00100506045F003054D60CF
:1010E00001F1080404E029463046FFF72BFB0446D3
:1010F000AFF300802046FFF722BB0000140700205A
:10110000012000F023B88268521C8260426832B12C
:101110000268531C036011704168491E41607047AA
:101120000749086808B1002070470648C008C00099
:1011300008600549C908C900091A0160704700BF65
:10114000C00F0020CF130020C81B002080B5AFF3D4
:101150000080024A11001820ABBEFBE72600020007
:101160002DE9F0439FB000BF66A6269CDFF8E48A15
:1011700002918DF83B4000210B914FF0FF37044660
:1011800091461D460AE019F8011B0298A047002865
:10119000029000F0A4800B98401C0B9099F800007E
:1011A00050B12528EFD1002000210590069107902D
:1011B000089109900A9103E00B98A7E041F0010122
:1011C00019F8010F2028F9D023280CD02B2804D09F
:1011D0002D2805D0302809D083E041F00201EFE747
:1011E00041F00401ECE741F00801E9E741F01001AA
:1011F000E6E700200D900AE00D98404505DA00EB87
:10120000800302EB4302303A0D9209F1010999F88B
:101210000020A2F130000A28EED399F800002E2811
:1012200018BF0C9726D119F8010F2A2808D1286871
:10123000286009F1010950F8042B28600C9219E08C
:101240002D280CBF19F8010B002000220C920BE096
:1012500040B90C9A424505DA02EB820203EB4203E5
:10126000303B0C9309F1010999F80030A3F13002E9
:101270000A2AEDD3ADF83810304699F8001000F086
:1012800081FE08B119F8010B8DF83A009DF83A007B
:10129000682804BF99F80010682903D162208DF8EE
:1012A0003A0008E06C2804BF99F800006C2804D1CB
:1012B00071218DF83A1009F1010910A804902A460D
:1012C00019F8013B6946204600F060F838B910AAC9
:1012D0006946204600F08CF900287FF55FAF38465C
:1012E00014E02A2885D12A682A6052F8040B2A6063
:1012F00000280D9003D540420D9041F0040109F102
:1013000001098AE7686A6C747A4C00001FB0BDE876
:10131000F083622820D0682811D06A2803D06C2876
:1013200027D0712825D10868C01D20F0070008606B
:10133000D0E9002308300860194610467047002A9B
:101340000A680A60106803D0121D0A6000B217E034
:10135000121D0A6080B217E0002A0A680A6010684D
:1013600003D0121D0A6040B20AE0121D0A60C0B22A
:101370000AE0002A0A680A60106803D0121D0A6099
:10138000C1177047121D0A600021704770B51C46D6
:101390000D46B4F125002E69114600F017811C3866
:1013A0006AD0001F022867D9133843D0093863D0A8
:1013B000801E16D0401E1ED0401E02285CD9001F81
:1013C00019D0401F00F08380401E33D0401E00F033
:1013D000CD80C01E00F0D880801E2BD0C01E29D02A
:1013E000FAE06869421C6A610A680A6052F8043BC4
:1013F0000A603354FAE095F83A000122FFF789FFBA
:10140000C5E900010023994204DA6869411C696159
:101410002D210DE0288F810704D56869411C696181
:101420002B2105E0C00722D56869411C6961202194
:1014300031541CE095F83A000022FFF76AFFC5E935
:10144000000195F83800010711D5D5E900230020E7
:10145000834208BF82420AD044F02000782806D197
:10146000686930213154401C411C69613454214663
:1014700068693044E86083E00868C01D20F0070018
:101480000860D0E9002308300860C5E90023D5E9E9
:101490000001C80F04D06869411C69612D210DE06D
:1014A000288F810704D56869411C69612B2105E0FB
:1014B000C00704D56869411C6961202131546869FD
:1014C0003044E8602146284600F0C4F98EE005F17A
:1014D0003A02507820B14FF0FF340FF648205EE01A
:1014E0001078622808D0682824D06A2812D06C2886
:1014F0002ED071280ED02BE00A680A6052F8040B37
:101500000A6020B94FF0FF340FF6302047E0E96A57
:1015100001706BE00A680A6052F8040B0A6020B997
:101520004FF0FF340FF6142039E0EA6AD317C0E910
:1015300000235BE00A680A6052F8040B0A6020B9D5
:101540004FF0FF340FF6F41029E0E96A01804DE016
:101550000A680A6052F8040B0A6020B94FF0FF34A1
:101560000FF6D8101BE0E96A01603FE00A680A60E4
:1015700052F8040B0A600021C5E90001EE607821F1
:10158000284600F0BBF831E00868086050F8044BCA
:101590000860EC603CB94FF0FF340FF6B81000F073
:1015A000FDFC201A70BD2E6B002E04D5204600F0E5
:1015B00015FD044608E032460021204600F02AFDD1
:1015C000002814BF041B3446AC610FE06869411C5D
:1015D00069612521315409E06969481C6861252247
:1015E0007254210002D0411C69613454002070BD46
:1015F0002DE9FC410F460646796B7869BC6A091AE9
:10160000386A091AB869091A786A091AF869091A48
:1016100097F838000C1B410790460FD42021002C6E
:101620008DF800100ADD254601236A46394630460A
:1016300000F060FC00285DD16D1EF5D17B6942464B
:101640003946304600F056FC002853D130208DF842
:1016500000003D6A002D09DD01236A463946304607
:1016600000F048FC002845D16D1EF5D1BB69FA6831
:101670003946304600F03EFC00283BD130208DF842
:1016800000007D6A002D08DD01236A463946304698
:1016900000F030FC70BB6D1EF6D1F868B969FB69CB
:1016A00042183946304600F025FC18BB30208DF832
:1016B0000000BD6A002D08DD01236A463946304628
:1016C00000F018FCB0B96D1EF6D197F8380041074C
:1016D0000DD52021002C8DF8001008DD01236A466D
:1016E0003946304600F006FC20B9641EF6D10020D1
:1016F000BDE8F6814FF0FF30BDE8F6812DE9FC47EB
:1017000007468A463E69BAF16F0F08BF082405D024
:101710004AF02001782914BF0A2410243C25D7E977
:101720000023BAF1640F18BFBAF1690F90469946C9
:1017300006D100218B4203DAD8F1000869EB490990
:101740000020814508BF80451FD1386BE8B9082CBF
:101750004CD197F83800010748D530203B2586F852
:101760003B0043E000280ED597F8380000F0140045
:10177000102808D17A6B7869121A386A121A511A2D
:101780000029C8BF3962BDE8F3878DF800A0404644
:1017900049462246E31700F069FC3032D0B26D1E94
:1017A0003A28019504DB9DF80000A0F151018A1848
:1017B0007255404649462246E31700F057FC8046E2
:1017C00089460020814508BF804503D0F86871191B
:1017D0008842DCD3082C09D197F83800010705D5D9
:1017E000715D302902D06D1E30207055C5F13C016D
:1017F000B9617019F860386B8142B3DA411A396205
:101800004FF6EF70398F01403987BDE8F3872DE936
:10181000D04306460F4614464FF00008DFF83894D0
:1018200012E0E00707D542464B463046394600F005
:1018300035FD06460F464046494642464B4600F0B7
:101840002DFD641080468946002CEAD13046394689
:10185000BDE8D0832DE9F34F054641F020048DB05B
:10186000D5E90089612C02AE09D0286B002848BF59
:10187000062003D408BF672C01D101202863D5E9D5
:10188000002358004015401C0ED119030CD0032032
:10189000A8619DF8380061381A2802D20FF2D06191
:1018A00011E00FF2D0610EE058004015401C0FD13E
:1018B00019030DD10320A8619DF8380061381A285A
:1018C00014D30FF2B861E868032200F0B9FDD3E148
:1018D000194621F00043B3F5801F10460DD20027B2
:1018E000BB4208BFBA42019703D111E00FF28861F1
:1018F000E9E701AA00F0F8FD0AE0DFF8607307EB02
:101900001352DFF85C3301921940DFF85833194362
:10191000C5E90001612C0ED1E86830210170811CFD
:10192000E9609DF8381061290CBF78215821417079
:101930006869801C6861D5E900AB2BF0004300208A
:101940002AF00002834204BF8242002300F05A8141
:10195000612C40F0A980286B00284CBF2120401C3E
:1019600000904046009F7F1C49460022002300F063
:10197000F3FDD94601988DF8082038BF89F0004959
:10198000001F0190002FD0460DF1090040F349815E
:1019900040F2FF71DFF8D0B20C910646404649464E
:1019A0000022002300F0F0FD80F03A814800400D55
:1019B00000F11C0210D0002A0EDD0C98824205DBDB
:1019C00009F0004040EA0B01002013E0A448084061
:1019D00040EA025140460DE029F00043002028F083
:1019E0000002834208BF82420FBF40461C2240468D
:1019F00000F0E2FD8046894600F07CFEFF1F002FCC
:101A0000044609DD00F094FE02460B464046494676
:101A100000F0A0FE80468946F01D072104E004F096
:101A20000F0200F8012D2411002C01DD491EF6D50E
:101A3000491E5CBF002200F8012DF9D5ECE0002022
:101A4000194602AA0A4400E05B1E12F80149491E29
:101A50008442F9D00F2804D10DF10900425C521CD8
:101A60004254002904D50198001D02AE5B1C019070
:101A7000591E12D49DF838007218147804F13008F9
:101A80005FFA88F4392CC4BFA0F13A04A044491E7F
:101A900002F80189F1D58DF83800286B002840F153
:101AA000B080591E2963ACE040464946002200231D
:101AB00000F052FD019938BF89F0004947F2975074
:101AC00041436A4A91FBF2F20192D2F1070204DD2E
:101AD00040464946FFF79BFE0AE052420020644917
:101AE000FFF795FE02460B464046494600F0A4FE2D
:101AF0008046662C286BDFF87CB106BF019F0A3751
:101B000006273F18142FC8BF142730208DF808006F
:101B100089460DF1090000E03046002F34DD06460D
:101B20004046494600F0ACFF01460A4606F108036C
:101B300004200A26B2FBF6F606EB860EA2EB4E0256
:101B4000303203F8012C0A22B6FBF2F202EB820ECD
:101B5000A6EB4E063036401E03F8026DE9D1083F71
:101B6000002F03F10806D7DD084600F09DFF02466E
:101B70000B464046494600F0EDFD00225B4600F072
:101B80008DFB80468946CBE70DF10901401A0DF126
:101B9000090604E00199491E401E0191761C317826
:101BA0003029F7D0662C02D10199491C03E0652C3D
:101BB0000CBF012100212B6BCB189842B8BF431EEC
:101BC000002B1ED4834204DAF05C3528A8BF3920EC
:101BD00000DA30201946721E02EB010800E05B1E9D
:101BE00018F80199491E8145F9D0392802D1705C55
:101BF000401C7054002904D50198401C16465B1CFB
:101C00000190019800B200901BB29DF83810324646
:101C1000284600F035F82FE0C61D002F3FF7BEAE76
:101C200030460DF10901401A009903468842C8BFA9
:101C30000B46002B0DF109063FF52FAF8342BFF68F
:101C4000FEAE0DF10900C05C07287FF7F8AE0F204B
:101C5000F6E60000CBCCCC0C0000244002FCFFFFD9
:101C6000FFFF0F800000E03F0000F07FA086010032
:101C70000000F03F84D797410FB0BDE8F08F00001F
:101C80002DE9FC43054683B01F46D5F83080002F70
:101C9000164602DC5FF00107B9A68946BDF930405F
:101CA00049F02000662808BF641C17D0672840F060
:101CB000888014F1040FC0F28A80444580F2878046
:101CC00095F83800641C010702D44745B8BFB846F0
:101CD00020B2B8EB000848BF4FF000080FFA84F9B3
:101CE000E868A969B9F1000F27DC4A1C3023435486
:101CF000B8F1000F03DC95F83800010703D5E86858
:101D00002E218154521C18EB090FB8BFC8F10004F2
:101D100024B260426862A044B845AA61B8BF474691
:101D2000E868AB693FB2EF613A463146184400F0CB
:101D300087FBA8EB0700A862C5E022B297420844DF
:101D400019DA3A46314600F07BFBA8693818A9EB4E
:101D50000707B8F1000FA8616F6203DC95F838102F
:101D60000A0705D5E9682E220A54E869401CE86193
:101D7000C5F82880A7E0314600F062FBA8693F1B48
:101D8000B8F1000F484403DC95F838100A0703D572
:101D9000E9682E220A54401CA86138B28045E868E0
:101DA000AB69B8BF47463AB206EB0901184400F0E8
:101DB00047FBA8693FB23818A8EB0707A8616F6214
:101DC00081E0B9F1610F16D14FF0700918E0474575
:101DD00004DA95F838100A0758BFB846B8F1010878
:101DE00048BF4FF00008B9F1670F14BF4FF0450925
:101DF0004FF0650904E0B9F1410F08BF4FF05009F9
:101E0000A969EB68481CA861B8F1000F16F8012B0E
:101E10005A5403DC95F838100A0719D5EA68431CB0
:101E2000AB612E211154B8F1000F11DD7F1E38B2C5
:101E30008045E868B8BF47463AB23146184400F0DA
:101E4000FFFAA8693FB23818A861A8EB07006862DA
:101E5000E868A9690844002C80F8009003D42B217D
:101E60004170811C03E02D2141706442811C0020DF
:101E70006A460AE023460A2493FBF4F404EB840642
:101E8000A3EB460302F8013B401C24B2002CF1DC1A
:101E9000012806DC49F02002652A04BF302201F83F
:101EA000012B48B9302001F8010B07E0401E1DF856
:101EB0000020303201F8012B0028F7DCE868AA691D
:101EC0001044091AE96195F8380000F01400102850
:101ED0000DD16969A8694118686A4118E869411813
:101EE000A86A4118686B8142BCBF411A296205B0DB
:101EF000BDE8F083F8B505460E4617461C4600209F
:101F000074B117F8011BB068A847B06030B1F06A2F
:101F1000401CF0620020641EF3D1F2BD4FF0FF3090
:101F2000F2BD00007072696E74665F733A20256EB0
:101F300020646973616C6C6F776564007072696EA0
:101F400074663A2062616420256E20617267756D47
:101F5000656E74007072696E74665F733A206261B8
:101F60006420257320617267756D656E74000000D2
:101F70006E616E004E414E00696E6600494E46002D
:101F8000300000000278C9B28A421AB11CBF10F8B2
:101F9000012FF9E718BF00207047000080B500B995
:101FA00006A005490B681BB122220021984701E0D9
:101FB000FFF7A6F8222002BDC40F0020636F6E73E6
:101FC000747261696E742068616E646C65723A2027
:101FD000626164206D6573736167650000F10103E0
:101FE000810704D010F8011B89B18107FAD102687A
:101FF000B2F10131914311F0803F04BF50F8042F3A
:10200000F6E710F8011B11B110F8011BFBE7C01A2D
:1020100070470000C9B2830706D0521E22D310F8C1
:10202000013B9942F7D11FE0083A13D302F10402B1
:1020300041EA012141EA014150F8043B121F21BF4E
:102040004B40A3F1013C2CEA030C1CF0803FF3D081
:10205000C9B2001F083210F8013B521E28BF91EA96
:10206000030FF8D818BF0120401E7047B3BBD9B189
:10207000B2F5803F7DD2022A1ED98C46B1FBF2F127
:1020800002FB11C31B0443EA1043B3FBF2FC02FB47
:102090001C3380B240EA0343B3FBF2F002FB103280
:1020A00040EA0C4000237047022A05D98446B0FB61
:1020B000F2F002FB10C270474AB105D100F00102F4
:1020C00049085FEA3000704700220023704700F0A3
:1020D000F9BC0B000200002100207047904271EB18
:1020E000030CF6D3B3F5803F2FD2F0B5B3FA83F7E4
:1020F000B1FA81F4A7F10F0E3D1B5340CEF120063B
:1021000002FA0EF2F3415340B5F10F0746D80F3CE7
:102110002C444140C4F12006A040F1414140B1FBB4
:10212000F3F603FB1611A2FB0645001BA94102D2E0
:10213000761E8018594180EA010221FA0EF362FAF4
:102140000EF200215A403046F0BD30B4B1FBF3FC32
:1021500003FB1C11A2FB0C45001BA94103D2ACF1EF
:10216000010C8018594130BC02460B4660460021E4
:102170007047B2F1807F65D3F0B5B2FA82F7B1FA59
:1021800081F4C7F10F063D1B22FA06F307F1110E89
:10219000F24120355A40B5F10F07B8D94140C4F19A
:1021A0002006A040F1414140B1FBF3FC03FB1C11B0
:1021B000A2FB0C45001BA94103D2BCF1010C801805
:1021C00059410F2F12D30F3FC90341EA5041B1FBD0
:1021D000F3F603FB1611A2FB0645D4EBC030A94170
:1021E00002D2761E8018594146EACC3C07B34140E2
:1021F000C7F12006B840F1414140B1FBF3F603FBC3
:102200001611A2FB0645001BA94102D2761E8018BA
:10221000594180EA010221FA0EF3C7F1200462FA63
:102220000EF20CFA07F05A402CFA04F13043F0BDDC
:1022300080EA010221FA0EF3002162FA0EF26046F2
:102240005A40F0BD8C46B1FBF2F102FB11C31B02F8
:1022500043EA1063B3FBF2FC02FB1C331B024CEAA3
:10226000002043EA1063B3FBF2FC02FB1C331B02A9
:102270004CEA002043EA1063B3FBF2FC02FB1C3380
:102280001B024CEA002043EA1063B3FBF2FC02FBA2
:102290001C324CEA0020002370470000B0B581EAF0
:1022A000030C0CF0004C40F2FF7515EA11541DBFF1
:1022B00015EA1357AC42AF4239E0E41923EA45531B
:1022C00043F48013C90241F0004141EA505EC70265
:1022D0001100A7FB020200284FF00000EEFB0120D6
:1022E0004FF00001E3FB072118BF42F00102401844
:1022F00000214941E3FB0E01A4F580640F0302D2E3
:1023000052004041494154F101046CDD470872F12B
:10231000004250F1000051EB0451A1F580115CBF67
:1023200041EA0C01B0BD4CEA05510020B0BD05EA00
:102330001357AC4214BFAF4241E050EA410E1CBFFC
:1023400052EA430E02E061460020B0BD24423C4404
:102350001BD15FEA070EF6D0090302BF0146002039
:10236000AEF1140EB1FA81F7AEEB070401FA07FEE5
:102370000C37C7F1200100FA07F7C8404EEA000EFB
:1023800023EA455343F48013A2E733F00043B3FA42
:1023900083F704BFB2FA82FE77440B3FE41BB7F128
:1023A000200E2FBF02FA0EF3BB40C7F1200E22FA17
:1023B0000EFE38BF43EA0E03BA40641C82E750EABF
:1023C000410E14BF52EA430E6FF000014FF40017A4
:1023D00017EB430F8ABF194617EB410FB5E74CEADD
:1023E00005510020B0BDD4F10104B4F120070FDA8B
:1023F000C4F12007520828BF42F0010210FA07F585
:1024000001FA07F7E1BF2A43E0403843E1400FE01B
:10241000352C98DCC7F1200452EA400220FA07F27A
:1024200018BF42F0010231FA07F0A1400A4300212F
:1024300072F1004250F1000051EB0C01B0BD000000
:1024400062B38B0708D0521E11F8013B00F8013B24
:1024500000F024808B07F6D1830740F0208000BF76
:10246000103A07D330B4B1E83810103AA0E8381069
:10247000F9D230BC530724BFB1E80810A0E8081017
:1024800044BF51F8043B40F8043BD20724BF31F865
:10249000022B20F8022B44BF0B7803707047121FE9
:1024A00017D35B0009D151F8043B20F8023B1B0C09
:1024B000121F20F8023BF6D20BE051F8043B00F863
:1024C000013B1B0A20F8023B1B0C121F00F8013BCA
:1024D000F3D238BF121D521E24BF11F8013B00F881
:1024E000013BF8D87047000010B5144600F002F820
:1024F000226010BDC1F30A5343B14A0012F5001F18
:1025000028D2A3F2FE32A1EB0251704750EA410CEF
:1025100020D001F0004C31EA0C01B1FA81F204BF85
:10252000B0FA80F3D2180B3AB2F120032CBF00FAB4
:1025300003F1914041EA0C013EBFC2F1200C20FAA8
:102540000CF319439040524240F2FD33D21A01EB92
:1025500003517047002270474FF4001C1CEB410FE1
:1025600094BF1CEB430F09E041EA030C50EA4C0C0A
:1025700052EA0C0C03D2994208BF9042704714BF34
:102580008B428242704700004FF4001C1CEB410F4D
:1025900094BF1CEB430F09E041EA030C50EA4C0CDA
:1025A00052EA0C0C03D28B4208BF8242704714BF20
:1025B0009942904270470000124254D440F2FF7C8E
:1025C0001CEA11530FD0634531D09B1863453CBFC3
:1025D00001EB0251704701F0004141EA0C5100202B
:1025E000AFF30080704750EA410320D001F0004C67
:1025F00091EA0C011CD0B1FA81F30B3B9A420DD940
:10260000D21A994051EA0C01C3F1200C20FA0CFCBB
:1026100061449840531C40F2FF7CD7E7914041EA67
:102620000C01C2F1200C20FA0CF3194390407047C2
:10263000B0FA80F31533202BE0D3202AEED3203AD2
:10264000203B9A4209D9D21A00FA03F141EA0C015F
:102650000020531C40F2FF7CB8E700FA02F141EA87
:102660000C0100207047524240F2FF7C1CEA1153DB
:102670000DD06345DBD0B2EB030C3CBFA1EB0251A4
:1026800070470CF1010221EA035141F4801150EA34
:10269000410CCCD001F0004C352A27DC30B481EA63
:1026A0000C01B2F1200309DAC2F12003044601FA59
:1026B00003F5D0402843D1409C400CE0C3F12002F8
:1026C000450020FA03F418BF44F0010421FA03F096
:1026D00091400C43002174F1004550F1000051EB92
:1026E0000C01244230BC7FF47BAF70476146002070
:1026F00076E70000C1F30A5340F2FE329B1A14DD64
:10270000D3F120034FEAE17208DDC90241EA5051DA
:1027100041F00040D84080185040704703F2E1304B
:1027200010B1D24382F00040704700207047000093
:10273000C11768B14840401AB0FA80F29040D21CEC
:10274000C907C2F5846241EA025202EBD02140057A
:102750007047000070B44FF0004591EA030F40F15C
:10276000BB816B40841A71EB030603D2001BB1419D
:10277000121973414FF4001C1CEB410F34BF7CEB6A
:10278000430442E00C0DA4EB1356352E4FDC45EA12
:10279000C323DB0A45EAC121C912B6F120050DDDCC
:1027A00063FA05F6EB4086EA0305124218BF45F0CE
:1027B0000105C01851F100010CD213E062FA06F5D0
:1027C000F2405540F3415A40B340F3405A4080181C
:1027D000594107D349085FEA30005FEA350528BF51
:1027E00045F0010501F58011420875F1004250F1F4
:1027F000000041EB04514E0016F5001F70BC38BFBD
:1028000070470020090D090570471CEB410F10D2DD
:1028100052EA43060BD0BCEB410F05D80C0DAB437D
:10282000661E342EB6DD02E0AB438018594170BC01
:10283000704770BC70470000F0B540F2FF7581EA48
:10284000030C0CF0004C15EA11541DBF15EA135788
:10285000AC42AF42E5E0BC41C1F31301C3F3130343
:10286000801A994143F4801304D2641E4000494108
:1028700080185941C90241EA5051B1FBF3F603FBFC
:102880001611A2FB0675D7EBC020A94102D2761E15
:1028900080185941C90241EA5051B1FBF3FE03FBD4
:1028A0001E11A2FB0E75D7EBC020A94103D2AEF1D9
:1028B000010E80185941890241EA9051760546EA95
:1028C0008E2EB1FBF3F603FB1611A2FB0675D7EBB8
:1028D0008020A94102D2761E80185941C90241EADE
:1028E00050514EEA060EB1FBF3F603FB1611A2FBA4
:1028F0000675D7EBC020A94102D2761E8018594137
:10290000C90241EA5051B1FBF3F703FB1711A2FBD7
:102910000735D3EBC020A94167F100070CBF004287
:1029200047F0010766F3D5274FEA1E31B80814F5C2
:10293000806412DDBD0775F1004250EB0E5051EB83
:10294000045111F5801F5CBF41EA0C01F0BD4CF051
:102950007F6141F0E0410020F0BDBD076D0840EA15
:102960000E5041F48011D4F10104B4F120060ADACA
:10297000C4F120060200E04001FA06F3E1401843EA
:10298000B24015430EE0342C13DCC6F1200445EAB6
:1029900040056D0820FA06F2154321FA06F0A14021
:1029A0000D43002175F1004250F1000051EB0C0184
:1029B000F0BD00205FEA0C01F0BDCFB992185B4179
:1029C000B3FA83F704BFB2FA82F6BF190B3FB7F12F
:1029D00020062FBF02FA06F3BB40C7F1200622FAF9
:1029E00006F638BF3343BA401CB1E419641E33E71E
:1029F0007F4231F00041B1FA81F404BFB0FA80F6B1
:102A0000A4190B3CB4F120062FBF00FA06F1A14037
:102A1000C4F1200620FA06F638BF3143A0403C1B23
:102A20001AE7AC421ABF05EA1357AF4212E050EA68
:102A300041061CBF52EA4306BFE750EA4107304651
:102A400061461CBF41EA0551F0BD52EA430C08BF84
:102A5000C143F0BD00204FF4001616EB410F98BFA4
:102A600016EB430F08BF16EB410F24BFC14305E02F
:102A700016EB430F0CBF61464CEA0551F0BD000058
:102A8000400D491840EA81200CD2490DA1F5806122
:102A9000491C40F0004005DBD1F11F0154BFC84084
:102AA000C017704700207047014648B1B0FA80F166
:102AB0008840C91CC1F58461090501EBD02140059E
:102AC000704700007047000070B44FF0004591EA75
:102AD000030F7FF547AE6B40841A71EB030604D2F7
:102AE0006E40001BB141121973414FF4001C1CEBE6
:102AF000410F34BF7CEB430682E00C0DA4EB135670
:102B0000362E7BDC012E45EAC32341DC43EA5253D7
:102B100012BFD20292025B08240545EAC12141EAB4
:102B20005051D2EBC020994125D407D1B0FA80F69C
:102B300010FA06F162D00020203608E0B1FA81F6E2
:102B4000B140C6F1200220FA02F21143B0404FEA30
:102B5000F474B4EB465434F001064FEA74040AD816
:102B6000D6F50016760D04F00044F04061FA06F246
:102B70005040F1404840C00A40EA415021F0004135
:102B800028BF5FEA500550F1000044EBD12135E049
:102B9000DB0A45EAC121C90AB6F120050EDD42EA89
:102BA0000242120CC5F1200603FA06F6EB4042EA97
:102BB00006056D42984161F100010DE062FA06F5EB
:102BC000F240554063FA06FC82EA0C02F3405A4098
:102BD0006D42904161EB030111F4801F05D1641E29
:102BE000620502D06D004041494121F48011430843
:102BF00075F1004350F1000041EB045170BC704787
:102C00001CEB410F15D223F0004352EA43060BD0D0
:102C10004FEA4C0CBCEB410F04D80C0D661E342E51
:102C2000B7DDEBE7801A994150EA410608BF002161
:102C3000E4E708BF1CEB430F28BF6FF00001DDE79E
:102C4000FEB5DFF86449DFF870192069DFF86469C0
:102C500000F016FD00F01EFDDFF86029DFF8603996
:102C6000FFF71CFB00F03AFDE061DFF85819A0689F
:102C700000F006FD316800F065FD0546E068DFF80C
:102C80004419656100F0FCFC716800F05BFD0646CC
:102C9000216CA661284600F05EFD00F0FBFC00F010
:102CA0001EF800F01BFD0746616CA763304600F07C
:102CB00052FD00F0EFFC00F012F800F00FFDE063B1
:102CC0000246256466643946684600F060FDDDE929
:102CD000000100F049FD00F001FDA064F7BDDFF840
:102CE000E828DFF8E838FFF7A7BD70B500F033FD3E
:102CF000DFF8C848DFF8D858DFF8D86807E000F0F8
:102D0000C9FC22462B46FFF7DFFE00F0E7FC314608
:102D100000F040FDF3D9DFF8C01800F04DFD09D2F6
:102D200000F0B8FC2246DFF8B438FFF7CDFE00F023
:102D3000D5FCF0E770BD70B5DFF86C28DFF8A0585F
:102D4000D169FFF7D2FF0446A86800F0BAF96968B4
:102D500000F044FD06462968AC6000F0CCF801465E
:102D60003046BDE8704000F0EDBC2DE9FE4F8246D4
:102D7000DFF83408DFF86C68C769894615461C46D9
:102D80005046FFF7D5FC80468B46B068394600F0C8
:102D9000D9FC00F06FF900F07DFC00F04BFF4246DB
:102DA0005B46FFF77BFA00F05CF880465046FFF781
:102DB000BFFCCDE900017068394600F0C3FC00F0AB
:102DC00059F900F067FC00F035FFDDE90023FFF75B
:102DD00065FA00F046F883465046FFF7A9FCCDE9B6
:102DE00000013068394600F0ADFC00F043F900F016
:102DF00051FC00F01FFFDDE90023FFF74FFA00F060
:102E000030F8064614B185F0004503E02846FFF788
:102E100092FF05462846DFF8D01700F0BBFC98BFAC
:102E2000DFF8C85705D9DFF8C81700F0C5FC38BF70
:102E30000D46584600F062F800F0FEFE07463046A8
:102E400000F05CF800F0F8FE0446404600F056F84A
:102E500000F0F2FE3A46214603B0BDE8F04F00F024
:102E6000F3BE81F0004100F039BC08B42DE9F04315
:102E7000DDE90767804615460C46284600F027FF27
:102E800000F038F88146284600F027FF00F032F8BD
:102E90000446384600F01BFF0146304600F09EFC19
:102EA0000546384600F019FF0146304600F096FC12
:102EB000214600F047FC0446484600F01FF805464E
:102EC00000F0FCF906462046214600F087FC31461A
:102ED00000F038FC00F008FF06462946204600F0C6
:102EE0001BFF02463146404600F051FCBDE8F003AE
:102EF0005DF808FB0146204600F070BC294600F052
:102F000021BC38B504460D461146286800F066FC21
:102F10000146296020466A68BDE8384000F037BCA9
:102F20002DE9FE4FDFF880668046B06D012840F045
:102F30009980F06E0C9F009201281D4601911FD1CF
:102F40000099384600F007FC04460199284600F035
:102F500002FC81464946204600F0DEFE30674946C5
:102F6000484600F03BFC81462046214600F036FCF6
:102F7000494600F0E7FB00F0B7FEB0670020F066BE
:102F80003846B46900F09DF877698246284639468C
:102F900000F0E1FB05462946504600F0BDFE8146A3
:102FA00000F08BF905465046514600F017FCFFF73C
:102FB000A5FF00F099FE356F8246284600F05AF8CA
:102FC00020F0004B584600F082FE514600F006FC0F
:102FD0008146584600F081FE514600F0FFFB20F08C
:102FE000004A284600F073FE8346284600F075FE2E
:102FF0000546B06F00F03EF88146594600F0EEFB02
:10300000019900F09FFB394600F0A5FB07464846B2
:1030100000F054F9009900F095FB00F052F83946A1
:1030200000F07AFE05465046DFF8C81500F0C4FBF4
:1030300038BF002707D35246002106F1840000F074
:10304000A9FE20F000470D9A3846114600F0A2FB79
:1030500098BF174682F000421046394600F09AFBAE
:1030600098BF174640462A46394603B0BDE8F04FA0
:1030700000F08DBB494600F06EBB70B5DFF82855F7
:103080000C46696900F067FB0646A969204600F016
:1030900062FB314600F040FEE969BDE8704024E67D
:1030A00070B504460D4610461E4600F00AF8044668
:1030B0003046294600F04FFB2146BDE8704000F045
:1030C0002BBE214600F047BB2DE9F84304460D46D0
:1030D00016461F4600F0DEFADFF81C25DFF81C3527
:1030E000FFF7DCF88046BE1B894606F13200FFF789
:1030F0001FFBDFF80C25DFF80C35FFF7CFF8424651
:103100004B46FFF7E1FCDFF80025DFF80035FFF75D
:10311000DBFC00F0E3FADFF8F814DFF8F82400F045
:1031200039FB98BF084604D9114600F045FB38BF6B
:103130001046DFF8E434DFF8E4145860204600F06D
:1031400029FB98BFDFF8D8240ED9DFF8D81400F097
:1031500021FB98BFDFF8D02406D97D1B40F22D104B
:103160008542A8BFDFF8C4241A60BDE8F1832DE9C9
:10317000F84FDFF834440A9F15468146A269084695
:103180001E46114600F0E7FA00904846616900F0DB
:10319000E2FA00F024F900998146084600F01EFB8F
:1031A000494600F0CFFA8146606F01280AD100211C
:1031B0006167484600F098FDA0673B4632462946C5
:1031C000FFF782FF484600F08FFDD4F878A0514603
:1031D00000F056FA01464FF07E5000F0BCFA4FF076
:1031E0007E5100F0D7FA814603D9002100F0E4FABD
:1031F00000D88946284600F017FE04465046DFF8FE
:10320000301400F0D9FA05D2701B00F00DFE00F06A
:10321000E3F816E0384600F007FEDFF8FC23D2F8AA
:1032200000B082465846494600F0B4FA0BD8BD4279
:1032300017D0781B00F0F8FD00F0CEF8594600F0EA
:103240001FFA21462AE05568284600F0B5FA0AD24E
:103250004FF07E50294600F07EFA494600F09AFA77
:1032600001D8D0461DE0BE421BD0304600F0DCFD48
:103270000446F01B00F0D8FD294600F001FA00F0EA
:10328000ABF80646204600F019F8FFF71AFF514642
:1032900000F058FA294600F0F3F9314600F052FAEE
:1032A0008046404600F0C8FC8742B8BF384602DB83
:1032B0000028D8BF0020BDE8F28F2846294600F03C
:1032C0008DBADFF8E4020121C16741654167C1663B
:1032D0008166016D0FF2683000F0A9BE2DE9F84F4C
:1032E000B14D84B0044688461F46A86992463946C7
:1032F00000F031FA81466869514600F02CFA00F07E
:103300006EF8064600F067F8314600F01BFA00F050
:10331000EBFC696D012959D1DFF81813DDF83C90F9
:1033200000F038FA45D8109EDDF838B002943B46DC
:10333000524641462046FFF7B3FE044600964B46F0
:103340005A4639465046FFF712FF0646DFF8E802B4
:103350000299019000975346424602A8FFF7E0FD0C
:10336000DDE90201B54F4FF07E52C7E90001394651
:103370006846FFF7C6FD304600F056FD014622467E
:1033800001A800F004FAD7E900010346DDE9014095
:1033900000910246214601A8FFF767FDDDE9010122
:1033A00000F0F0F8002300222146FFF7DEFC0020A9
:1033B0000EE000F001FA09D26968002300224846B5
:1033C000FFF7D3FCFFF77DFF012001E04FF0FF3056
:1033D00005B0BDE8F08F4846494600F0FFB9014608
:1033E00000F0FCB92DE9FE436F4EF16D81460020DF
:1033F000012953D1346D4C4550DAA9F101018C42B9
:103400006B4FDFF8A88125DA40F28A2564B94FF4C2
:10341000FA70029001950095D8F804307A68D8F8CF
:1034200000103868FFF75AFF346D3CB3F16F012983
:1034300024D14FF4FA700290019508F10400009530
:1034400050F8243058F82410381D50F8242057F82C
:10345000240011E0C82000219622029001910092E0
:1034600008EB840058F8243057F8242050F8041C46
:1034700007EB840454F8040CFFF730FFD6F88010F3
:10348000012803D1032902DA491C00E000210129A7
:10349000C6F8801002D1316D491C3165306D484548
:1034A0000DDB002030650023F2690021FFF75DFC91
:1034B0000020F065BDE8FE4366A000F0B8BDBDE8A1
:1034C000F78300002DE9FC47374DAF690646884673
:1034D000384600F040F96C6981462046314600F0DC
:1034E0003AF9FFF77CFF8246FFF775FF514600F07F
:1034F00029F900F0F9FB296E012920D14D4900F08E
:1035000049F920D841463046FFF7B7FD044640F25E
:103510005230009032237D2241463046FFF727FE8D
:1035200000F082FC01462246684600F030F9DDE9F1
:10353000000100F027F80023002221461BE0EA6981
:103540006968002316E000F037F919D20120686796
:1035500000202866384600F09DF8CDE9000120469D
:1035600000F098F802460B463EA000F060FD0023F4
:1035700000220021002002B0BDE8F047FFF7F5BBB4
:10358000BDE8F387C5E900010C4600F055BB0648CD
:1035900000210165C0F88010C1654165C167012146
:1035A0004167C1668166704718000020E40300206F
:1035B000C4000020980F00200000344344174154F9
:1035C000FB21094000007A447B14AE47E17A743F46
:1035D000FB2119C0DB0F4940DA0F49C0FB2119401C
:1035E000000000200C0000200100AF430000AF43AA
:1035F0000000AFC36F12833AF6285C8FC2F5C8BFD4
:10360000091B9E5E29CB603F5C8FC2F5285CE9BF39
:103610009A99193FCDCCCC3DBC0000200000A040C1
:103620000AD7A33D0100C03F8FC2F53D9A99993E4C
:103630000100003F0BD7A33C00002F44A00F002047
:103640000D0A417272697665642021212564200D7E
:103650000A000000454E4420545241434552202167
:10366000000000000D0A676F5F706F696E745F6124
:103670007272697665642025662C25660D0A000045
:1036800000EE100A00EE901A80EE200A10EE100AEA
:1036900070470000C0F3C75181B1FF2906D0C110A7
:1036A000400721F0E04101F16051704741020CBF39
:1036B00040F4E0016FF000410020704700F000414D
:1036C00000020AD0B0FA80FC00FA0CF001F160515F
:1036D000A1EB0C5101EBD0214005704701F00042F5
:1036E0008B1AA3F16051B1F5801F0ADBB1F17F6F36
:1036F0001FD242EAC102C10071F1004142EB507099
:1037000070470B15C3F10903212B10D2890241EA3E
:10371000905180020128494141F0004121FA03F013
:10372000C3F12003994071F10041504170471000EE
:1037300070476FF0000013EB103F5CBF000E42EAD1
:10374000C050704700EE100A00EE901A30EE200ACA
:1037500010EE100A704700EE100A00EE901A30EEDC
:10376000600A10EE100A704738B50C46014600F0AA
:1037700035F805462046214600F030F82946FFF787
:10378000E1FFFFF787FFBDE8344000F0E9BCC0E986
:10379000001270474FF0807C1CEB400F94BF1CEB75
:1037A000410F05E040EA010C1CEB0C0F01D28142F5
:1037B000704718BF884270474FF0807C1CEB400F69
:1037C00094BF1CEB410F05E040EA010C1CEB0C0F11
:1037D00001D28842704718BF8142704700EE100A3C
:1037E00000EE901A20EE200A10EE100A704700003A
:1037F000F8B52DED068B41EC180B154653EC182B44
:10380000DFF8A003DFF8A013FEF748FD41EC190B29
:1038100021F00041DFF89423DFF89433FEF79CFE9B
:103820006AD253EC192B9FEDB90B03F0004251EC17
:10383000100B0C46144353EC102B51EC190B234680
:10384000FFF742F9FEF756FF040051D0FEF770FF74
:103850000022D84BFEF722FD41EC190B53EC192B3B
:103860004FF0A040D449FEF719FD02460B4651EC3B
:10387000180BFEF76FFF06460F4653EC192B4FF05F
:10388000C040CE49FEF70AFD02460B463046394697
:10389000FEF760FF06460F4653EC192B4FF0005021
:1038A000C749FEF7FBFC02460B4630463946FEF799
:1038B00051FF06460F4653EC192B0020C149FEF775
:1038C000EDFC02460B4630463946FEF743FF0646FE
:1038D0000F4653EC192B4FF00050BB49FEF7DEFCAE
:1038E00002460B4630463946FEF734FF41EC180BD2
:1038F00004F003046519BAE051EC180B48004015B8
:10390000401C51EC180B0DD148004015401C02D151
:10391000090340F04181BDEC068B4FF0FF306FF0A2
:103920000041F4BD21F000410022914208BF9042C5
:1039300005D1002D00F030819FEDBC8B2CE153ECC4
:10394000192B9FED720B03F0004251EC100B0C464B
:10395000144353EC102B51EC190B23460026FFF7B0
:10396000B3F84B0043EAD0734200B34208BFB242FF
:1039700041EC190B19D040F23344A4EB5352352AD1
:1039800004DB00F0000001F000410CE0202A03DD20
:10399000203AD140914000E001D1002003E0012A0B
:1039A000A4BFD040904041EC190B51EC190B20F012
:1039B000000231F0004308BFB24251D053EC192B42
:1039C00000207C49FEF76AFC41EC1A0B53EC1A2BE1
:1039D0004FF0A0407849FEF761FC02460B4651ECDF
:1039E000180BFEF7B7FE06460F4653EC1A2B4FF0A6
:1039F000C0407249FEF752FC02460B46304639463B
:103A0000FEF7A8FE06460F4653EC1A2B4FF0005067
:103A10006B49FEF743FC02460B4630463946FEF73B
:103A200099FE06460F4653EC1A2B00206549FEF717
:103A300035FC02460B4630463946FEF78BFE0646FD
:103A40000F4653EC1A2B4FF000505F49FEF726FC4F
:103A500002460B4630463946FEF77CFE41EC180B19
:103A600051EC190BFEF746FE00F00300451951EC2E
:103A7000180B21F0004100224FF07953FEF76CFD46
:103A800005F0010405D2002C00F07E809FED678BCD
:103A90007AE053EC182B51EC180BFEF7FFFB002CCF
:103AA00041EC190B36D053EC192B48484849FEF726
:103AB000F5FB484A484BFFF707F853EC192BFEF784
:103AC000EDFB464A464BFEF7FFFF53EC192BFEF782
:103AD000E5FB444A444BFEF7F7FF53EC192BFEF786
:103AE000DDFB424A424BFEF7EFFF53EC192BFEF78A
:103AF000D5FB6FF051023F4BFEF7E6FF53EC192B5D
:103B0000FEF7CCFB00223C4B3AE000BF0000000077
:103B10000000E03F53EC182BFEF7C0FB06460F46B3
:103B200053EC192B35483649FEF7B8FB354A364B6E
:103B3000FEF7CAFF53EC192BFEF7B0FB334A344BA8
:103B4000FEF7C2FF53EC192BFEF7A8FB314A324BAC
:103B5000FEF7BAFF53EC192BFEF7A0FB2F4A304BB0
:103B6000FEF7B2FF53EC192BFEF798FB2D4A2E4BB4
:103B7000FEF7AAFF32463B46FEF790FB53EC182BAC
:103B8000FEF7A2FF41EC180BA80705D551EC180B66
:103B900081F0004141EC180B51EC180BBDEC068B89
:103BA000F4BD000083C8C96D305FE43F0000A0FF92
:103BB000FFFFDF410000303EFB21B941B41011404E
:103BC00026A6513E5C14D33C9A833B3B09260A103F
:103BD00039BA213E3BA861C6F97D92BE63AC3090F4
:103BE0009F01FA3EF6FB51166CC156BFB102555506
:103BF0005555A53FFFFFDFBF0000F03FB08F2FC33B
:103C000010D8E53D8F0C73A1E1E55ABE4DADE44FF0
:103C1000E31DC73E3EE3B519A0012ABFFAF010111B
:103C20001111813F425555555555C5BF0000000043
:103C30000000F03F0122DBE500EE100ABDEEC00AF5
:103C400010EE100A7047000010B540F27624604371
:103C500040F6340390FBF3F0614391FBF3F36243CE
:103C600040F6340192FBF1F2A0421449C8BF20464D
:103C700002DC8842B8BF0846A342C8BF234602DC24
:103C80008B42B8BF0B46A242C8BF224602DC8A4222
:103C9000B8BF0A46002848BF201A002B48BFE31AC5
:103CA000002A074948BFA21A0A8048808B80054A2B
:103CB0001068BDE8104080B200F05ABB8AFDFFFFDB
:103CC000B00F0020F80C002010EE100A02BD80B5E5
:103CD00000EE100A00F06AFCF6E780B500EE100A6C
:103CE00000F066FCF0E7000000EE100A714600F0FC
:103CF00003F810EE100A0847B5EEC00AF1EE10FA0C
:103D000002D4B1EEC00A70476FF0004C00EE10CA4A
:103D1000AFF300807047000041EC100A734600F0DA
:103D200003F810EE100A184752EC101AB0EEC00A51
:103D3000C80F49005200F0EEE00A28BF0C3011F124
:103D4000807F38BF12F1807F0CD28A4238BF80F06A
:103D50000400124214D034BF80EE800A80EE200AA4
:103D600000F028BC11F1807F08BF80F0040098BFEC
:103D700012F1807F08D88A4214BF00224FF07E5291
:103D800000EE102A00F016BC6FF0004100EE101A91
:103D90007047000070B5044608461146FFF7DBFC8B
:103DA00021690546FFF7D7FC1D49FFF717FD0646B9
:103DB000A1691C48FFF712FD3146FFF7C3FC064618
:103DC000E06925612946FFF709FDE168FFF7BAFCC4
:103DD0006369024618461146FFF7EEFC06D383F0EE
:103DE000004310461946FFF7E7FC00D21A46E2608E
:103DF000A66129462068FFF7F1FC05466068314658
:103E0000FFF7ECFC2946FFF79DFC0546E168A0683A
:103E1000FFF7E4FC2946BDE87040FFF793BC0000C3
:103E2000A69BC43EA4701D3F00EE100AB8EEC00A67
:103E300010EE100A7047000010B50146AE4C204647
:103E40004022FEF70DFB6322AC49204600F07CFCCB
:103E500000F006F82068C16841F01001C16010BD93
:103E600010B5A74C206830B90022A6490FF20120F6
:103E700000F02EFF2060BDE810400FF2451200BF99
:103E80000FF2A821A7A0A9E01CB59F4C04F168027D
:103E90006946204600F068F8009804F1680100F0D7
:103EA00079F86221204600F0FFFF0020606613BD14
:103EB0002DE9FC410546904E28683168934C8842B4
:103EC00023D10021009104F18408026800F045F834
:103ED000304600F082FC404604F1E70110F8012B67
:103EE0000AB98842FAD3884F411E384600F0E0FFF5
:103EF000387808B10121E1676221404600F0D4FF23
:103F000063224146304600F01FFC2868804D296836
:103F1000884220D10021009102687E4E00F01DF8F9
:103F2000284600F05AFC314604F1180000F0C0FFAA
:103F3000207E10B10121C4F8801000F0A7F86221A2
:103F4000304600F0B1FF3146284602B0BDE8F041EE
:103F5000632200F0F9BBBDE8F38100924168009153
:103F6000009A016840687047F8B50C466BA6154684
:103F7000314600F0C3FF002748B10D2F07DA45F89E
:103F800027003146002000F0B9FF7F1CF4E72760CE
:103F90000020F2BD38B50D46594A2968044610681C
:103FA00000F004FF020005D0126829462046904721
:103FB000002032BD61A000F03AF8012032BD0000BF
:103FC00080B500BF61A000F032F84D480FF2B1019A
:103FD0000068BDE80840002200F016BF2DE9F84354
:103FE0000446894616460820FCF72CFF0746204663
:103FF000FDF7F4FF401CFCF725FF80462046FDF747
:10400000EDFF401CFCF71EFF05462146404600F030
:104010004FFF4946284600F04BFF3A4641463E6076
:104020007D6037480068BDE8F84300F079BE0EB403
:1040300030B50246304C03AB652104F1400000F07E
:1040400081FF04F130052021697282B204F1400140
:10405000204600F03DFB10B10A2000F091FF2868D7
:1040600090F835100129FAD130BC5DF810FB000042
:1040700080B500F099FF00B10120C0B202BD000080
:1040800009684A684FEA000132A0D0E710B51F4C1A
:10409000D4F88000F0B100201E490A5C0D2A02BF4E
:1040A0000A1853780A2B08D1492806DA927E0A2A80
:1040B00002BF0A18D37E0D2B0DD0401C6328ECDB09
:1040C0000020C4F88000622104F11800BDE810400F
:1040D00000F0EABE10BD0844811C18222046FEF7FD
:1040E000AFF90D4821688160E16801602169416094
:1040F000FEF7A6FDE4E70000540B0020F00A0020C4
:10410000B80F0020B34C0000FC0B00206C0A00200C
:10411000640E0020940C0020200000202C200D0AAA
:104120000000000068656C700000000073686F7725
:1041300020636D642075736167650000636D6420A2
:104140006E6F742066696E640D0A000068656C709D
:104150003A0D0A0025733A2025730D0A000000006D
:1041600040F2FF7C0B0D4DD0634566D230B421EA9E
:10417000035141F4801103F2FD3C5FEA5C0C01D372
:1041800000184941890041EA907180004FF44014C1
:104190000023E202D50AB1F5100107D46D081DD243
:1041A000091B641900184941491BF7D56D080AD24B
:1041B0000919641B00184941491BEFD56D08F7D355
:1041C00001E0520817D0C01861419B1AAC41001899
:1041D0004941801AA941F4D452080AD0C01AA14119
:1041E0009B186C4100184941801AA941E9D4520832
:1041F000F4D15B1C6C4161084FEA330001EB0C51B8
:1042000030BC704750EA0103FBD030B4B1FA81F3FF
:1042100011B9B0FA80F41B190B3BB3F120042FBF86
:1042200000FA04F19940C3F1200420FA04F438BFE5
:1042300021439840D3F101039DE7634514BF50EA41
:10424000410CDEE711F5801FDBD8D943AFF30080C6
:104250007047000010B50146504C8AB02046282215
:10426000FEF7FEF8002000210590069100910191D3
:1042700002910391049101200E2107900890099169
:104280002046694600F03DFF08B101F0ABFA204638
:1042900000F0A6FF08B101F0A5FA0221204601F0C6
:1042A000CAF808B101F09EFA0421204601F0C3F8D3
:1042B00008B101F097FA3A4C0020E060A0600820B5
:1042C000206100202075606D38B900220FF2D901FD
:1042D0000FF2D90000F0FCFC606501F085FA0AB02D
:1042E00010BD38B504460D460420FCF7ABFD2C4B41
:1042F00004600146586D2A46BDE8384000F010BD04
:1043000010B5274C606D04F1500100F04FFD010025
:1043100004D004F12800BDE81040084710BD10B5D6
:104320001F4C04F1180304F13402002101F004F8D9
:10433000606B2065D4E90601C4E90A01012020630D
:1043400010BD000010B5164C01202062AD20606247
:104350000120206019A0FFF76AFE04F1580304F160
:1043600020022146BDE810400C4800F077BF000055
:1043700038B50C460A4D014629606368D4F8002020
:1043800011A0FFF754FE05F15803224629460348C1
:1043900000F064FF00B1012032BD00004C0F00208E
:1043A000080D002070470000006870470068096829
:1043B000884201D1002070470120704773656E6408
:1043C00020646174610D0A00256420256420256441
:1043D0000D0A0000DFED650A60EE200A10EE901A6B
:1043E00021F0004101EE101ADFED611AB4EE611AFE
:1043F000F1EE10FA27D510EE902A4FF07C5102F022
:104400000042114301EE101A70EE810AFDEEE00A3F
:1044100010EE901A00296ED0FAEEC90A9FED551AD7
:1044200000EEC10A9FED541A00EEC10A9FED531A27
:1044300000EEC10A9FED521A00EEC10A9FED511A1B
:1044400000EEC10A57E010EE101A49000916491C87
:1044500010EE101A09D149000816401C02D10902B9
:1044600040F083809FED480A7047490004D100283E
:104470007BD0B7EE000A704710EE902A4FF07C51C7
:1044800002F00042114301EE101A70EE810A10EEA4
:10449000902A51000FD0090EC1F196011829A8BF2A
:1044A00002F0004205DA0129A4BF22FA01F303FA5F
:1044B00001F200EE902A10EE901A490017D09FEDFD
:1044C000331A20EE811ADFED2B1A01EE610ADFEDBF
:1044D0002A1A01EE610ADFED291A01EE610ADFED09
:1044E000281A01EE610ADFED271A01EE610AFDEEDE
:1044F000E00A10EE901A10EE102A22F0004200EEB0
:10450000902A9FED231A01F00301F4EE410A0818E6
:10451000F1EE10FA00F0010103D511B3B7EE000A75
:104520001FE060EE000A71B19FED1A0A9FED1A1AA2
:1045300000EE801ADFED191A41EE201AB7EE000ADC
:1045400001EEA00A0DE0DFED161A9FED162A00EE2F
:10455000A12ADFED152A20EE201A42EE202A01EED4
:10456000220A800748BFB1EE400A704783F9223F14
:104570000000004F0000C94600A0FD400020A23A04
:10458000000034330030C22EFFFFFF7F0000803870
:10459000000080399349B2BA36A02A3DDFFFFFBE42
:1045A0006E8C4CB94283083CA1AA2ABE012011E7B7
:1045B00000200FE71AA210EE101A43F2A40CC3F663
:1045C000896CF2EC060A614509DB00EE803A70EE78
:1045D000800A83EE200A40F0020010EE101A490013
:1045E000D1F1E6410BD860EE000A20EE203A03EE4E
:1045F000010A01EEA02A42EE202A80EE220A40089B
:1046000010F0020F18BFB1EE400A02EB8002D2EDAB
:10461000000A30EE200A28BFB1EE400A70470000C1
:10462000D7B3DD3F6AD5033F2B94A93DB82A593F44
:104630000000803F000080BF00000000920A063F9B
:10464000DB0FC93F920A863FDB0FC93F920A064043
:10465000DB0F4940368D274038B5040001D10120D9
:1046600032BD00F022F808B900F023F800F013F88A
:1046700000F024F8FFE7416100F001F832BD206846
:10468000C16841F40051C16000206860202068705A
:10469000A87000207047242068702068C16821F449
:1046A0000051C160204600F038BA04F1380568783E
:1046B000704700212970204601F0EBB8206801699D
:1046C00021F4904101612068416921F02A0170477D
:1046D00070B5044604F1380513466878202831D1B6
:1046E00009B1180001D1012070BD2878012829D016
:1046F00001222A702162A384E384002068602120C3
:104700006870226B0FF28520D063226B0FF2A92014
:104710001064226B0FF2E920D0640020266B306514
:104720002068021D206B01F0BCFA21686FF0400088
:104730000860002028702068416941F080014161D3
:10474000002070BD022070BD38B5044604F1380564
:104750001346A87820283ED109B1180001D10120C4
:1047600032BD2878012836D001222A70A162A385A3
:10477000002068602220A870626B0FF24520D06391
:10478000626B0FF275201064626B0FF27520D064BB
:104790000020626B10650A462068011D606B01F005
:1047A00080FA002000902068016800914268009221
:1047B000002200992A70C26842F48072C2602068A8
:1047C000416941F0010141612068416941F04001C6
:1047D0004161002032BD022032BD38B5044604F1EB
:1047E0003905206841692A78212A09D1090607D5A7
:1047F00000F017F808B101F089FA204600F025F919
:10480000206841696A78222A09D1490607D500F053
:104810000EF808B101F07AFA204600F01FF90020E6
:1048200032BD416921F080014161206B70474169CF
:1048300021F040014161606B704738B5044625683E
:104840002968EA686B6911F00F0007D188065DD509
:1048500090065BD52046BDE8324013E1D80702D46C
:1048600012F4907F52D0C80705D5D00503D5E06B70
:1048700040F00100E063480705D5D80703D5E06B99
:1048800040F00200E063880705D5D80703D5E06B48
:1048900040F00400E063080705D5D80703D5E06BB6
:1048A00040F00800E063E06B00286ED0890604D574
:1048B000900644BF204600F0E5F820684069E16BAF
:1048C0000A0701D440061BD5204600F0C7F820682F
:1048D00041694A060FD5FFF7AAFF60B10FF299119F
:1048E0000165606B01F057FA00284ED0606B016DD6
:1048F000BDE8344008472046BDE8324001F03CB9ED
:10490000204601F039F90020E06331BD08062CD5BE
:1049100010062AD594F83900212836D1A168206ADA
:10492000B1F5805F0DD10188C1F30801696020698C
:1049300018B9216A881C206207E0206A411C2162A4
:1049400003E0411C216200786860E08C401EE08436
:1049500080B2D0B92068C16821F08001C1602068B0
:10496000C16841F04001C16031BD48060DD5500617
:104970000BD5E86820F04000E860202184F8391069
:104980002046BDE8324001F019BB31BD816B0068A3
:104990000268D30544BF084601F010BB0020C8845C
:1049A0000868426922F0800242610868C16841F0EB
:1049B0004001C16070470000806B01F000BB000047
:1049C000816B00680268D30513D40020C88508688D
:1049D000C26822F48072C2600868426952085200BC
:1049E00042610868426922F040024261202081F859
:1049F0003A00084601F0E4BA806B01F0E2BA000028
:104A000038B5846B2068406904F13905297821297B
:104A100006D1000604D50020E084204600F015F8F9
:104A2000206840696978222906D1400604D5002013
:104A3000E085204600F012F8E06B40F01000E063E3
:104A40002046BDE8324001F097B80168CA6822F0FC
:104A5000C002CA60202180F8391070470168CA6816
:104A600022F49072CA6001684A69520852004A6191
:104A7000202180F83A107047806B0021C185C184E5
:104A800001F07AB880B590F83A10222943D18268B3
:104A9000B2F5805F14D1826A016941B9036859682F
:104AA000C1F308011180826A911C816218E00168DB
:104AB0004B6803F0FF031380816A4A1C82620FE097
:104AC00001690029816A04D14A1C82620268536824
:104AD00005E04A1C82620268536803F07F030B7092
:104AE000C18D491EC18589B299B90168CA6822F091
:104AF0002002CA600168CA6822F48072CA60016834
:104B00004A69520852004A61202180F83A1001F0A7
:104B100057FA002002BD022002BD2DE9F0470446ED
:104B2000642521680A69E06822F4405202430A6160
:104B30001926CA6848480240A06802432069024317
:104B400060690243E0690243CA604A69A06922F4CD
:104B5000407202434A61E3694048414AB3F5004F5D
:104B60003BD1914218BF814210D101F0BBFA0746F8
:104B700001F0B8FA804601F0B5FA814601F0B2FAC8
:104B800006FB09F9824601F0ADFA0FE001F0A2FA46
:104B9000074601F09FFA804601F09CFA814601F039
:104BA00099FA06FB09F9824601F094FA6168490016
:104BB00000F058F8DB003233B3FBF5F35B00B2FBD7
:104BC000F5F203F4F87300F05BF8ED003235642081
:104BD000B5FBF0F000F0070037E0914218BF8142CA
:104BE0000ED101F07FFA074601F07CFA804601F011
:104BF00079FA814601F076FA824601F073FA0DE007
:104C000001F068FA074601F065FA804601F062FAA1
:104C1000814601F05FFA824601F05CFA06FB09F971
:104C20006168890000F01EF81B013233B3FBF5F315
:104C3000B2FBF5F203F0F00300F022F82D0132355B
:104C40006420B5FBF0F000F00F002168C3188B6002
:104C5000BDE8F08700000000F369FFFF0014014089
:104C6000001001407743B7FBF1F206FB08F7B7FBF2
:104C7000F1F3B9FBF1F7B7FBF5F705FB1733704715
:104C800003EB021306FB0AF74643B7FBF1F2B6FB50
:104C9000F1F06421B0FBF1F005FB10257047000036
:104CA000884201D00120704700207047800870477B
:104CB0007047024641F2055004E012F8011B01EB77
:104CC0004011081811780029F7D120F000407047F2
:104CD00070B504460D461646FC20FCF7B3F82100DB
:104CE00008BF0C4C290008BF0B4D310008BF0B4E0C
:104CF000C4600561466100F11801016000220021D5
:104D0000036843F82120491C1329F9DB42608260C3
:104D100070BD0000A14C0000AD4C0000B14C000083
:104D20002DE9F84306460D469046002750A40FF2A1
:104D3000481926B9532200F035F8AFF3008025B9A1
:104D4000542200F02FF8AFF30080316928468847DD
:104D50001322B0FBF2F902FB1909306850F8294020
:104D600005E02168F2682846904790B1A468002CBD
:104D7000F7D10C20FCF766F8040010D025603068ED
:104D800050F82910A16040F829407068401C7060FC
:104D900000E06768C4F80480B068401CB060384622
:104DA000BDE8F2834946204601F0DEB9F8B50500BA
:104DB0000E4600BF0FF2B8042FA705D17622394660
:104DC000FFF7F1FFAFF300802EB977223946FFF7E6
:104DD000EAFFAFF3008029693046884713222B6829
:104DE000B0FBF2F2132101FB120053F8204000E067
:104DF000A4683CB12168EA68304690470028F7D1A2
:104E00006068F2BD0020F2BD2DE9F84F06000D46A6
:104E100091460FF25C080FF2600B04D1A32200F060
:104E200023F8AFF3008025B9A42200F01DF8AFF3FA
:104E30000080D6F808A00027306850F827400CE022
:104E400020684A46211DA847B068824504D0AA229E
:104E500000F00AF8AFF30080A468002CF0D17F1CAA
:104E6000132FE9DBBDE8F18F5946404601F07CB9CC
:104E70007465737400000000443A5C526F626F63A3
:104E80006F6E436F64655C31395F6672616D655C3E
:104E900073696D706C656C69625C5372635C6861A8
:104EA00073682E6300000000002201F06FB900005B
:104EB0005FEA000C80EA01039B0715D1830706D047
:104EC00011F8013B00F8013BB3B18307F8D10A6840
:104ED000B2F1013323EA020313F0803F02BF40F82E
:104EE000042B51F8042FF3E711F8013B00F8013BC4
:104EF00013B111F8013BF9E76046704738B504007B
:104F00000D4609D0204601F05AF90444207848B9EA
:104F10000B4A0021116032BD09480468002CF1D110
:104F2000002032BD2946204601F05AF921180878A0
:104F300010B1002201F8012B2046014A116032BD58
:104F4000BC0F002008B584B00023039300290EBFD6
:104F500001930190491E0291009301A904AB0748F7
:104F600078441830FCF7FCF8019909B100220A7066
:104F7000002858BF039805B000BD00BF8BC1FFFFDC
:104F800038B5044601F03EF914F1010F054602D090
:104F900004490878041901F035F9401BA042FAD3FE
:104FA00031BD00BF0407002081EA00039B0717D131
:104FB000820707D010F8012B11F8013BBAB19A42D1
:104FC000F6D014E002680B689A42A2F1013301BFE7
:104FD000934313F0803F50F8042F51F8043FF3D06F
:104FE00010F8012B11F8013B0AB19A42F8D0D01AFF
:104FF0007047000038B504001ED094F8200010B9A6
:10500000204601F025F92068016821F002010160C5
:1050100001F0F8F80546206841688A0762D501F07A
:10502000F1F8401B0B28F6D304E001F0EBF8401B2D
:105030000B285AD300F0FAF8012032BD016821F0A4
:1050400080010160617E2068012904D1026842F07C
:105050004002026003E0016821F040010160A17E8E
:105060002068012904D1026842F02002026003E0B6
:10507000016821F020010160E17E2068012904D14E
:10508000026822F01002026003E0016841F01001A2
:105090000160217F2068012904D1026842F00802E2
:1050A000026003E0016821F008010160617F20686F
:1050B000012904D1026842F00402026003E00168A1
:1050C00021F004010160A268E068216802432069C0
:1050D0000243606902436068401E0243CA610020C7
:1050E0006062ABE000F0AFF8054620684168CA078F
:1050F0009BD5217E0129A1D1026842F08002026085
:10510000A0E7F8B590F82020012A18BF022A5DD147
:10511000504A106840F001001060136823F47C537B
:10512000136010684B6A40EA0320106001200B7D79
:1051300003F01F0300FA03F3D069DC432040D06181
:10514000454800F5117500F51076C86970B9D76843
:105150002740D7604F68C86800F03BF808688F6840
:1051600080B240EA07404F6945F83700C869012816
:105170000ED1D7681F43D7604F68086800F029F840
:10518000C8688E6880B240EA06404E6945F836002D
:10519000886918B955682540556002E05068184381
:1051A0005060086918B955692C40546102E0506993
:1051B00018435061086A012802D1D1690B43D361B9
:1051C00010684008400010600020F2BD00F0AAF80E
:1051D0009FE0BFB247EA0047486946F83070704721
:1051E00038B5044694F82000012816D1022184F82D
:1051F00020102068016849084900016001F002F8A8
:10520000054620684168C8070DD500F0FBFF401B2C
:105210000B28F6D300F00AF803E0606A40F400209F
:105220006062012032BD0020606232BD606A40F4DD
:1052300000306062052184F820107047012084F856
:105240002000002032BD016841F00101016000F042
:10525000D9BF00000066004000640040F8B590F837
:1052600020400568AD68012C18BF022C4FD115F005
:10527000E05F48D0C5F30164032C03D3416A41F4D5
:10528000000146E00125A5401D6024010368CE68A9
:1052900003F5C0758B681BB90B6846EA435603E0FB
:1052A0004F6843EAC7031E432E5105680B6905F595
:1052B000C2763351097D012906D1036803F5C27115
:1052C0000D5945F480750D519379D17955791B04A9
:1052D00043EA0163117900F01FF8C1F88C3193782B
:1052E000D17855781B0443EA0163117800F014F873
:1052F000C1F88831006800F5C070015941F0010122
:1053000001510020F2BD416A41F4001101E000F0BA
:1053100009F841620120F2BD43EA05230B4301680D
:1053200021447047416A41F480217047416A41F449
:10533000802141620120704778B590F82040012C0F
:1053400018BF022C68D10029046801D1E56800E08B
:10535000256915F0030F03D1416A41F400115DE0A6
:105360000D0104F5D876745914F0040494600668AD
:1053700006F5D87603D17459640D146002E07659AD
:10538000F6085660046804F5D8767659C6F34004EA
:10539000D46000F04BF804F00F04146100F046F8FC
:1053A000C4F30724946100F041F8240C54610268AE
:1053B0002A44D2F8B8211A7002682A44D2F8B821D7
:1053C000120A5A7004686219D2F8B821120C9A7045
:1053D00004686219D2F8B821120EDA7000F021F8D0
:1053E0001A7102682A44D2F8BC21120A5A7100F0DC
:1053F00018F8120C9A7100F014F8120EDA710068A5
:1054000021B9C16841F02001C16003E0016941F0A8
:1054100020010161002072BDFFF784FF416201207D
:1054200072BD04686219D2F8BC21704704682C442C
:10543000D4F8B441704790F82020012A18BF022AFE
:1054400003D100684269114300E06FE74161002029
:1054500070472DE9F84F05464FF000082868466967
:10546000D0F804B08468D0F80C90D0F810A0876908
:10547000F10745D5E10713D501218160A00703D5C8
:10548000284600F021FF0BE0600748BF4FF400689A
:1054900006D420074EBF4FF48058284600F015FF71
:1054A000E00515D529684FF480708860A00503D504
:1054B000284600F00BFF0BE0600548BF48F4005899
:1054C00006D420054EBF48F48048284600F0FFFE71
:1054D000E00315D529684FF480308860A00303D518
:1054E000284600F0F5FE0BE0600348BF48F4004892
:1054F00006D420034EBF48F48038284600F0E9FE69
:10550000300748BF5FEAC96004D52968102048F415
:105510000078C860700748BF5FEA097005D5296840
:105520000820C8602846FEF73DFFB00707D5286869
:10553000C16811F0030F1CBF2846FEF7F0FE70068D
:1055400048BF5FEACA6004D52968102048F4806823
:105550000861B00648BF5FEA0A7005D529680820CF
:105560000861284600F0B6FEF00607D528680169F4
:1055700011F0030F1CBF284600F0ADFEB00348BF7A
:105580005FEACB6005D5296810204860284600F006
:10559000A3FEF00348BF5FEA0B7005D52968082019
:1055A0004860284600F099FE300440D55FEA4B7011
:1055B0003AD5F00503D5F80748BF48F00108B00513
:1055C00003D5B80748BF48F00208700503D578072F
:1055D00048BF48F00408300526D517F0700F23D0D7
:1055E00007F07007102F0CD0202F0DD0302F0ED0C9
:1055F000402F0FD0502F10D0602F08BF48F4807874
:105600000DE048F008080AE048F0100807E048F00C
:10561000200804E048F0400801E048F080082868CD
:10562000816921F070018161042029684860B8F126
:10563000000F08D0686A48EA000068622846BDE8A2
:10564000F24F00F04BBEBDE8F18F0000F8B500F05E
:1056500047FE00F05DF800F05DFE00F06FFF00F027
:10566000D7FD00F0E9F800F000F900F008F900F0CB
:10567000D5F800F0C9F800F0F7FF00F09BFF00221A
:105680000121142001F0A8F8142001F0C2F8002232
:105690000121252001F0A0F8252001F0BAF8002210
:1056A0000121262001F098F8262001F0B2F800220E
:1056B0000121272001F090F8272001F0AAF84149A4
:1056C0004148424C424D434E434F01F0DBF801202C
:1056D000206001F0E8F860680128FAD100216160DB
:1056E000F868012804BF0320FDF77CFE3869012813
:1056F00003D131682868FDF7E5FEF968002904BF89
:1057000038690028E5D100230022FDF72EFBE0E7F1
:1057100080B592B006A83021FFF7C6FB01A814217E
:10572000FFF7C2FB002000902C48016841F0805137
:1057300001600021006800F0805000900098284827
:1057400000910121026842F4804202604FF48032ED
:10575000006800F4804000900098069102200C90B0
:105760004FF480010D9104200E90A8210F9102208A
:10577000109004210792119106A801F0B5F80F20AE
:10578000019002210020029103904FF4A0514FF4A8
:10579000805004910590052101A800F013FC00F051
:1057A00096FC4FF47A71B0FBF1F001F03DF8042063
:1057B00001F04EF8002200214FF0FF3001F00CF80C
:1057C00013B000BD240F0020E40E00208C0F002039
:1057D000A80F0020AC0F00206800002040380240D5
:1057E00000700040704700000FF209010120FEF731
:1057F00078BD000001A0FEF71ABC000063616E20B6
:105800007278206F6B0D0A0080B5DFF82403DFF893
:10581000241300F01BF800B10AE001BD80B5DFF8E9
:105820001803DFF8181300F011F800B100E001BD13
:10583000BDE80140FFF7D6BF80B5DFF80403DFF80D
:10584000041300F003F800B1F2E701BD01604FF46A
:10585000E131416000218160C16001610C21416141
:1058600000218161C161FEF7F7BE80B5DFF8D80283
:10587000DFF8D812FFF7EAFF00B1D9E701BD80B524
:10588000DFF8CC02DFF8CC12FFF7E0FF00B1CFE782
:1058900001BD2DE9F04786B0044668461421FFF7A4
:1058A00003FB2368A34DAC48AC4AAB424FF44061C4
:1058B00020D100230593146944F4002414610024CA
:1058C000136903F400230593059B0594156845F0BF
:1058D00004051560126802F004020592059A009111
:1058E00001220221019102920321039108220492D4
:1058F0006946B3E0914DDFF868A2AB4237D1002191
:105900000591136943F4801313610023116901F4B5
:105910008011059105990593146844F004041460FE
:10592000116801F00401059105990593022314689B
:1059300044F008041460116801F0080105914FF467
:1059400080520599009201210291032208210491BD
:1059500001930392694601F03FF90420009002216F
:1059600001910120029003210391082073E0754802
:105970007C4D834205F184064FF480784FF48067B4
:105980004FF000694AD1002005905169DFF8D8A195
:1059900041F0100151610021506900F010000590A4
:1059A000059805914FF4C061136843F0010313603B
:1059B000106800F0010000F0A8F80720039104909F
:1059C00001926946694801F007F90AF178002860F8
:1059D000C5F804904020A86000F09FF808B1FFF7D8
:1059E00001FF25630020AC63C5F860A0C5F8649092
:1059F000A866E8662F676867A867C5F8800030600A
:105A0000C5F87C8005F1600000F0D8F808B1FFF718
:105A1000E9FE05F160006063746173E04B48834206
:105A20001FD100200590116941F40031116100215E
:105A3000106900F400300590059805916021136805
:105A400043F008031360106800F0080000F05DF8F0
:105A500001920391072004906946504601F0BCF87A
:105A600050E03C4883424DD1002005901369DFF897
:105A700000A143F4802313610023106900F4802007
:105A8000059005980593106840F0020010601068BA
:105A900000F002000590059800910220012101907C
:105AA000029103200721039004916946314801F0D7
:105AB00093F80020C6F83CA0C6F840907064B0642B
:105AC000F764C6F8588030657065F065306605F19A
:105AD000C008404600F072F808B1FFF783FE05F5F4
