:020000040800F2
:10000000281A0020056100087D5F00087F5F000856
:10001000815F0008835F0008855F00080000000022
:10002000000000000000000000000000875F0008E2
:10003000895F0008000000008B5F00088D5F0008EA
:100040002F61000833610008376100083B61000838
:100050003F61000843610008476100084B610008E8
:100060004F61000853610008576100085B61000898
:10007000915F00085F610008975F000863610008F6
:10008000676100086B6100086F6100087361000818
:100090009D5F0008776100087B6100087F610008B0
:1000A00083610008876100088B6100088F61000888
:1000B00093610008976100089B6100089F61000838
:1000C000A3610008A7610008AB610008AF610008E8
:1000D000B3610008A35F0008A95F0008AF5F0008D4
:1000E000B7610008BB610008BF610008C361000878
:1000F000C7610008CB610008CF610008D361000828
:10010000D7610008DB610008DF610008E3610008D7
:10011000E7610008EB610008EF610008F361000887
:10012000F7610008FB610008C35F0008FF61000879
:1001300003620008076200080B6200080F620008F3
:1001400013620008176200081B6200081F620008A3
:100150002362000827620008C95F00082B620008BC
:100160002F62000833620008376200083B62000813
:100170003F62000843620008476200080000000078
:100180004B6200084F62000800F5E070026891427F
:1001900003D343681A44914202D380680028F5D102
:1001A0007047DFF80817086890B94FF4805048602E
:1001B0004FF480324FF0FF30C86008610420DFF850
:1001C000F0368A604861C3F8BC01DFF8E8060860D1
:1001D0000120704701F1080313F0070F0EBF002341
:1001E000C3F1080303F007031944D21A8161C26006
:1001F00042F001034B60091D4FF0280C41F802C08A
:10020000DFF8A8261369C36170472DE9FC4B074648
:1002100001F1080010F0070F0FBF8946C0F1080078
:1002200000F0070001EB000902F1080111F0070FCF
:1002300006D002F10800C0F1080000F007000244F7
:100240001546A5EB090009EB0306A0EB030B43F0F1
:100250000303C9F80430AE4228BF00F055FF2879E7
:10026000C10758BF00F050FFBBF1100F38BF00F0BE
:100270004BFFB869854208D1F9688B44C7F80CB0C8
:10028000BE614BF00100706051E1786985420AD18E
:10029000B9688B44C7F808B07E614BF0010070600C
:1002A00046F80BB043E1686800F00301012940F013
:1002B000AC80C008C0000190C0081F2839D8AC68C5
:1002C000D5F80C800090454508BF00F01DFFA54201
:1002D00008BF00F019FF68680099C008C000B0EBC3
:1002E000C10F18BF00F010FF009907F1280000EBC4
:1002F000C100844206D039698C42C0F08180E26836
:10030000AA427DD1A04506D10098396801238340D7
:100310009943396076E0804506D0396988456FD3C6
:10032000D8F80800A8426BD1C4F80C80C8F808407F
:1003300068E0EC68D5F81880AC420CD0A868396940
:10034000884223D3C268AA4204BFA168A9421DD132
:10035000C460A0601CE005F114010C6834B905F11B
:1003600010010C68A4B101E011460C6804F11402FC
:100370001068002802BF04F1100210680028F3D1B1
:100380003869814202D300220A6001E000F0BCFE1D
:10039000B8F1000F36D0E96907F5987000EB8100DD
:1003A0000268954208D10460A4B9E869796801221D
:1003B00082409143796025E03869804508D3D8F8B8
:1003C0001010A94214BFC8F81440C8F8104001E04A
:1003D00000F09AFEB4B139698C4211D3C4F8188088
:1003E000286928B1884226BF2061846100F08CFE14
:1003F000686938B13969884202D36061846101E07B
:1004000000F082FE01996D188B4469684908490023
:1004100069604BF0010070604FEADB0446F80BB0F6
:100420001F2C23D807F1280000EBC4084546BBF178
:10043000100F38BF00F068FE386820FA04F1CA07D0
:1004400005D4012101FA04F404433C6007E0D8F824
:100450000800396988422CBF054600F055FEC8F8EF
:100460000860EE60B560C6F80C8060E05FEA1B20B3
:1004700008BF002123D0B0F5803F28BF1F211ED226
:10048000A0F58072120C02F008029040A0F5805195
:10049000090C01F004018840A0F580431B0CC2F157
:1004A0000E0203F00203521AD21A984002EBD03225
:1004B000D01D2BFA00F101F0010101EB4201F161C5
:1004C000002307F59872736102EB810033617A684B
:1004D00022FA01F3DC0707D4012303FA01F11143E7
:1004E00079600660B0611DE002681F291DBF4908E0
:1004F000C1F119010BFA01F1594600E002465068BA
:10050000C008C000584516D002F11003C80F03EB15
:100510008003490018680028F0D13869834204D369
:100520001E60B261F660B66001E000F0EDFD09F119
:100530000800BDE8F68B396990688A4228BF884276
:10054000F3D3C6609660B060F2600020B061EEE761
:100550002DE9FE4F04468B46A5692E4690469946E6
:100560003146FFF711FE0268416802EB010AAAF169
:10057000270111F007000EBF0021C1F1080101F0B1
:1005800007010AEB0100A0F12F0706F110018F42CD
:1005900038BF374607F11802002101920091A8F1F7
:1005A000280259462046FFF715FE07F1080010F013
:1005B000070F18BF00F0A8FD1B20786007F10801A5
:1005C00004F5E07090E80C5081E80C50C0F800B0E1
:1005D000C0F80480C0F80C9081600722019800994F
:1005E00000E0001D491C00F1080353454260F8D3A8
:1005F0000129D8BF00F088FDB74200F09580BF1BED
:10060000301D321DC15949084900D15147F0010040
:1006100070604FEAD70BF751BBF11F0F21D804EBE5
:10062000CB0000F12805A846102F38BF00F06CFD64
:10063000206820FA0BF1CA0705D4012101FA0BF159
:100640000843206006E0A868216988422CBF8046E4
:1006500000F05AFDAE60C8F80C60C6F80880F5607E
:100660006FE0380A08BF002123D0B0F5803F28BFD3
:100670001F211ED2A0F58072120C02F008029040D9
:10068000A0F58051090C01F004018840A0F58043D9
:100690001B0CC2F10E0203F00203521AD21A984048
:1006A00002EBD032D01D27FA00F101F0010101EB7D
:1006B000420104EB8102002302F59870F16173613D
:1006C0003361626822FA01F3DB0707D4012303FADE
:1006D00001F1114361600660B0611DE002681F29ED
:1006E0001DBF4908C1F1190107FA01F1394600E0BF
:1006F00002465068C008C000B84216D002F110038C
:10070000C80F03EB8003490018680028F0D1206966
:10071000834204D31E60B261F660B56011E003B09D
:10072000BDE8F04F00F0F0BC0BE0216990688A4210
:1007300028BF8842F3D3C6609560B060F2600020A5
:10074000B06103B0BDE8F08F2DE9F041574F054689
:100750003868884608B9FFF724FDB96801EB08003E
:100760002F30491E20EA010188457DD205F5D87653
:10077000B06828B1326889188A4275D2884273D32A
:1007800000F002FD01001CBF0C6811F1010F6BD0DD
:100790003068201805F5D87230605368984238BF29
:1007A00018467060A86960BB286908B1814200D210
:1007B0002961316174610020F0614FF0FF303A68C7
:1007C0006A62286205F128020020D260926002F17C
:1007D000080757611761801C10322028F5D3344870
:1007E000854208BFA4F1280228D055F8040CC0089F
:1007F00005EBC002A2F108000A19121A283A0146B4
:100800001CE005F5E070024600E092687AB31368D8
:1008100057681F44B942F8D1137B1F0727D4AB692F
:100820001768BB4223D3D2F804C06744BB421ED230
:10083000A444C2F804C0E868A96922182846FFF752
:10084000C9FC1FE08068C0B103689342FAD1027B03
:10085000130712D4026801604368E41844604346F9
:100860002846BDE8F041D0E40020BDE8F0812A69C7
:10087000914238BF29610A19E5E70023224628463C
:10088000FFF766FEE8688045EED2A0EB0800A96994
:10089000E86001EB0802AA6140F00100506048F0F6
:1008A0000300486001F10800BDE8F081FC0700206A
:1008B000900000206859883C2DE9F84F00258946B2
:1008C000090AC9F1000B08BF002323D0B1F5803F0E
:1008D00028BF1F231ED2A1F58072120C02F008025D
:1008E0009140A1F580531B0C03F004039940A1F53E
:1008F0008044240CC2F10E0204F00204D21A121B2E
:10090000A14002EBD132D11D29FA01F303F001031A
:1009100003EB4203074607F5987858F8230030B3F5
:100920001F2B0FBF4C465C08C4F1190409FA04F4EC
:10093000AC46594600E064004268D208D200A2EBFF
:1009400009028A4203D21100054600F0698142691A
:1009500010304FEAD47B50F82B00002A1CBF824293
:1009600094460028E7D18B466046B0BBBDBB012250
:1009700002FA03F35B005842796803430B4000F02E
:100980004E81584203405B1E180B00F01000C3401C
:10099000590901F00801CB409A0802F00402D34043
:1009A0005C0804F002040818E3401018C3F3400682
:1009B00020183044F3401B1858F823000DE0084677
:1009C0004168C908C900A1EB090159453CBF8B46E4
:1009D000054601690029F2D140690028F0D1002DB7
:1009E00000F01D81B868A0EB0900834580F01781F5
:1009F00039698D42C0F011816868C008C00009EBF8
:100A00000B01884218BF00F07FFB05EB0906B542D9
:100A100080F00381EC68D5F818A0AC420CD0A8682F
:100A20003969884223D3C268AA4204BFA168A94297
:100A30001DD1C460A0601CE005F114010C6834B93C
:100A400005F110010C68A4B101E011460C6804F135
:100A500014021068002802BF04F110021068002878
:100A6000F3D13869814202D300220A6001E000F02C
:100A70004BFBBAF1000F36D0E86908EB8000016843
:100A80008D4209D10460200014D1E86979680122FF
:100A900082409143796026E03869824508D3DAF8CC
:100AA0001010A94214BFCAF81440CAF8104001E05F
:100AB00000F02AFBBCB13869844212D3C4F818A0F4
:100AC000286930B13969884226BF2061846100F00D
:100AD0001BFB686938B13969884202D3606184615F
:100AE00001E000F011FBBBF1100F0CD2D94449F02A
:100AF0000300291D6860281D51F8092042F00102F9
:100B000040F8092088E049F0030068604BF00100DC
:100B100070604FEADB0046F80BB01F281DD807EBCA
:100B2000C00101F12804396821FA00F2D307A34675
:100B300005D4012202FA00F00843386006E0A068FC
:100B4000396988422CBF834600F0DEFAA660CBF8F4
:100B50000C60C6F808B0F4605EE05FEA1B2008BFD6
:100B6000002123D0B0F5803F28BF1F211ED2A0F561
:100B70008072120C02F008029040A0F58051090C1E
:100B800001F004018840A0F580431B0CC2F10E0265
:100B900003F00203521AD21A984002EBD032D01D51
:100BA0002BFA00F101F0010101EB4201F161002299
:100BB0007261326108EB81007A6822FA01F4E3077E
:100BC00007D4012404FA01F1114379600660B06191
:100BD0001DE002681F291DBF4908C1F119010BFA68
:100BE00001F1594600E002465068C008C00058456F
:100BF00018D002F11003C80F03EB800349001868F6
:100C00000028F0D13869834204D31E60B261F660D7
:100C1000B66001E000F078FA14E100F075FA0EE138
:100C20008B46A2E6396990688A4228BF8842F1D390
:100C3000C6609660B060F2600020B061ECE72DE91C
:100C4000F84F06468846716848420140491E080B25
:100C500000F01000C1404A0902F00802D1408B08A0
:100C600003F00403D9404D0805F002051018E940CF
:100C70001818C1F34004281806F5987A2044E1407A
:100C800009185AF821104868C008C0000D46A0EBAA
:100C9000080909E001464868C008C000A0EB080048
:100CA00048453CBF81460D4608690028F2D1496994
:100CB0000029F0D130698542C0F0BF806968C90859
:100CC00008EB090BC900594518BF00F01DFA05EBE8
:100CD00008008542009080F0B080EF68AC69AF42B8
:100CE0000CD0A8683169884223D3C268AA4204BFE5
:100CF000B968A9421DD1C760B8601CE005F11401B4
:100D00000F6837B905F110010F68A7B101E011466E
:100D10000F6807F114021068002802BF07F11002E3
:100D200010680028F3D13069814202D300220A60A2
:100D300001E000F0E9F9002C31D0E8690AEB80000D
:100D400001688D4208D107608FB9E8697168012296
:100D500082409143716022E03069844205D3216969
:100D6000A94214BF6761276101E000F0CDF9B7B176
:100D70003069874211D3BC61286930B1316988423A
:100D800026BF3861876100F0BFF9686938B1316901
:100D9000884202D37861876101E000F0B5F9B9F1CA
:100DA000100F0BD24BF00300291D6860281D51F86D
:100DB0000B2042F0010240F80B203DE048F0030117
:100DC0002A1D696049F0010042F80800009941F8C5
:100DD0000990D6F808804FEAD80BBBF1200F28BF46
:100DE00000F092F9B8F1000F22D006EBCB00776942
:100DF00000F12804A246B8F1100F38BF00F084F9C2
:100E0000306820FA0BF1CA0705D4012101FA0BF171
:100E10000843306006E0A068316988422CBF8246F2
:100E200000F072F9A760CAF80C70C7F808A0FC605F
:100E3000C6F808900098706104E000F065F90020A1
:100E4000BDE8F28F05F10800BDE8F28F2DE9FE4FF5
:100E50000546AFF30080F52DDFF8A86280F004812D
:100E60000B2D31BF10250B35ED08ED003068EC0877
:100E7000E04010F0030F46D0C04300F00100041919
:100E800006F1280000EBC408E700D8F808506868AD
:100E9000C008C000B84218BF00F036F9D5F8089075
:100EA000454508BF00F030F94D4508BF00F02CF96A
:100EB0006868C008C000B84218BF00F025F9C845EE
:100EC00007D13068012101FA04F420EA04043460F7
:100ED0000DE03069814508D3D9F80C10A94204D13E
:100EE000C8F80890C9F80C8001E000F00DF947F04F
:100EF0000300291D6860281DCA5942F00102C25131
:100F000005F10804F8E0B168A94280F0BE8000282D
:100F100000F0A1804FF0010808FA04F1490000FA3E
:100F200004F4484201430C4060420440641E200B1C
:100F300000F01000C440610901F00801CC40A20893
:100F400002F00402D440630803F002030818DC40F6
:100F50001018C4F3400718183818FC40241806F17C
:100F6000280000EBC40AE700DAF80890D9F804007A
:100F7000C008C000B84218BF00F0C6F8D9F808B0E1
:100F8000D14508BF00F0C0F8D94508BF00F0BCF853
:100F9000D9F80400C008C000B84218BF00F0B4F887
:100FA000DA4506D1306808FA04F420EA0404346013
:100FB0000DE031698B4508D3DBF80C00484504D1BE
:100FC000CAF808B0CBF80CA001E000F09DF87F1B38
:100FD00045F0030009F10402C9F8040047F00101DB
:100FE000515109EB05020192D751B4684FEAD40A76
:100FF000BAF1200F28BF00F087F834B3CDF800A075
:1010000006F12800756900EBCA0AD346102C38BFD8
:1010100000F07AF83168009821FA00F2D30704D47E
:1010200008FA00F00843306007E0DAF80800316998
:1010300088422CBF834600F067F8CAF80850CBF806
:101040000C50C5F808B0C5F80CA0B76009F1080449
:101050000198706150E07068C0B329463046FFF7D0
:10106000EEFD040011D047E015F1400F28BF4FF00E
:10107000FF350AD20B35ED087068ED0028B129461E
:101080003046FFF719FC040036D1B068A8421DD3E2
:10109000411B726910290AD350197061B16041F087
:1010A00001034360415045F0030555600BE000210A
:1010B000B1607161131D40F003015160111D1C5896
:1010C00044F001040C5002F1080415E0F068854278
:1010D0000DD2401BB169F0604A19B26140F00100C5
:1010E000506045F003054D6001F1080404E0294615
:1010F0003046FFF729FB0446AFF300802046FFF798
:1011000020BB000090000020012000F053B8F0B494
:101110000246106895681318506803EB5004C00726
:101120001DD54D441BE013F8017B05F8017B491EDA
:10113000F9D1A0B1B60813F8011B06F00306032E7F
:1011400008BF13F8016B01EB06214942801C2944BA
:1011500005D011F8016B05F8016B401EF9D1A342CF
:101160000ED013F8016B16F0030104BF13F8011B36
:10117000C91C30090F28DAD113F8010B0F30D6E75C
:10118000F0BC02F10C0070470749086808B1002064
:1011900070470648C008C00008600549C908C90072
:1011A000091A0160704700BF200800202F1A002094
:1011B0002820002080B5AFF30080024A11001820DB
:1011C000ABBEFBE7260002002DE9F04F0FF2A41C96
:1011D000A1B0DCE90089CDE900892A9DDFF8109CE7
:1011E000049100248DF843500D944FF0FF3882464F
:1011F00016461F460FE0B3462C461BF8011B049809
:10120000D0470028049000F0A2800D98401C641E76
:101210000D90F2D176193078252808D100210022CE
:101220000791089209910A920B910C920DE06A467F
:101230004146304600F0D4FF050001D10D98A1E0F1
:10124000D9D50125E6E741F0010116F8010F202864
:10125000F9D023280CD02B2804D02D2805D03028F5
:1012600009D076E041F00201EFE741F00401ECE73C
:1012700041F00801E9E741F01001E6E70F9209E0CB
:101280000F98484505DA00EB800402EB4402303A3F
:101290000F92761C3278A2F130000A28F0D3307811
:1012A0002E2818BFCDF8388022D116F8010F2A2831
:1012B00007D138683860761C50F8042B38600E92DD
:1012C00016E02D280CBF761C002000220E920AE0AA
:1012D00040B90E9A4A4505DA02EB820403EB440357
:1012E000303B0E93761C3378A3F130020A2AEFD3F9
:1012F000ADF8401021A0317800F07CFF08B116F85D
:10130000010B8DF842009DF84200682804D1307826
:1013100068280AD1622105E06C2804BF30786C2867
:1013200003D171218DF84210761C12A806903A461E
:1013300016F8013B02A9504600F064F838B912AA29
:1013400002A9504600F0CAF900287FF564AF404674
:1013500018E02A2892D13A683A6052F8040B3A60B1
:1013600000280F9003D540420F9041F00401761CF5
:1013700095E700000000000000000000686A6C743F
:101380007A4C000021B0BDE8F08F622820D0682898
:1013900011D06A2803D06C2827D0712825D108687D
:1013A000C01D20F007000860D0E900230830086065
:1013B000194610467047002A0A680A60106803D070
:1013C000121D0A6000B217E0121D0A6080B217E019
:1013D000002A0A680A60106803D0121D0A6040B231
:1013E0000AE0121D0A60C0B20AE0002A0A680A6018
:1013F000106803D0121D0A60C1177047121D0A60E1
:10140000002170477CB50D4611461C462E69B4F18B
:10141000250200F051811C3A00F08680121F022A3A
:1014200040F282800E3A00F00B81521F5AD0093AE6
:101430007AD0921E16D0521E35D0521E022A73D96F
:10144000121F30D0521F00F09A80521E4AD0521EF6
:1014500000F0E480D21E00F00181921E42D0D21E24
:1014600040D02FE195F83A406C2C09D06869421CB5
:101470006A610A680A6052F8043B0A6033542BE13F
:101480000A680A6052F8043B0A6000930022019245
:101490004FF0FF332B636A46294600F09AF9002883
:1014A00040F11A8105E195F83A000122FFF76DFF3E
:1014B000C5E900010023994204DA6869411C6961A9
:1014C0002D220DE0288F810704D56869411C6961D0
:1014D0002B2205E0C00722D56869411C69612022E2
:1014E00032541CE095F83A000022FFF74EFFC5E9A0
:1014F000000195F83800010711D5D5E90023002037
:10150000834208BF82420AD044F02000782806D1E6
:10151000686930213154401C421C6A6134542146B0
:1015200068693044E86087E00868C01D20F0070063
:101530000860D0E9002308300860C5E90023D5E938
:101540000001C80F04D06869411C69612D220DE0BB
:10155000288F810704D56869411C69612B2205E049
:10156000C00704D56869411C69612022325468694A
:101570003044E8602146284600F03AFAACE005F134
:101580003A02507820B14FF0FF340FF6343074E057
:101590001078622808D0682824D06A2812D06C28D5
:1015A0002ED071280ED02BE00A680A6052F8040B86
:1015B0000A6020B94FF0FF340FF61C305DE0E96A95
:1015C000017089E00A680A6052F8040B0A6020B9C9
:1015D0004FF0FF340FF600304FE0EA6AD317C0E94E
:1015E000002379E00A680A6052F8040B0A6020B907
:1015F0004FF0FF340FF6E0203FE0E96A01806BE036
:101600000A680A6052F8040B0A6020B94FF0FF34F0
:101610000FF6C42031E0E96A01605DE00A680A6003
:1016200052F8040B0A60002120F0000221F0FF3381
:10163000C5E90023EE607821284600F02DF94BE043
:101640006C2285F83A200B680B6053F8042B0B6072
:1016500052BB4FF0FF340FF6B4200EE095F83A205D
:101660006C2AF0D00868086050F8044B0860EC6001
:101670003CB94FF0FF340FF6782000F0D5FD201A6A
:1016800076BD2E6B002E04D5204600F0EDFD0446FD
:1016900008E032460021204600F00EFE002814BF6C
:1016A000041B3446AC6117E0294600F092F800288C
:1016B00012D54FF0FF3076BD6869411C6961252263
:1016C000325409E06969481C68612522725421007E
:1016D00002D0431C6B613454002076BD2DE9F041EB
:1016E0000E4605469046726B7069316AB46A121AEA
:1016F000B069521A716A121AF069521A121A96F8DF
:101700003800141B41070DD4002C0BDD2746B068B0
:101710002021A8470028B06057D0F06A401C7F1EE7
:10172000F062F4D1736942463146284600F0B0FCBD
:1017300000284AD1376A002F0ADDB0683021A84757
:101740000028B06041D0F06A401C7F1EF062F4D1E6
:10175000B369F2683146284600F09AFCA8BB776A64
:10176000002F09DDB0683021A847B06068B3F06A87
:10177000401C7F1EF062F5D1F068B169F369421830
:101780003146284600F084FCF8B9B76A002F09DD1D
:10179000B0683021A847B060B8B1F06A401C7F1E25
:1017A000F062F5D196F8380041070BD5002C09DD21
:1017B000B0682021A847B06038B1F06A401C641EB0
:1017C000F062F5D10020BDE8F0814FF0FF30BDE8B8
:1017D000F0812DE9F8470D46A3B02F6B002F064688
:1017E000904648BF6FF000470FF63C1400F090FDA4
:1017F000D4E90023696B4018CDE90123812828BF73
:101800004FF0FF3042D20024002F33DDD8F8001013
:1018100001AA684600F0E6FC8146B9F1000F38D411
:10182000D8F8000010B9B9F1010932D44F4521DBD5
:101830006869484481280AD30021696303AA2946BC
:101840003046FFF74BFF040014D40020686103AB5F
:10185000D5F814A04A46694603EB0A0000F05EFD85
:10186000CA44C5F814A058F8040B002818BFA7EB09
:101870000907C9D14CB903AA29463046FFF72EFF04
:10188000044614B9002068616863204624B0BDE8AE
:10189000F0874FF0FF34F8E72DE9FC4707468C4608
:1018A0003E69BCF16F0F08BF082405D04CF0200042
:1018B000782814BF0A2410243C25D7E90023BCF162
:1018C000640F18BFBCF1690F9046994606D10021FC
:1018D0008B4203DAD8F1000869EB49094FF0000A9E
:1018E000D14508BFD0451FD1386BE8B9082C4BD182
:1018F00097F83800010747D530203B2586F83B0094
:1019000042E000280ED597F8380000F014001028A7
:1019100008D17B6B7969386A5B1A1B1A9A1A002AFC
:10192000C8BF3A62BDE8F3878DF800C0404649461B
:101930002246E31700F046FD3032D0B26D1E3A2841
:10194000019504DB9DF80000A0F151018A18725541
:10195000404649462246E31700F034FD894680465A
:10196000D14508BFD04503D0F86871198842DDD34E
:10197000082C09D197F83800010705D5705D30288B
:1019800002D06D1E30207055C5F13C02BA6171194C
:10199000F960386B8242B4DA821A3A624FF6EF701D
:1019A000398F01403987BDE8F3872DE9D0430646DA
:1019B0000F4614464FF00008DFF8389412E0E007B5
:1019C00007D542464B463046394600F013FE0646E0
:1019D0000F464046494642464B4600F00BFE641017
:1019E00080468946002CEAD130463946BDE8D0838E
:1019F0002DE9F34F054641F020048DB0D5E900896B
:101A0000612C02AE09D0286B002848BF062003D401
:101A100008BF672C01D101202863D5E900235800B5
:101A20004015401C0ED119030CD00320A8619DF86D
:101A3000381061391A2902D20FF2F46111E00FF265
:101A4000F4610EE059004915491C0FD118030DD15E
:101A50000320A8619DF8381061391A2914D30FF2B8
:101A6000DC61E868032200F059FCD3E1194621F05B
:101A70000043B3F5801F10460DD20027BB4208BFBC
:101A8000BA42019703D111E00FF2AC61E9E701AA74
:101A900000F082FE0AE0DFF8607307EB1352DFF814
:101AA0005C3301921940DFF858331943C5E900014E
:101AB000612C0ED1E86830210170821CEA609DF82B
:101AC000381061290CBF7821582141706869801C49
:101AD0006861D5E900AB2BF0004300202AF000023A
:101AE000834204BF8242002300F05B81612C40F0FE
:101AF000AA80286B002847BF21210091401C00903C
:101B0000009F7F1C404649460022002300F07CFED7
:101B1000D94601998DF8082038BF89F00049091F7E
:101B2000002FD04601910DF1090040F34981B349DE
:101B3000DFF8D0B20C910646404649460022002309
:101B400000F07AFE80F03B814800400D00F11C025D
:101B500011D0002A0FDD40F2FF70824205DB09F050
:101B6000004040EA0B01002013E00C98014041EADC
:101B7000025140460DE029F00043002028F0000209
:101B8000834208BF82420FBF40461C22404600F0FD
:101B90006BFE8046894600F005FFFF1F002F0446BC
:101BA00009DD00F01DFF02460B464046494600F0A5
:101BB00029FF80468946F01D072104E004F00F024A
:101BC00000F8012D2411002C01DD491EF6D5491E17
:101BD0005CBF002200F8012DF9D5ECE00020194689
:101BE00002AA0A4400E05B1E12F80149491E844221
:101BF000F9D00F2804D10DF10900425C521C425467
:101C0000002904D50198001D02AE5B1C0190591EED
:101C100012D49DF838007218A0F13A07147804F134
:101C200030085FFA88F43A2CA8BFB844491E02F87D
:101C30000189F3D58DF83800286B002840F1B08079
:101C4000591E2963ACE0404649460022002300F0BB
:101C5000DBFD019938BF89F0004947F297504143B5
:101C6000694A91FBF2F20192D2F1070204DD40468B
:101C70004946FFF79AFE0AE0524200206349FFF707
:101C800094FE02460B464046494600F02DFF804632
:101C9000662C286BDFF878B106BF019F0A3706274C
:101CA0003F18142FC8BF142730208DF8080089462C
:101CB0000DF1090000E03046002F34DD06464046B5
:101CC000494601F035F801460A4606F108030420AA
:101CD0000A26B2FBF6F606EB860EA2EB4E02303277
:101CE00003F8012C0A22B6FBF2F202EB820EA6EBFD
:101CF0004E063036401E03F8026DE9D1083F002F32
:101D000003F10806D7DD084601F026F802460B4627
:101D10004046494600F076FE00225B4600F06AFC31
:101D200080468946CBE70DF10901401A0DF10906FD
:101D300004E00199491E401E0191761C317830293A
:101D4000F7D0662C02D10199491C03E0652C0CBF29
:101D5000012100212B6BCB189842B8BF431E002BEA
:101D60001ED4834204DAF05C3528A8BF392000DA9B
:101D700030201946721E02EB010800E05B1E18F8C5
:101D80000199491E8145F9D0392802D1705C401C67
:101D90007054002904D50198401C16465B1C019024
:101DA000019800B200901BB29DF8381032462846C8
:101DB00000F034F82EE0C61D002F3FF7BDAE3046D0
:101DC0000DF10901401A009903468842C8BF0B462D
:101DD000002B0DF109063FF52FAF8342BFF6FEAE93
:101DE0000DF10900C15C07297FF7F8AE0F20F6E678
:101DF000CBCCCC0C0000244002FCFFFFFFFF0F8087
:101E00000000E03F0000F07FA08601000000F03FEE
:101E100084D797410FB0BDE8F08F00002DE9F84757
:101E200083B006468A461746984600F0DDF9B8F1B9
:101E3000000F406A356B90F8009002DC4FF001080B
:101E4000BFA74AF02000BDF93040662808BF641CD7
:101E500015D0672840F0848014F1040FC0F286800A
:101E6000AC4280F2838096F83800641C010702D4EB
:101E7000A845B8BF454620B22D1A48BF00250FFA25
:101E800084FAF068B169BAF1000F25DC4A1C3023EE
:101E90004354002D03DC96F83800010703D5F068A1
:101EA00000F80290521C15EB0A0FB8BF6C4220B22A
:101EB000441941424445B8BFA046B26171620FFA6D
:101EC00088F5F561F068B3692A463946184400F090
:101ED00025FA641BB462C4E022B29045084417DAC4
:101EE0004246394600F01AFAB0694044B061AAEBA4
:101EF0000801002D716203DC96F838100A0705D539
:101F0000F16801F80090F069401CF061B562A8E04A
:101F1000394600F003FAB069002D5044A8EB0408DC
:101F200003DC96F838100A0703D5F16801F8009031
:101F3000401CB0610FFA88F08542F368B069B8BF01
:101F4000A8460FFA88F207EB0A01184400F0E6F9F8
:101F5000B1690FFA88F00144B161281A706280E01B
:101F6000BAF1610F14D14FF0700A16E0A84504DAF7
:101F700096F838100A0758BF45466D1E48BF002521
:101F8000BAF1670F14BF4FF0450A4FF0650A04E03D
:101F9000BAF1410F08BF4FF0500AB169F368481C0D
:101FA000B061002D17F8012B5A5403DC96F8381055
:101FB0000A071BD5F168431CB36101F80090002D9E
:101FC00014DDA8F101080FFA88F039468542F76858
:101FD000B8BFA8460FFA88F2F81800F09FF9B06968
:101FE0000FFA88F108446D1AB0617562F068B16942
:101FF0000844002C80F800A003D42B224270811CDE
:1020000003E02D2141706442811C00206A460AE0F1
:1020100023460A2493FBF4F404EB8405A3EB450365
:1020200002F8013B401C24B2002CF1DC012806DC44
:102030004AF02002652A04BF302201F8012B48B97A
:10204000302001F8010B07E0401E1DF8003030334E
:1020500001F8013B0028F7DCF268B0691044091A66
:10206000F16196F8380000F0140010280DD1726963
:10207000B169706A8A18F1698218B06A8A18821880
:10208000706B8242BCBF821A326204B0BDE8F08736
:10209000F8B505460E4617461C46002074B117F8E1
:1020A000011BB068A847B06030B1F06A401CF06214
:1020B0000020641EF3D1F2BD4FF0FF30F2BD0000EE
:1020C0007072696E74665F733A20256E206469735E
:1020D000616C6C6F776564007072696E74663A202B
:1020E00062616420256E20617267756D656E740093
:1020F0007072696E74665F733A2062616420257342
:1021000020617267756D656E740000007072696E93
:1021100074665F733A2062616420256C732061727B
:1021200067756D656E74000000000000000000001F
:102130006E616E004E414E00696E6600494E46006B
:10214000300030B4002513E050F8042BD30744BF0F
:10215000A9F101039A18091F042942F8045BFAD275
:1021600013468C0744BF15809B1CC90748BF1D70D0
:1021700050F8041B0029E7D130BC70471B4870475A
:1021800070B45368D418042B09DA41B1057804F807
:10219000015B10F8016B16B15B1C491EF3E753603D
:1021A00070BC704738B514461D4661B1FFF7E8FFB3
:1021B00061686A6B204690476FF00102811A02D075
:1021C000491E01D001E003E005E00021616032BD5D
:1021D0006FF0010032BD4FF0FF3032BDDA6B1047B7
:1021E000024BDFE7014BF9E7014870474800002048
:1021F000100000200278C9B28A421AB11CBF10F840
:10220000012FF9E718BF00207047B1F5807F02D396
:102210004FF0FF3070470170012070470078401E7A
:102220008041C043C00F704780B500B906A0054982
:102230000B681BB122220021984701E0FEF764FFE2
:10224000222002BD1C080020636F6E7374726169E6
:102250006E742068616E646C65723A2062616420FD
:102260006D6573736167650000F10103810704D038
:1022700010F8011B820781B1FAD10268A2F1013185
:10228000914311F0803104BF50F8042FF6E709BAEA
:10229000B1FA81F100EBD100401CC01A704782688E
:1022A000521C8260426832B10268531C0360117094
:1022B0004168491E41607047C9B2830706D0521E6B
:1022C00022D310F8013B9942F7D11FE0083A13D30B
:1022D00002F1040241EA012141EA014150F8043BC4
:1022E000121F21BF4B40A3F1013C2CEA030C1CF050
:1022F000803FF3D0C9B2001F083210F8013B521ED4
:1023000028BF91EA030FF8D818BF0120401E70477C
:1023100080B5FFF733FF006C02BD000062B38B078E
:1023200008D0521E11F8013B00F8013B00F0248058
:102330008B07F6D1830740F0208000BF103A07D307
:1023400030B4B1E83810103AA0E83810F9D230BCF7
:10235000530724BFB1E80810A0E8081044BF51F8A3
:10236000043B40F8043BD20724BF31F8022B20F88D
:10237000022B44BF0B7803707047121F17D35B000A
:1023800009D151F8043B20F8023B1B0C121F20F826
:10239000023BF6D20BE051F8043B00F8013B1B0A6C
:1023A00020F8023B1B0C121F00F8013BF3D238BF90
:1023B000121D521E24BF11F8013B00F8013BF8D852
:1023C00070470000BBBBE1B1B2F5803F80F07E807A
:1023D000022A1ED98C46B1FBF2F102FB11C31B0489
:1023E00043EA1043B3FBF2FC02FB1C3380B240EA29
:1023F0000343B3FBF2F002FB103240EA0C4000232F
:102400007047022A05D98446B0FBF2F002FB10C2E5
:1024100070474AB105D100F0010249085FEA300077
:10242000704700220023704700F0A4BC0B0002009C
:10243000002100207047904271EB030CF6D3B3F5F6
:10244000803F2FD2F0B5B3FA83F7B1FA81F4A7F148
:102450000F0E3D1B5340CEF1200602FA0EF2F3415F
:102460005340B5F10F0746D80F3C2C444140C4F10E
:102470002006A040F1414140B1FBF3F603FB1611E9
:10248000A2FB0645001BA94102D2761E80185941C5
:1024900080EA010221FA0EF362FA0EF200215A409C
:1024A0003046F0BD30B4B1FBF3FC03FB1C11A2FBC2
:1024B0000C45001BA94103D2ACF1010C8018594115
:1024C00030BC02460B46604600217047B2F1807F67
:1024D00065D3F0B5B2FA82F7B1FA81F4C7F10F060D
:1024E0003D1B22FA06F307F1110EF24120355A4046
:1024F000B5F10F07B8D94140C4F12006A040F14121
:102500004140B1FBF3FC03FB1C11A2FB0C45001B7B
:10251000A94103D2BCF1010C801859410F2F12D3ED
:102520000F3FC90341EA5041B1FBF3F603FB16111B
:10253000A2FB0645D4EBC030A94102D2761E80181A
:10254000594146EACC3C07B34140C7F12006B840A8
:10255000F1414140B1FBF3F603FB1611A2FB064526
:10256000001BA94102D2761E8018594180EA01025F
:1025700021FA0EF3C7F1200462FA0EF20CFA07F00A
:102580005A402CFA04F13043F0BD80EA010221FAEE
:102590000EF3002162FA0EF260465A40F0BD8C46FE
:1025A000B1FBF2F102FB11C31B0243EA1063B3FB60
:1025B000F2FC02FB1C331B024CEA002043EA1063CE
:1025C000B3FBF2FC02FB1C331B024CEA002043EA83
:1025D0001063B3FBF2FC02FB1C331B024CEA00202D
:1025E00043EA1063B3FBF2FC02FB1C324CEA00200E
:1025F00000237047B0B581EA030C0CF0004C40F2A8
:10260000FF7515EA11541DBF15EA1357AC42AF42CE
:1026100039E0E41923EA455343F48013C90241F039
:10262000004141EA505EC7021100A7FB02020028E8
:102630004FF00000EEFB01204FF00001E3FB07210B
:1026400018BF42F00102401800214941E3FB0E018E
:10265000A4F580640F0302D252004041494154F175
:1026600001046CDD470872F1004250F1000051EBAB
:102670000451A1F580115CBF41EA0C01B0BD4CEAE8
:1026800005510020B0BD05EA1357AC4214BFAF425C
:1026900041E050EA410E1CBF52EA430E02E061469F
:1026A0000020B0BD24423C441BD15FEA070EF6D0A7
:1026B000090302BF01460020AEF1140EB1FA81F702
:1026C000AEEB070401FA07FE0C37C7F1200100FA50
:1026D00007F7C8404EEA000E23EA455343F480133F
:1026E000A2E733F00043B3FA83F704BFB2FA82FEE5
:1026F00077440B3FE41BB7F1200E2FBF02FA0EF315
:10270000BB40C7F1200E22FA0EFE38BF43EA0E038B
:10271000BA40641C82E750EA410E14BF52EA430EED
:102720006FF000014FF4001717EB430F8ABF1946F3
:1027300017EB410FB5E74CEA05510020B0BDD4F1CD
:102740000104B4F120070FDAC4F12007520828BFB2
:1027500042F0010210FA07F501FA07F7E1BF2A4338
:10276000E0403843E1400FE0352C98DCC7F120040D
:1027700052EA400220FA07F218BF42F0010231FA91
:1027800007F0A1400A43002172F1004250F100001D
:1027900051EB0C01B0BD000010B5144600F002F87A
:1027A000226010BDC1F30A5343B14A0012F5001F65
:1027B00028D2A3F2FE32A1EB0251704750EA410C3D
:1027C00020D001F0004C31EA0C01B1FA81F204BFD3
:1027D000B0FA80F3D2180B3AB2F120032CBF00FA02
:1027E00003F1914041EA0C013EBFC2F1200C20FAF6
:1027F0000CF319439040524240F2FD33D21A01EBE0
:1028000003517047002270474FF4001C1CEB410F2E
:1028100094BF1CEB430F09E041EA030C50EA4C0C57
:1028200052EA0C0C03D2994208BF9042704714BF81
:102830008B428242704700004FF4001C1CEB410F9A
:1028400094BF1CEB430F09E041EA030C50EA4C0C27
:1028500052EA0C0C03D28B4208BF8242704714BF6D
:102860009942904270470000124254D440F2FF7CDB
:102870001CEA11530FD0634531D09B1863453CBF10
:1028800001EB0251704701F0004141EA0C51002078
:10289000AFF30080704750EA410320D001F0004CB4
:1028A00091EA0C011CD0B1FA81F30B3B9A420DD98D
:1028B000D21A994051EA0C01C3F1200C20FA0CFC09
:1028C00061449840531C40F2FF7CD7E7914041EAB5
:1028D0000C01C2F1200C20FA0CF319439040704710
:1028E000B0FA80F31533202BE0D3202AEED3203A20
:1028F000203B9A4209D9D21A00FA03F141EA0C01AD
:102900000020531C40F2FF7CB8E700FA02F141EAD4
:102910000C0100207047524240F2FF7C1CEA115328
:102920000DD06345DBD0B2EB030C3CBFA1EB0251F1
:1029300070470CF1010221EA035141F4801150EA81
:10294000410CCCD001F0004C352A27DC30B481EAB0
:102950000C01B2F1200309DAC2F12003044601FAA6
:1029600003F5D0402843D1409C400CE0C3F1200245
:10297000450020FA03F418BF44F0010421FA03F0E3
:1029800091400C43002174F1004550F1000051EBDF
:102990000C01244230BC7FF47BAF704761460020BD
:1029A00076E70000C1F30A5340F2FE329B1A14DDB1
:1029B000D3F120034FEAE17208DDC90241EA505128
:1029C00041F00040D84080185040704703F2E13099
:1029D00010B1D24382F000407047002070470000E1
:1029E000C11768B14840401AB0FA80F29040D21C3A
:1029F000C907C2F5846241EA025202EBD0214005C8
:102A00007047000070B44FF0004591EA030F40F1A9
:102A1000B3816B40841A71EB030603D2001BB141F2
:102A2000121973414FF4001C1CEB410F34BF7CEBB7
:102A3000430442E00C0DA4EB1356352E4FDC45EA5F
:102A4000C323DB0A45EAC121C912B6F120050DDD19
:102A500063FA05F6EB4086EA0305124218BF45F01B
:102A60000105C01851F100010CD213E062FA06F51D
:102A7000F2405540F3415A40B340F3405A40801869
:102A8000594107D349085FEA30005FEA350528BF9E
:102A900045F0010501F58011420875F1004250F141
:102AA000000041EB04514E0016F5001F70BC38BF0A
:102AB00070470020090D090570471CEB410F10D22B
:102AC00052EA43060BD0BCEB410F05D80C0DAB43CB
:102AD000661E342EB6DD02E0AB438018594170BC4F
:102AE000704770BC70470000F0B540F2FF7581EA96
:102AF000030C0CF0004C15EA11541DBF15EA1357D6
:102B0000AC42AF42E5E0BC41C1F31301C3F3130390
:102B1000801A994143F4801304D2641E4000494155
:102B200080185941C90241EA5051B1FBF3F603FB49
:102B30001611A2FB0675D7EBC020A94102D2761E62
:102B400080185941C90241EA5051B1FBF3FE03FB21
:102B50001E11A2FB0E75D7EBC020A94103D2AEF126
:102B6000010E80185941890241EA9051760546EAE2
:102B70008E2EB1FBF3F603FB1611A2FB0675D7EB05
:102B80008020A94102D2761E80185941C90241EA2B
:102B900050514EEA060EB1FBF3F603FB1611A2FBF1
:102BA0000675D7EBC020A94102D2761E8018594184
:102BB000C90241EA5051B1FBF3F703FB1711A2FB25
:102BC0000735D3EBC020A94167F100070CBF0042D5
:102BD00047F0010766F3D5274FEA1E31B80814F510
:102BE000806412DDBD0775F1004250EB0E5051EBD1
:102BF000045111F5801F5CBF41EA0C01F0BD4CF09F
:102C00007F6141F0E0410020F0BDBD076D0840EA62
:102C10000E5041F48011D4F10104B4F120060ADA17
:102C2000C4F120060200E04001FA06F3E140184337
:102C3000B24015430EE0342C13DCC6F1200445EA03
:102C400040056D0820FA06F2154321FA06F0A1406E
:102C50000D43002175F1004250F1000051EB0C01D1
:102C6000F0BD00205FEA0C01F0BDCFB992185B41C6
:102C7000B3FA83F704BFB2FA82F6BF190B3FB7F17C
:102C800020062FBF02FA06F3BB40C7F1200622FA46
:102C900006F638BF3343BA401CB1E419641E33E76B
:102CA0007F4231F00041B1FA81F404BFB0FA80F6FE
:102CB000A4190B3CB4F120062FBF00FA06F1A14085
:102CC000C4F1200620FA06F638BF3143A0403C1B71
:102CD0001AE7AC421ABF05EA1357AF4212E050EAB6
:102CE00041061CBF52EA4306BFE750EA410730469F
:102CF00061461CBF41EA0551F0BD52EA430C08BFD2
:102D0000C143F0BD00204FF4001616EB410F98BFF1
:102D100016EB430F08BF16EB410F24BFC14305E07C
:102D200016EB430F0CBF61464CEA0551F0BD0000A5
:102D3000400D491840EA81200CD2490DA1F580616F
:102D4000491C40F0004005DBD1F11F0154BFC840D1
:102D5000C017704700207047014648B1B0FA80F1B3
:102D60008840C91CC1F58461090501EBD0214005EB
:102D70007047000070470000841A71EB030604D20C
:102D80006E40001BB141121973414FF4001C1CEB43
:102D9000410F34BF7CEB430683E00C0DA4EB1356CC
:102DA000362E00F37C80012E45EAC32341DC43EA42
:102DB000525312BFD20292025B08240545EAC12198
:102DC00041EA5051D2EBC020994125D407D1B0FA45
:102DD00080F610FA06F162D00020203608E0B1FA41
:102DE00081F6B140C6F1200220FA02F21143B04050
:102DF0004FEAF474B4EB465434F001064FEA74041D
:102E00000AD8D6F50016760D04F00044F04061FAB9
:102E100006F25040F1404840C00A40EA415021F0DB
:102E2000004128BF5FEA500550F1000044EBD1217A
:102E300035E0DB0A45EAC121C90AB6F120050EDDFD
:102E400042EA0242120CC5F1200603FA06F6EB40F4
:102E500042EA06056D42984161F100010DE062FA17
:102E600006F5F240554063FA06FC82EA0C02F34094
:102E70005A406D42904161EB030111F4801F05D16E
:102E8000641E620502D06D004041494121F4801169
:102E9000430875F1004350F1000041EB045170BC50
:102EA00070471CEB410F15D223F0004352EA430652
:102EB0000BD04FEA4C0CBCEB410F04D80C0D661E36
:102EC000342EB7DDEBE7801A994150EA410608BF7E
:102ED0000021E4E708BF1CEB430F28BF6FF000019F
:102EE000DDE7000038B5040001D1012032BD00F05B
:102EF00021F808B900F022F800F012F800F023F8E9
:102F0000FFE7416100F001F832BD2068C16841F47B
:102F10000051C1600020686020216970A97070476D
:102F2000242068702068C16821F40051C1602046E7
:102F300000F035BA04F1380568787047002129702F
:102F4000204600F035BB2068016921F49041016101
:102F50002068416921F02A01704770B5044604F1E8
:102F6000380513466878202831D109B1180001D1FD
:102F7000012070BD2878012829D001202870216205
:102F8000A384E3840020686021226A700FF2852008
:102F9000226BD063226B0FF2A9201064226B0FF218
:102FA000E920D0640020266B30652068021D206B6C
:102FB00000F005FD21686FF04000086000222A70D3
:102FC0002068416941F080014161002070BD02200C
:102FD00070BD7CB5044604F138051346A878202856
:102FE0003ED109B1180001D1012076BD2878012811
:102FF00036D001202870A162A38500226A602220B9
:10300000A8700026606B0FF24122C263606B0FF262
:1030100071220264606B0FF27122C2640A46606B17
:1030200006652668606B311D00F0C9FC0020009029
:1030300021680A68009200224B68009300982A7069
:10304000CB6843F48073CB602068416941F0010193
:1030500041612068416941F040014161002076BD35
:10306000022076BD38B5044604F13905206841696F
:103070002A78212A0CD109060AD5426922F0800259
:103080004261206B08B100F0D0FC204600F021F92D
:10309000206841696A78222A0CD149060AD542691A
:1030A00022F040024261606B08B100F0BEFC204695
:1030B00000F018F9002032BD416921F04001416162
:1030C000606B704738B5044625682968EA686B6903
:1030D00011F00F0007D188065DD593065BD5204619
:1030E000BDE8324012E1D80702D412F4907F52D0EA
:1030F000C80705D5D50503D5E06B40F00100E063B6
:10310000480705D5DD0703D5E06B40F00200E0631A
:10311000880705D5DD0703D5E06B40F00400E063C8
:10312000080705D5DB0703D5E06B40F00800E06336
:10313000E06B00286CD0880604D5910644BF204679
:1031400000F0E4F820684069E16B0A0701D440060A
:103150001BD5204600F0C6F8206841694A060FD505
:10316000FFF7AAFF60B10FF299110165606B00F0E3
:10317000A0FC00284CD0606B016DBDE834400847CE
:103180002046BDE8324000F083BB204600F080FBC3
:103190000020E06331BD08062AD5130628D594F82F
:1031A0003900212834D1A068B0F5805F206A0BD1A6
:1031B0000188C1F30801696020690028206A0CBFFA
:1031C000811C411C216203E0411C2162007868607F
:1031D000E08C401EE08480B2D0B92068C16821F044
:1031E0008001C1602068C16841F04001C16031BD0B
:1031F00048060DD551060BD5E86820F04000E86080
:10320000202184F839102046BDE8324000F064BD2A
:1032100031BD0000816B00680268D30544BF0846D9
:1032200000F05ABD0020C8840868426922F080027C
:1032300042610868C16841F04001C1607047000008
:10324000806B00F04ABD0000816B00680268D30506
:1032500013D40020C8850868C26822F48072C26056
:10326000086842695208520042610868426922F0C7
:1032700040024261202081F83A00084600F02EBD4D
:10328000806B00F02CBD000038B5846B206840696D
:1032900004F139052978212906D1010604D5002237
:1032A000E284204600F015F82168486969782229EF
:1032B00006D1400604D50021E185204600F012F831
:1032C000E06B40F01000E0632046BDE8324000F0C3
:1032D000DFBA0168CA6822F0C002CA60202180F803
:1032E000391070470168CA6822F49072CA60016898
:1032F0004A69520852004A61202180F83A1070470A
:10330000806B0021C185C18400F0C2BA80B590F8FD
:103310003A10222941D18168B1F5805F12D101694B
:103320000368826A0029596805D1C1F30801118038
:10333000826A911C04E001F0FF011180826A511C35
:1033400081620FE001690029816A04D14A1C82620E
:1033500003685A6805E04A1C826203685A6802F0F2
:103360007F020A70C18D491EC18589B299B9016871
:10337000CA6822F02002CA600168CA6822F480721A
:10338000CA6001684A69520852004A61202180F8E7
:103390003A1000F0A3FC002002BD022002BD2DE97E
:1033A000F0470446642522681169E06821F4405121
:1033B000014311611926D3684948A1680340206977
:1033C0000B4361690343E0690B430343D3605169D5
:1033D000A06921F4407101435161E36941484249C8
:1033E000B3F5004F3BD18A4218BF82420ED100F0A4
:1033F00004FD074600F001FD804600F0FEFC81461A
:1034000000F0FBFC824600F0F8FC0DE000F0EDFC63
:10341000074600F0EAFC804600F0E7FC814600F039
:10342000E4FC824600F0E1FC6168490000F06DF8C0
:10343000AE46BCFBFEFE05FB1E77FF003237642361
:10344000B7FBF3F35B0003F4F87300F04FF8ED0003
:1034500032356420B5FBF0F000F0070039E08A4215
:1034600018BF82420ED100F0C8FC074600F0C5FC30
:10347000804600F0C2FC814600F0BFFC824600F0AE
:10348000BCFC0DE000F0B1FC074600F0AEFC80464D
:1034900000F0ABFC814600F0A8FC824600F0A5FCE1
:1034A0006168890000F031F8AE46BCFBFEFE05FB0A
:1034B0001E773F0132376423B7FBF3F303F0F003C9
:1034C00000F014F82D0132356420B5FBF0F000F067
:1034D0000F002168C3188B60BDE8F0870000000072
:1034E000F369FFFF001401400010014003EB0213D9
:1034F00006FB0AF74643B7FBF1F2B6FBF1F0642195
:10350000B0FBF1F105FB112570477743B7FBF1F3F1
:103510006422B3FBF2F206FB08F3B3FBF1F706FB00
:1035200009F3B3FBF1FC704780B5DFF81C03DFF84B
:103530001C1300F01BF800B10AE001BD80B5DFF8F4
:103540001003DFF8101300F011F800B100E001BD26
:10355000BDE8014000F02ABD80B5DFF8FC02DFF8CD
:10356000FC1200F003F800B1F2E701BD01604FF476
:10357000E13200230C2142608360C360036141613A
:103580008361C361FFF7AEBC80B5DFF8D402DFF81A
:10359000D412FFF7EBFF00B1DAE701BD80B5DFF829
:1035A000C802DFF8C812FFF7E1FF00B1D0E701BDA4
:1035B0002DE9F04786B004466846142100F0F8FC77
:1035C0002368A24DAA48AB4AAB424FF4406120D1D8
:1035D00000230593146944F4002414610024136942
:1035E00003F400230593059B0594156845F0040535
:1035F0001560136803F0040305930222059B0192F2
:103600000123029300910322082303920493694645
:10361000AFE0904DDFF860A2AB4236D100210591BA
:10362000136943F4801313610023116901F48011BD
:10363000059105990593146844F004041460116819
:1036400001F004010591059905930223146844F0E3
:1036500008041460116801F0080105914FF48052CC
:1036600005990092019301220292032308220393F9
:1036700000F0DEF8022101220191029204200321D0
:10368000082200900391049271E074487B4D8342BC
:1036900005F184064FF480784FF480674FF000699D
:1036A00047D1002105915069DFF8D4A140F0100006
:1036B0005061506900F010000590059805914FF495
:1036C000C061136843F001031360106800F001004B
:1036D0000590022205986B4800F0AEF80491039221
:1036E00000F0A7F80AF1780028604021002000F0DF
:1036F00092F808B100F05AFC25630020AC63C5F8CD
:1037000060A0C5F86490A866E8662F676867A86738
:10371000C5F880003060C5F87C8005F1600000F0DD
:10372000D7F808B100F042FC05F1600060637461F5
:103730006EE04C4883421FD100210591106940F48E
:1037400000301061106900F4003005900598059173
:103750006021136843F008031360106800F008004C
:1037600005900222059800F067F8039204916946DB
:10377000504600F021FC4BE03C48834248D10023F6
:1037800005931069DFF800A140F4802010611069F2
:1037900000F48020059005980593106840F0020021
:1037A00010601268394802F002020592059A0091F1
:1037B000012202210191029203210391072200F0CC
:1037C00037F80020C6F83CA0C6F840907064B0649A
:1037D000F764C6F8588030657065F065306605F1AD
:1037E000C008404600F074F808B100F0DFFB05F5B2
:1037F00090750AF13000C4F8348028604021002020
:10380000746700F008F808B100F0D0FB2563AC63E2
:1038100006B0BDE8F087C5F80490A960E8602F61A4
:103820006861A861E86128626862284600F050B8C3
:103830000492694600F0C0BB0091019201210291FF
:1038400003220721704700006C060020004C004056
:10385000AC06002000500040EC06002000100140A3
:103860002C070020004400406C0700200048004066
:103870000008024030380240000C0240680200207C
:103880004064024000000240286002400004024000
:10389000006801680268D30703D541686FF0010230
:1038A00002600368990703D542686FF00201016066
:1038B0000368590703D542686FF00401016003688B
:1038C000190703D5C2686FF0080101607047000056
:1038D00070B5044600F05CFC06460CB9012070BDD2
:1038E00004F1340500202870022169702068026804
:1038F00052085200026022681068C10722D500F009
:1039000047FC801B0628F6D320202862032169701B
:10391000032070BDB0F5005F09D1032E42D8DFE867
:1039200006F00C0A0C02B1F1C07F3BD105E0022E7B
:1039300003D9F61E36D1C80134D5402129620120B1
:10394000687070BD1368DFF8240361680340A068E5
:103950000B43E168034320690B4361690343A0699A
:103960000B43E1690343206A0B43616A0343042963
:1039700003D1E16A206B01430B43136023685A694A
:10398000606AD208042840EAC2020BD1A66AE16A42
:10399000324339B1A0690028BCD1002E18BF022ED5
:1039A000C9D0C0D35A61204600F07EF9A96A3F22EF
:1039B0008A408260002028620121697070BDF8B5DC
:1039C000044604F1340600253078776A012801D1D5
:1039D0000220F2BD012030707078012821D1022030
:1039E00070703562204600F04FF9B06A3F2101FA4D
:1039F00000F0B8602068016841F01601016020689D
:103A0000416941F080014161F06820B1206801689E
:103A100041F0080101602068016841F00101016086
:103A200001E0357002252846F2BDF8B5064606F1DC
:103A30003404656A00F0ACFB07466078022805D0C4
:103A400080212162002020700120F2BD30680168D1
:103A500021F0160101603068416921F08001416167
:103A6000E068002804BF6069002802D0306800F0D8
:103A700006F930680168490849000160306801684A
:103A8000CA070CD500F084FBC01B0628F6D3202003
:103A9000206200212170032262700320F2BDA06A1F
:103AA0003F218140A9600122002121706270002025
:103AB000F2BD90F83510022903D080224265012022
:103AC0007047052180F835100068026852085200DE
:103AD0000260002070472DE9FC41044604F13406E1
:103AE0000020634900904FF41650776A0A683D68D9
:103AF000B2FBF0F8B06A082100F0BDF80ED02068E3
:103B0000026853070AD5026822F004020260B06A14
:103B10008140B960316A41F001013162B06A25FA31
:103B200000F1CA070BD521684A69110607D50122A1
:103B300002FA00F0B860306A40F0020030620421FE
:103B400000F098F808D021680A68930704D5B86097
:103B5000306A40F004003062102100F08BF819D078
:103B600021680A68130715D5B860206801684A0300
:103B700007D50068010309D5716959B12046884706
:103B800008E00168CA0501D400F079F8F16809B1CC
:103B900020468847B06A202100F06DF843D02168A4
:103BA0000A68D3063FD5B86020687178052920D10E
:103BB000026822F0160202602068416921F080014B
:103BC0004161F068002804BF7069002802D02068B5
:103BD00000F055F83F22B06A8240BA60002131708F
:103BE00001227270F16900293CD02046BDE8FC41F9
:103BF000084701684A0307D5006801030FD43169FB
:103C000089B1204688470EE00168CA0507D40168DB
:103C100021F0100101600020307001227270B16843
:103C200009B120468847306AE0B1306AC10713D530
:103C300005207070206801684908490001600098FB
:103C4000401C8045009003D320680168CA07F6D461
:103C50000020307001217170B16919B12046BDE8B2
:103C6000FC410847BDE8F381000000003F8010F0F0
:103C70000C000020B06A01FA00F0054270470168AC
:103C800021F008010160704730B50468256825F40B
:103C90008025256063608068402802D1A260E160D1
:103CA00030BDA160E26030BD30B5016808A401F00C
:103CB000FF02103A1823B2FBF3F2890A8902A55CCD
:103CC000C565042A28BF091D8165084630BD00006E
:103CD00000061016000610167047704770477047B0
:103CE0002DE9F04104000F4677D0494E306800F0CE
:103CF0000F00B84202D200F072F86ED12068454D34
:103D0000810712D5400703D5A96841F4E051A960A5
:103D10002078010703D5A86840F46040A860A9682E
:103D2000A06821F0F0010143A9602178C8074CD5B3
:103D30006068012802D129688A0305E0022818BFBB
:103D4000032803D129688A0103D446E029688A0739
:103D500043D5A968890840EA8100A86000F018FAF4
:103D60008046A868616800F00C00B0EB810F2CD091
:103D700000F00EFAA0EB080041F289318842F0D33E
:103D8000032020E02078410705D5AA68E06822F4E6
:103D9000E0520243AA602178080706D5A968206985
:103DA00021F4604141EAC001A96000F03DF8AA6831
:103DB00019491A4BC2F30312895CC84018600020ED
:103DC00000F0ECF90020BDE8F081306800F00F0051
:103DD0008742D7D200F003F8D4D00120F3E7377040
:103DE000316801F00F01B94270470C480C4A006875
:103DF00013680C49C3F3822206E00848084A0068A9
:103E000013680849C3F34232895CC8407047000018
:103E1000003C024000380240546000080C000020C2
:103E2000083802402061000830B5144C606800F08A
:103E30000C00042802D0082802D01DE0104830BD34
:103E4000226820680023410202F03F0204D5256861
:103E50000B49C5F3881003E020680A49C0F38810B5
:103E6000A1FB0001FEF7AEFA2168C1F30141491C34
:103E70004900B0FBF1F030BD024830BD04380240CB
:103E800000127A000024F40080B500F0A7F900F0D9
:103E90003BF800F0BDF900F0D3FA00F00DFBFFF79E
:103EA0005BFBFFF771FBFFF779FBFFF747FBFFF7C2
:103EB0003BFB00F0AFFB00F057FB00220121142078
:103EC00000F060FC142000F07AFC00220121252083
:103ED00000F058FC252000F072FC00220121262071
:103EE00000F050FC262000F06AFC0022012127206F
:103EF00000F048FC272000F062FC2849284800F028
:103F000089FC00F098FCFCE780B592B006A830214F
:103F100000F04EF801A8142100F04AF800200090AB
:103F20004FF480331F48016841F080510160002147
:103F3000006800F08050009000981B4800910268D3
:103F400042F4804202600122006800F48040009048
:103F500006A80099069202214FF480020C910D925E
:103F60000421A8220E910F9202210422079310919E
:103F7000119200F081FC02210291002203920F2095
:103F80004FF4A051019004914FF480520592052105
:103F900001A8FFF7A5FE13B000BD0000AC0700208C
:103FA0006C0700204038024000700040704700005D
:103FB000002200F0DDBD00002DE9F84703460C4665
:103FC0004FF0000867480F210122256802FA08FC1B
:103FD0000CEA0509E14540F0B9806568022D18BF7B
:103FE000122D4FEA880A10D14FEAD80503EB850E4F
:103FF0000AF01C06DEF8205001FA06F7BD432769D7
:1040000007FA06F63543CEF820504FEA480E03254E
:104010001E68277905FA0EF5ED4307F003072E40D9
:1040200007FA0EF73E431E606668012E18BF022E87
:1040300003D0112E18BF122E10D19E68E7682E40B3
:1040400007FA0EF73E439E605E6826EA0C07666834
:10405000C6F3001606FA08F63E435E60DE68354099
:10406000A66806FA0EF63543DD606568ED006DD58D
:10407000002500954FEA980C05683B4F45F48045B4
:1040800005600AF00C0A056805F480450095009D5E
:1040900057F82C6001FA0AF526EA0505334EB342BB
:1040A00008BF002622D0324EB34208BF01261DD0E1
:1040B000304EB34208BF022618D02F4EB34208BF7D
:1040C000032613D02D4EB34208BF04260ED02C4E2B
:1040D000B34208BF052609D02A4EB34208BF0626C0
:1040E00004D0294EB3420CBF0726082606FA0AF66A
:1040F000354347F82C506FEA090C244F3D680CEA11
:10410000050E6568EE0348BF49EA0E0EC7F800E0E9
:104110007D680CEA050E6568AE0348BF49EA0E0EDD
:10412000C7F804E0BD680CEA050E6568EE0248BFFA
:1041300049EA0E0EC7F808E0FD680CEA050E65684E
:10414000AD0248BF49EA0E0EC7F80CE008F10108BD
:10415000B8F10F0F7FF639AFBDE8F18702B9090456
:104160008161704744380240083801400000024035
:104170000004024000080240000C0240001002400F
:104180000014024000180240001C0240003C0140A4
:1041900001484068704700BF0000002038B50D4D51
:1041A0000D4B2A7804464FF47A711868B1FBF2F28D
:1041B000B0FBF2F000F00EFB50B9102C08D2002238
:1041C00021464FF0FF3000F0DDFAAC60002032BD38
:1041D000012032BD000000200C00002080B50B48FB
:1041E000016841F400710160026842F4806202607B
:1041F000016841F480710160032000F0B6FA0020EC
:10420000FFF7CCFF00F0CEFC002002BD003C0240D6
:104210002DE9F84386B068461421FFF7C9FE002453
:104220006F48704D704E714FDFF8C481DFF8C49154
:10423000059440F25554016841F010010160026894
:1042400002F010020592002205990592036843F0DE
:1042500004030360016801F0040100F0DEF843F09C
:1042600020030360016801F0200100F0D6F843F05C
:1042700080030360016801F0800100F0CEF843F094
:1042800001030360016801F0010100F0C6F843F08A
:1042900002030360016801F002010591059905928E
:1042A0002146036843F008030360006800F008003B
:1042B000059005982846FFF751FF0122012130465D
:1042C000FFF74CFF01224FF460413846FFF746FFED
:1042D00001224FF410414046FFF740FF00224FF407
:1042E000C2414846FFF73AFF552000F0A2F8384691
:1042F000FFF762FE202000F095F83846FFF75CFEDD
:1043000042F2060000F095F83046FFF755FE012016
:104310000190022202920392009469462846FFF718
:104320004BFE20200090002101910122029269465B
:104330002846FFF741FE01210091019102910222DE
:10434000039269463046FFF737FE082000F06AF80E
:104350002948FFF731FE032000F064F84046FFF7DC
:104360002BFE4FF4604100F04FF83846FFF724FE73
:104370004FF4104100F048F84046FFF71DFE4FF49F
:10438000C64000F056F84046FFF716FE4FF4807125
:104390000091012200210291039101926946484651
:1043A000FFF70AFE4FF48050002100900191029126
:1043B00048466946FFF700FE0122019202924FF43F
:1043C0000051009100F01AF84FF480410091012251
:1043D00001920221029100F011F807B0BDE8F083CC
:1043E0003038024000140240000802400010024031
:1043F00000040240000C0240000002400022039230
:1044000069464846FFF7D8BD00910122019202217A
:10441000029103220392694670470591059905921E
:1044200003687047002100900191012202926946C1
:104430007047002100900191022202926946704764
:1044400080B5002000901B48016841F40011016014
:10445000026802F4001200920022009900920021EA
:10446000036843F480030360006800F48000009058
:1044700000980C2000F086F90C2000F0A0F9002232
:1044800000210E2000F07EF90E2000F098F90022A5
:1044900000213A2000F076F93A2000F090F900224D
:1044A0000021462000F06EF9BDE80240462000F0F1
:1044B00086B900BF3038024080B5274827490160DF
:1044C00003224FF440114260416100234FF4002267
:1044D00001218360C36002610376417643830377E1
:1044E000417700F07BFB18B1BDE80140FFF75EBDEE
:1044F00001BD38B586B0044601A81421FFF758FD68
:104500002468164DAC4225D10020009000221448AA
:10451000016941F000710161016901F000710091D0
:10452000009900924FF4C051036843F00103036007
:104530000222006800F001000090009809480191F3
:10454000029200210391032209210591049201A9FD
:10455000FFF732FD07B030BDAC070020006400401B
:10456000303802400000024030B500BF74A191B065
:10457000D1E90045CDE900450AA81C21FFF718FD47
:1045800002A82021FFF714FD654C6648206040F228
:104590008F6140F2CF7000F068F86261A26120463E
:1045A00000F043FE08B1FFF701FD00F064F808B128
:1045B000FFF7FCFC602000210A900B9100220D9176
:1045C0000F910C920E9210920AA9204600F042FE22
:1045D00008B1FFF7EBFC04220AA9204600F03AFEDE
:1045E00008B1FFF7E3FC00204FF400510290039064
:1045F0000490059006900791099002A9204601F0C9
:1046000064F808B1FFF7D2FC204600F061F811B061
:1046100030BD0000D0B586B002A81021FFF7C8FC5D
:1046200049A44148D4E90067404C206042F20F7031
:10463000CDE90067472100F018F8A261204600F09C
:10464000DDFD08B1FFF7B2FC4FF48050029002A9E3
:10465000204600F077FE08B1FFF7A8FC00F00BF849
:1046600008B1FFF7A3FC06B0D0BD0022E060616096
:10467000A2602261704700210091019120466946A5
:1046800001F004B881B00068264988420BD10022AD
:1046900027480092016841F001010160006800F0C4
:1046A00001000090009801B0704781B000681E4979
:1046B00088420BD100221F480092016841F002019C
:1046C0000160006800F002000090009801B070479F
:1046D00038B586B0044601A81421FFF769FC2468A8
:1046E000104DAC4219D100200090022212480168FE
:1046F00041F0100101604FF42061006800F01000EB
:10470000009000980D4801910292002103910491BC
:104710000121059101A9FFF74FFC07B030BD000052
:10472000EC05002000000140000400402C060020A1
:104730004438024040380240303802400010024005
:104740000000000000000000000000000000000069
:104750000901020002D4294881547047284B02F015
:104760000F021A4402F8041C7047264B19684FF6D2
:10477000FF020002114000F4E060084322490843B0
:104780001860704738B51F4B1C68C4F30223C3F18F
:104790000704052C28BF04241D1D072D34BF00234A
:1047A000DB1E012505FA04F4641E2140994005FA38
:1047B00003F35B1E1A401143BDE83440C8E7010013
:1047C00007D4012200F01F01104B8A40400943F832
:1047D0002020704710B5401EB0F1807F01D301202A
:1047E00010BD0B4C60600F214FF0FF30FFF7B0FFA2
:1047F0000021A16007202060002010BD00E400E03F
:1048000018ED00E00CED00E00000FA0500E100E02A
:1048100010E000E010B50C4600F082FF4FEA040003
:1048200001F0ACF801F04AF901F08EF9BDE8104052
:104830000BA001F048B810B5074C206818B100F083
:1048400099FF00212160054C206818B101F0E9F8BA
:104850000020206010BD000028040020C0050020BA
:1048600073696D706C656C696220696E697420642F
:104870006F6E650D0A0000002DE9F843040017D0A3
:104880002078B74EC10745D5B06800F00C00042869
:1048900007D0B06800F00C0008280BD17068410206
:1048A00008D53068810335D56068002840F0BA80AB
:1048B000012053E16068B0F5803F04D1306840F4D6
:1048C0008030306011E0B0F5A02F306806D140F4A0
:1048D00080203060316841F4803105E020F4803080
:1048E0003060316821F480213160606868B1FFF781
:1048F0004FFC05463068810300F19480FFF748FCC7
:10490000401B6528F6D3032028E1FFF741FC05464C
:104910003068810340F18680FFF73AFC401B652830
:10492000F6D3F0E7FFF734FC401B022840F2A780E3
:10493000E9E7E06870B101213960FFF729FC05461D
:104940003068810700F1CB80FFF722FC401B022872
:10495000F6D9D8E73860FFF71BFC054631688807B1
:1049600063D5FFF715FC401B0228F7D9CBE7086099
:10497000FFF70EFC0546706F810775D5FFF708FC41
:10498000401B0228F7D9BEE70528306F06D140F05A
:1049900004003067306F40F0010005E0400840003F
:1049A0003067306F20F00400306741F28938A0682A
:1049B00068B1FFF7EDFB8146306F810700F19C8005
:1049C000FFF7E6FBA0EB09004045F5D39BE7FFF7B7
:1049D000DFFB8146306F810740F18E80FFF7D8FB07
:1049E000A0EB09004045F5D38DE7FFF7D1FB401B55
:1049F000022840F2968086E7FFF7CAFB001B0228D8
:104A000040F2A7807FE700203866FFF7C1FB04462D
:104A10003068810140F1A180FFF7BAFB001B02283A
:104A2000F6D970E720784F4F81071BD5B06810F09A
:104A30000C0F09D0B06800F00C0008287FF479AFA3
:104A4000706841023FF575AF3068810703D5E068B3
:104A500001287FF42DAF3168206921F0F80141EA87
:104A6000C0013160217808070DD560693E490028F2
:104A70003FF47DAF01220A60FFF78AFB0546706FA5
:104A800081077FF54FAF207841073AD5306C00257C
:104A9000C1000AD400950125316C41F08051316488
:104AA000306C00F0805000900098DFF8C080D8F89B
:104AB0000000C1051BD4D8F8000040F48070C8F88D
:104AC0000000FFF765FB8146D8F80000C1050ED451
:104AD000FFF75EFBA0EB09000228F5D913E7306869
:104AE000216920F0F80040EAC1003060BAE7A06810
:104AF00001287FF449AF4DE71DB1306C20F08050A4
:104B00003064A06948B3B16801F00C0108293FF492
:104B1000CFAE02287FF477AF00203866FFF738FB6E
:104B20000546306881013FF560AFE269206A616A3D
:104B30000243A06A400842EA8112401E42EA004253
:104B4000E06A42EA0062726001213966FFF720FBE9
:104B50000446306881017FF54FAF0020BDE8F28345
:104B60000038024000004742800E4742007000407B
:104B700000B500BF130096469446103928BFA0E840
:104B80000C50FAD85FEA417C28BF0CC048BF40F8FF
:104B9000042BC90728BF20F8022B48BF00F8012BBF
:104BA00000BD000081B00020009000220A4841684A
:104BB00041F480414160416801F4804100910099D5
:104BC0000092036843F080530360006800F0805057
:104BD0000090009801B070474038024038B504009A
:104BE0001ED094F8200010B92046FFF782FC206800
:104BF000016821F002010160FFF7CAFA054620684A
:104C000041688A074ED5FFF7C3FA401B0B28F6D33D
:104C100004E0FFF7BDFA401B0B2846D300F0E4F890
:104C2000012032BD016821F080010160607E00F04A
:104C300048F80CBF41F0400121F040010160A07E26
:104C400000F03FF80CBF41F0200121F0200101608D
:104C5000E07E00F036F80CBF21F0100141F01001A9
:104C60000160207F00F02DF80CBF41F0080121F019
:104C700008010160607F00F024F80CBF41F00401DE
:104C800021F004010160A268E068216902436069C3
:104C90000A43616802432068491E0A43C261002139
:104CA0006162A9E000F0ADF8054620684168CA07D6
:104CB000AFD5217E0129B5D1026842F080020260A1
:104CC000B4E70128206801687047F0B590F820200B
:104CD000012A18BF022A54D14D4A106840F0010041
:104CE0001060136823F47C53136010684B6A40EA29
:104CF0000320106001200B7D03F01F0300FA03F373
:104D0000D069DC432040D061424800F5117500F5C0
:104D10001076C86958B9D0682040D060CF6800F0DC
:104D200034F80F68C7EA004C486945F830C0C869D4
:104D300001280BD1D0681843D0600F6800F025F827
:104D4000CE684F69C6EA004045F8370088690028F8
:104D500050680CBF20401843506008690028506913
:104D600007BF0440546118435061086A012802D10A
:104D7000D0690343D36100201168490849001160DC
:104D8000F0BD416A41F48021A8E04868D1F814C020
:104D9000C0EA074746F83C708868704738B5044653
:104DA00094F82000012816D1022184F820102068F0
:104DB0000268520852000260FFF7EAF905462068CF
:104DC0004168C8070DD5FFF7E3F9401B0B28F6D360
:104DD00000F00AF803E0606A40F4002060620120FD
:104DE00032BD0020606232BD606A40F40030606213
:104DF000052184F820107047012084F8200000204D
:104E000032BD016841F001010160FFF7C1B9000046
:104E10000066004000640040F0B590F8204005684E
:104E2000AD68012C18BF022C55D115F0E05F4ED0B3
:104E3000C5F30164032C03D3416A41F400014DE042
:104E40000125A5401D6024010368CE6803F5C075E7
:104E50008B681BB90B6846EA435603E04F6843EA88
:104E6000C7031E432E5105680B6905F5C276335101
:104E7000097D012906D1036803F5C2710D5945F476
:104E800080750D519379D17955791B0443EA0163FB
:104E9000117943EA0523056825440B43C5F88C3195
:104EA0009378D17855781B0443EA0163117802683E
:104EB00043EA052322440B43C2F88831006800F519
:104EC000C070015941F0010101510020F0BD416A5B
:104ED00041F4001102E0416A41F480214162012065
:104EE000F0BD416A41F48021416201207047F0B574
:104EF00090F82040012C18BF022C66D100290468CC
:104F000001D1E56800E0256915F0030F03D1416A7E
:104F100041F400115CE00D0104F5D876745914F0E9
:104F200004049460066806F5D87603D17459640DBC
:104F3000146002E07659F6085660046804F5D876E5
:104F40007759C7F34004D46000F043F806F00F0629
:104F5000166100F03EF8C6F30724946100F039F8BA
:104F6000360C566102682A44D2F8B8411C700668B3
:104F70002E44D6F8B821120A5A7004682C44D4F88A
:104F8000B821120C9A7004682C44D4F8B821120E7F
:104F9000DA7000F023F81A7100F020F8120A5A7142
:104FA00000F01CF8120C9A7100F018F8120EDA7169
:104FB000006821B9C16841F02001C16003E00169C6
:104FC00041F0200101610020F0BD416A41F48021DF
:104FD00084E704682C44D4F8B461704704682C4416
:104FE000D4F8BC21704790F82020012A18BF022A6B
:104FF00003D100684269114300E072E7416100207B
:1050000070472DE9F84F05464FF0000828684669BB
:10501000D0F804B08468D0F80C90D0F810A087695C
:10502000F10745D5E20713D501218160A00703D51B
:10503000284600F099FD0BE0600748BF4FF4006878
:1050400006D420074EBF4FF48058284600F08DFD4F
:10505000E00515D52A684FF48071A005916003D54D
:10506000284600F083FD0BE0600548BF48F4005877
:1050700006D420054EBF48F48048284600F077FD4E
:10508000E00315D52A684FF48031A003916003D561
:10509000284600F06DFD0BE0600348BF48F400486F
:1050A00006D420034EBF48F48038284600F061FD46
:1050B000300748BF5FEAC96104D52968102048F469
:1050C0000078C860700748BF5FEA097105D52A6893
:1050D0000820D060284600F0DFFCB00707D529681B
:1050E000C86810F0030F1CBF284600F0A9FC70062A
:1050F00048BF5FEACA6104D52968102048F4806877
:105100000861B00648BF5FEA0A7105D52A68082021
:105110001061284600F02EFDF00607D529680869C1
:1051200010F0030F1CBF284600F025FDB00348BF58
:105130005FEACB6105D52A6810205060284600F050
:105140001BFDF00348BF5FEA0B7105D52A680820F4
:105150005060284600F011FD300440D55FEA4B71E5
:105160003AD5F00503D5F90748BF48F00108B00566
:1051700003D5B90748BF48F00208700503D5790781
:1051800048BF48F00408300526D517F0700F23D02B
:1051900007F07007102F0CD0202F0DD0302F0ED01D
:1051A000402F0FD0502F10D0602F08BF48F48078C8
:1051B0000DE048F008080AE048F0100807E048F061
:1051C000200804E048F0400801E048F08008286822
:1051D000816921F070018161042029684860B8F17B
:1051E000000F08D0686A48EA000068622846BDE8F7
:1051F000F24F00F0C3BCBDE8F18F000038B50400E9
:1052000001D1012032BD00F021F818B900F01AF8E0
:10521000FFF74BFAFFE702206870211D206800F0BD
:10522000EEF801206870002032BD38B5040001D1CD
:10523000012032BD00F00AF818B900F003F8FFF7BA
:1052400021FAE8E7002129702046704704F13C0567
:105250006878704770B500F063F801D1022070BD26
:1052600000F06BF832B1042A17D0082A28D00C2A93
:1052700039D04AE03068294600F00CF9306881697D
:1052800041F0080100F048F821F004018161316823
:105290008A69286902438A6137E03068294600F04C
:1052A00025F93068816941F4006100F035F821F496
:1052B000806100F031F82A6941EA0221816124E02D
:1052C0003068294600F042F93068C16941F00801B0
:1052D00000F01EF821F00401C1613168CA69286933
:1052E0000243CA6111E03068294600F05EF9306877
:1052F000C16941F4006100F00BF821F4806100F015
:1053000007F82A6941EA0221C16100F010F870BD76
:10531000C1613068C16970478161306881697047D7
:10532000064606F13C040D4620780128704701200E
:105330006070002121700020704701202070022140
:105340006170704738B500F04EF801D1022032BDCF
:105350000120207002226270DFF894022A689368AC
:10536000034093600868020018BF10282DD0202841
:1053700018BF302829D0402823D0502816D06028C4
:1053800018D0702803D0B0F5005F07D021E000F0FE
:1053900025F82868816841F0770105E000F01EF8E3
:1053A0002868816841F48041816012E000F012F8C1
:1053B00050210BE0CA684968286800F040F9602174
:1053C00004E000F007F8402100E00146286800F002
:1053D00048F90EE0CA684968286821E1CB684A6844
:1053E0008968286845E1054605F13C0420780128D4
:1053F00070470120607000212170002032BDF0B59F
:105400007C4C05687C4B7D4E7D4FDFF8F8C1A04297
:1054100018BFB0F1804F07D0604518BFB84203D025
:10542000B04218BF98420DD14A6825F07005154367
:10543000A04218BFB0F1804F17D060451CBFB842E2
:10544000B04212D098421CBF6F4A90420DD06F4EAE
:10545000B0421CBF6E4A904207D06E4EB0421FBF92
:105460006D4A90426D4EB04203D1CA6825F4407532
:1054700015434A6925F0800515430560A0428D68F3
:10548000C5620A68826212BF9842096901630122FB
:105490004261F0BDF0B5026A564F520852000262F6
:1054A000066A446885690B688A6825F0730526F0EA
:1054B00002061D431643504BB84218BF984207D10D
:1054C000CA6826F008061643B84226F0040601D042
:1054D000984205D14B698A6924F440741C431443F3
:1054E00044608561496841630662F0BDF0B5026AB7
:1054F000404E22F010020262B042056A436884699D
:105500000A6824F4E64444EA02248A6825F0200567
:1055100045EA0215384A18BF904208D1CF6825F0F5
:10552000800545EA0715B04225F0400501D09042BC
:1055300006D14E698A6923F44063164343EA860321
:1055400043608461496881630562F0BDF0B5026A19
:1055500022F480720262056A4368C4698E680A6830
:1055600025F4007524F0730445EA06251443214E02
:10557000214AB04218BF904208D1CF6825F4006597
:1055800045EA0725B04225F4806501D0904206D156
:105590004E698A6923F44053164343EA0613436075
:1055A000C4614968C1630562F0BD70B5026A114EFD
:1055B00022F480520262B042046A4268C3690D68F4
:1055C00023F4E64343EA05238D6824F4005444EAB7
:1055D00005341CBF084DA84204D14D6922F4804215
:1055E00042EA85124260C36149680164046270BD89
:1055F0008800FFFF0000014000040140000C004053
:105600000008004000040040004001400044014008
:105610000048014000180040001C004000200040ED
:1056200010B5036A046A64086400046223F00A0384
:10563000846924F0F00444EA0214846123E010B584
:10564000036A23F0100303628369046A23F470433E
:1056500043EA023324F0A004836144EA01140462A3
:1056600010BD826822F07002114341F00701816091
:10567000704710B5846824F47F442143114341EA04
:105680000321816010BD1943016210BD70B500F1A6
:105690003C031A78012A01D1022070BD01221A7040
:1056A00002245C7004686568A6684A68096825F089
:1056B00070050D43656026F080060068164386601D
:1056C000012159700020187070BD10B590F83C2071
:1056D000012A01D1022010BD012280F83C20CC68B3
:1056E0008A684B6824F44074144324F480641C4397
:1056F0000A680B6924F40064144324F480541C43A6
:105700004A69C96924F400541443026824F48044AB
:105710000C435464002380F83C30002010BD00008E
:1057200010B50146784C20464022FCF707FE632264
:1057300004F144012046FDF74CFC00F007F8206816
:10574000C16841F01001C16010BD000010B56F4C80
:10575000206830B900226E490FF2C11000F029FA1A
:105760002060BDE810400FF2F10200BF0FF2D81127
:1057700073A07FE01CB5674C04F1680269462046BF
:1057800000F03EF8009804F1680100F04FF8622143
:105790002046FEF70DFC0020606613BD38B5016899
:1057A000594C2068814229D1002200920B68009355
:1057B0004A68009200980A6849685748FDF752FC09
:1057C00004F1430104F1A70211F8010F08B9914255
:1057D000FAD3504D284600F0F9FA287808B1012193
:1057E0002164622104F14400FEF7E2FB04F144016C
:1057F0002046BDE838406322FDF7EBBB31BD000019
:10580000F8B50C464CA61546314600F005FB0027BE
:1058100048B10D2F07DA45F827003146002000F087
:10582000FBFA7F1CF4E727600020F2BD38B50D4677
:10583000364A29680446106800F028FA020005D0AC
:105840001268294620469047002032BD42A000F051
:105850003AF8012032BD000080B500BF42A000F040
:1058600032F82A480FF2C5010068BDE8084000225E
:1058700000F03CBA2DE9F843044689461646082054
:10588000FBF7E4FA07462046FCF7EEFC401CFBF76A
:10589000DDFA80464846FCF7E7FC401CFBF7D6FAE9
:1058A00005462146404600F091FA4946284600F058
:1058B0008DFA3A4641463E607D6014480068BDE876
:1058C000F84300F097B90EB478B50F4C024604F1D6
:1058D000A80605AB6521304600F0C4FA04F1300596
:1058E0002021697282B231462046FDF736FB10B1A5
:1058F0000A2000F0D5FA286890F835100129FAD16D
:1059000071BC5DF810FB0000E803002014080020C3
:10591000935B0008F80400206C07002080B500F0BD
:10592000D3FA00B10120C0B202BD000009684A6884
:105930004FEA00010EA0C6E72C200D0A000000006F
:1059400068656C700000000073686F7720636D6499
:105950002075736167650000636D64206E6F74204D
:1059600066696E640D0A000068656C703A0D0A0085
:1059700025733A2025730D0A0000000058B5014632
:10598000434C8AB020462822FCF7D8FC012107911D
:1059900008910E2200260992059606960096019619
:1059A00002960396049669462046FFF78EF908B1E1
:1059B000FEF7FCFA2046FFF7F1F908B1FEF7F6FA18
:1059C00002212046FFF70FFB08B1FEF7EFFA042192
:1059D0002046FFF708FB08B1FEF7E8FA08202D4C37
:1059E0002061E660A6602675606D38B900220FF26E
:1059F000AD010FF2AD0000F0DCF8606500F0A4F836
:105A00000BB050BD38B504460D460420FBF71EFA16
:105A1000204B04600146586D2A46BDE8384000F02E
:105A2000E9B810B51B4C606D04F1500100F02EF97F
:105A3000010004D004F12800BDE81040084710BD63
:105A400010B5144C04F1180304F134020021FFF7DF
:105A50004EFA606B94ED060B206584ED0A0B012075
:105A6000206310BD10B50B4C01202062AD212060D9
:105A7000616200BF0EA0FFF726FF04F1580304F196
:105A800020022146BDE810400148FFF7C5B90000DB
:105A9000D407002090050020704700000068704780
:105AA00000680968884201D10020704701207047D2
:105AB00073656E6420646174610D0A002DE9804095
:105AC0000FF221020FF240010FF23400FFF7D2FE75
:105AD000BDE808400FF215020FF240010CA0FFF7DD
